{
  "_format": "hh-sol-artifact-1",
  "contractName": "NFTNewsCert",
  "sourceName": "contracts/NFTNewsCert.sol",
  "abi": [
    {
      "inputs": [
        {
          "internalType": "string",
          "name": "_name",
          "type": "string"
        },
        {
          "internalType": "string",
          "name": "_symbol",
          "type": "string"
        }
      ],
      "stateMutability": "nonpayable",
      "type": "constructor"
    },
    {
      "anonymous": false,
      "inputs": [
        {
          "indexed": true,
          "internalType": "address",
          "name": "owner",
          "type": "address"
        },
        {
          "indexed": true,
          "internalType": "address",
          "name": "approved",
          "type": "address"
        },
        {
          "indexed": true,
          "internalType": "uint256",
          "name": "tokenId",
          "type": "uint256"
        }
      ],
      "name": "Approval",
      "type": "event"
    },
    {
      "anonymous": false,
      "inputs": [
        {
          "indexed": true,
          "internalType": "address",
          "name": "owner",
          "type": "address"
        },
        {
          "indexed": true,
          "internalType": "address",
          "name": "operator",
          "type": "address"
        },
        {
          "indexed": false,
          "internalType": "bool",
          "name": "approved",
          "type": "bool"
        }
      ],
      "name": "ApprovalForAll",
      "type": "event"
    },
    {
      "anonymous": false,
      "inputs": [
        {
          "indexed": true,
          "internalType": "address",
          "name": "minter",
          "type": "address"
        },
        {
          "indexed": true,
          "internalType": "string",
          "name": "color",
          "type": "string"
        },
        {
          "indexed": false,
          "internalType": "string",
          "name": "signature",
          "type": "string"
        }
      ],
      "name": "Mint",
      "type": "event"
    },
    {
      "anonymous": false,
      "inputs": [
        {
          "indexed": true,
          "internalType": "address",
          "name": "previousOwner",
          "type": "address"
        },
        {
          "indexed": true,
          "internalType": "address",
          "name": "newOwner",
          "type": "address"
        }
      ],
      "name": "OwnershipTransferred",
      "type": "event"
    },
    {
      "anonymous": false,
      "inputs": [
        {
          "indexed": true,
          "internalType": "address",
          "name": "from",
          "type": "address"
        },
        {
          "indexed": true,
          "internalType": "address",
          "name": "to",
          "type": "address"
        },
        {
          "indexed": true,
          "internalType": "uint256",
          "name": "tokenId",
          "type": "uint256"
        }
      ],
      "name": "Transfer",
      "type": "event"
    },
    {
      "inputs": [
        {
          "internalType": "address",
          "name": "to",
          "type": "address"
        },
        {
          "internalType": "uint256",
          "name": "tokenId",
          "type": "uint256"
        }
      ],
      "name": "approve",
      "outputs": [],
      "stateMutability": "nonpayable",
      "type": "function"
    },
    {
      "inputs": [
        {
          "internalType": "address",
          "name": "owner",
          "type": "address"
        }
      ],
      "name": "balanceOf",
      "outputs": [
        {
          "internalType": "uint256",
          "name": "",
          "type": "uint256"
        }
      ],
      "stateMutability": "view",
      "type": "function"
    },
    {
      "inputs": [
        {
          "internalType": "uint256",
          "name": "tokenId",
          "type": "uint256"
        }
      ],
      "name": "getApproved",
      "outputs": [
        {
          "internalType": "address",
          "name": "",
          "type": "address"
        }
      ],
      "stateMutability": "view",
      "type": "function"
    },
    {
      "inputs": [],
      "name": "getMintStatus",
      "outputs": [
        {
          "internalType": "bool",
          "name": "",
          "type": "bool"
        }
      ],
      "stateMutability": "view",
      "type": "function"
    },
    {
      "inputs": [],
      "name": "getNumberOfMinted",
      "outputs": [
        {
          "internalType": "uint256",
          "name": "",
          "type": "uint256"
        }
      ],
      "stateMutability": "view",
      "type": "function"
    },
    {
      "inputs": [
        {
          "internalType": "address",
          "name": "_address",
          "type": "address"
        }
      ],
      "name": "getNumberofAccountMinted",
      "outputs": [
        {
          "internalType": "uint256",
          "name": "",
          "type": "uint256"
        }
      ],
      "stateMutability": "view",
      "type": "function"
    },
    {
      "inputs": [
        {
          "internalType": "address",
          "name": "owner",
          "type": "address"
        },
        {
          "internalType": "address",
          "name": "operator",
          "type": "address"
        }
      ],
      "name": "isApprovedForAll",
      "outputs": [
        {
          "internalType": "bool",
          "name": "",
          "type": "bool"
        }
      ],
      "stateMutability": "view",
      "type": "function"
    },
    {
      "inputs": [
        {
          "internalType": "string",
          "name": "yourName",
          "type": "string"
        }
      ],
      "name": "mintBlue",
      "outputs": [],
      "stateMutability": "nonpayable",
      "type": "function"
    },
    {
      "inputs": [
        {
          "internalType": "string",
          "name": "yourName",
          "type": "string"
        }
      ],
      "name": "mintGreen",
      "outputs": [],
      "stateMutability": "nonpayable",
      "type": "function"
    },
    {
      "inputs": [
        {
          "internalType": "string",
          "name": "yourName",
          "type": "string"
        }
      ],
      "name": "mintPink",
      "outputs": [],
      "stateMutability": "nonpayable",
      "type": "function"
    },
    {
      "inputs": [
        {
          "internalType": "string",
          "name": "yourName",
          "type": "string"
        }
      ],
      "name": "mintRed",
      "outputs": [],
      "stateMutability": "nonpayable",
      "type": "function"
    },
    {
      "inputs": [
        {
          "internalType": "string",
          "name": "yourName",
          "type": "string"
        }
      ],
      "name": "mintWhite",
      "outputs": [],
      "stateMutability": "nonpayable",
      "type": "function"
    },
    {
      "inputs": [
        {
          "internalType": "string",
          "name": "yourName",
          "type": "string"
        }
      ],
      "name": "mintYellow",
      "outputs": [],
      "stateMutability": "nonpayable",
      "type": "function"
    },
    {
      "inputs": [],
      "name": "name",
      "outputs": [
        {
          "internalType": "string",
          "name": "",
          "type": "string"
        }
      ],
      "stateMutability": "view",
      "type": "function"
    },
    {
      "inputs": [],
      "name": "owner",
      "outputs": [
        {
          "internalType": "address",
          "name": "",
          "type": "address"
        }
      ],
      "stateMutability": "view",
      "type": "function"
    },
    {
      "inputs": [
        {
          "internalType": "uint256",
          "name": "tokenId",
          "type": "uint256"
        }
      ],
      "name": "ownerOf",
      "outputs": [
        {
          "internalType": "address",
          "name": "",
          "type": "address"
        }
      ],
      "stateMutability": "view",
      "type": "function"
    },
    {
      "inputs": [],
      "name": "renounceOwnership",
      "outputs": [],
      "stateMutability": "nonpayable",
      "type": "function"
    },
    {
      "inputs": [
        {
          "internalType": "address",
          "name": "from",
          "type": "address"
        },
        {
          "internalType": "address",
          "name": "to",
          "type": "address"
        },
        {
          "internalType": "uint256",
          "name": "tokenId",
          "type": "uint256"
        }
      ],
      "name": "safeTransferFrom",
      "outputs": [],
      "stateMutability": "nonpayable",
      "type": "function"
    },
    {
      "inputs": [
        {
          "internalType": "address",
          "name": "from",
          "type": "address"
        },
        {
          "internalType": "address",
          "name": "to",
          "type": "address"
        },
        {
          "internalType": "uint256",
          "name": "tokenId",
          "type": "uint256"
        },
        {
          "internalType": "bytes",
          "name": "data",
          "type": "bytes"
        }
      ],
      "name": "safeTransferFrom",
      "outputs": [],
      "stateMutability": "nonpayable",
      "type": "function"
    },
    {
      "inputs": [
        {
          "internalType": "address",
          "name": "operator",
          "type": "address"
        },
        {
          "internalType": "bool",
          "name": "approved",
          "type": "bool"
        }
      ],
      "name": "setApprovalForAll",
      "outputs": [],
      "stateMutability": "nonpayable",
      "type": "function"
    },
    {
      "inputs": [
        {
          "internalType": "uint256",
          "name": "_limit",
          "type": "uint256"
        }
      ],
      "name": "setLimit",
      "outputs": [],
      "stateMutability": "nonpayable",
      "type": "function"
    },
    {
      "inputs": [
        {
          "internalType": "bool",
          "name": "_sw",
          "type": "bool"
        }
      ],
      "name": "setSwitch",
      "outputs": [],
      "stateMutability": "nonpayable",
      "type": "function"
    },
    {
      "inputs": [
        {
          "internalType": "bytes4",
          "name": "interfaceId",
          "type": "bytes4"
        }
      ],
      "name": "supportsInterface",
      "outputs": [
        {
          "internalType": "bool",
          "name": "",
          "type": "bool"
        }
      ],
      "stateMutability": "view",
      "type": "function"
    },
    {
      "inputs": [],
      "name": "symbol",
      "outputs": [
        {
          "internalType": "string",
          "name": "",
          "type": "string"
        }
      ],
      "stateMutability": "view",
      "type": "function"
    },
    {
      "inputs": [
        {
          "internalType": "uint256",
          "name": "_tokenId",
          "type": "uint256"
        }
      ],
      "name": "tokenURI",
      "outputs": [
        {
          "internalType": "string",
          "name": "",
          "type": "string"
        }
      ],
      "stateMutability": "view",
      "type": "function"
    },
    {
      "inputs": [
        {
          "internalType": "address",
          "name": "from",
          "type": "address"
        },
        {
          "internalType": "address",
          "name": "to",
          "type": "address"
        },
        {
          "internalType": "uint256",
          "name": "tokenId",
          "type": "uint256"
        }
      ],
      "name": "transferFrom",
      "outputs": [],
      "stateMutability": "nonpayable",
      "type": "function"
    },
    {
      "inputs": [
        {
          "internalType": "address",
          "name": "newOwner",
          "type": "address"
        }
      ],
      "name": "transferOwnership",
      "outputs": [],
      "stateMutability": "nonpayable",
      "type": "function"
    }
  ],
  "bytecode": "0x608060405260006007556000600860006101000a81548160ff02191690831515021790555060646009556001600a553480156200003b57600080fd5b50604051620051b7380380620051b78339818101604052810190620000619190620007b7565b818181600090805190602001906200007b929190620003fd565b50806001908051906020019062000094929190620003fd565b505050620000b7620000ab6200032f60201b60201c565b6200033760201b60201c565b6040518060e001604052806040518060400160405280600581526020017f626c61636b00000000000000000000000000000000000000000000000000000081525081526020016040518060400160405280600381526020017f726564000000000000000000000000000000000000000000000000000000000081525081526020016040518060400160405280600481526020017f626c75650000000000000000000000000000000000000000000000000000000081525081526020016040518060400160405280600581526020017f677265656e00000000000000000000000000000000000000000000000000000081525081526020016040518060400160405280600681526020017f79656c6c6f77000000000000000000000000000000000000000000000000000081525081526020016040518060400160405280600581526020017f776869746500000000000000000000000000000000000000000000000000000081525081526020016040518060400160405280600481526020017f70696e6b00000000000000000000000000000000000000000000000000000000815250815250600b9060076200026f9291906200048e565b5060005b600b805490508110156200032657600b81815481106200029857620002976200083c565b5b90600052602060002001600c6000836006811115620002bc57620002bb6200086b565b5b6006811115620002d157620002d06200086b565b5b6006811115620002e657620002e56200086b565b5b81526020019081526020016000209080546200030290620008c9565b6200030f929190620004f5565b5080806200031d9062000938565b91505062000273565b50505062000986565b600033905090565b6000600660009054906101000a900473ffffffffffffffffffffffffffffffffffffffff16905081600660006101000a81548173ffffffffffffffffffffffffffffffffffffffff021916908373ffffffffffffffffffffffffffffffffffffffff1602179055508173ffffffffffffffffffffffffffffffffffffffff168173ffffffffffffffffffffffffffffffffffffffff167f8be0079c531659141344cd1fd0a4f28419497f9722a3daafe3b4186f6b6457e060405160405180910390a35050565b8280546200040b90620008c9565b90600052602060002090601f0160209004810192826200042f57600085556200047b565b82601f106200044a57805160ff19168380011785556200047b565b828001600101855582156200047b579182015b828111156200047a5782518255916020019190600101906200045d565b5b5090506200048a91906200058d565b5090565b828054828255906000526020600020908101928215620004e2579160200282015b82811115620004e1578251829080519060200190620004d0929190620003fd565b5091602001919060010190620004af565b5b509050620004f19190620005ac565b5090565b8280546200050390620008c9565b90600052602060002090601f0160209004810192826200052757600085556200057a565b82601f106200053a57805485556200057a565b828001600101855582156200057a57600052602060002091601f016020900482015b82811115620005795782548255916001019190600101906200055c565b5b5090506200058991906200058d565b5090565b5b80821115620005a85760008160009055506001016200058e565b5090565b5b80821115620005d05760008181620005c69190620005d4565b50600101620005ad565b5090565b508054620005e290620008c9565b6000825580601f10620005f6575062000617565b601f0160209004906000526020600020908101906200061691906200058d565b5b50565b6000604051905090565b600080fd5b600080fd5b600080fd5b600080fd5b6000601f19601f8301169050919050565b7f4e487b7100000000000000000000000000000000000000000000000000000000600052604160045260246000fd5b620006838262000638565b810181811067ffffffffffffffff82111715620006a557620006a462000649565b5b80604052505050565b6000620006ba6200061a565b9050620006c8828262000678565b919050565b600067ffffffffffffffff821115620006eb57620006ea62000649565b5b620006f68262000638565b9050602081019050919050565b60005b838110156200072357808201518184015260208101905062000706565b8381111562000733576000848401525b50505050565b6000620007506200074a84620006cd565b620006ae565b9050828152602081018484840111156200076f576200076e62000633565b5b6200077c84828562000703565b509392505050565b600082601f8301126200079c576200079b6200062e565b5b8151620007ae84826020860162000739565b91505092915050565b60008060408385031215620007d157620007d062000624565b5b600083015167ffffffffffffffff811115620007f257620007f162000629565b5b620008008582860162000784565b925050602083015167ffffffffffffffff81111562000824576200082362000629565b5b620008328582860162000784565b9150509250929050565b7f4e487b7100000000000000000000000000000000000000000000000000000000600052603260045260246000fd5b7f4e487b7100000000000000000000000000000000000000000000000000000000600052602160045260246000fd5b7f4e487b7100000000000000000000000000000000000000000000000000000000600052602260045260246000fd5b60006002820490506001821680620008e257607f821691505b60208210811415620008f957620008f86200089a565b5b50919050565b7f4e487b7100000000000000000000000000000000000000000000000000000000600052601160045260246000fd5b6000819050919050565b600062000945826200092e565b91507fffffffffffffffffffffffffffffffffffffffffffffffffffffffffffffffff8214156200097b576200097a620008ff565b5b600182019050919050565b61482180620009966000396000f3fe608060405234801561001057600080fd5b50600436106101a95760003560e01c80638da5cb5b116100f9578063c6ae947511610097578063e985e9c511610071578063e985e9c51461048e578063f1a868d8146104be578063f2fde38b146104ee578063f69b85261461050a576101a9565b8063c6ae947514610426578063c87b56dd14610442578063cdefbb1214610472576101a9565b806397cefc4c116100d357806397cefc4c146103b6578063a22cb465146103d2578063b88d4fde146103ee578063be4603c31461040a576101a9565b80638da5cb5b1461035c578063941ada0e1461037a57806395d89b4114610398576101a9565b8063424294e41161016657806359e5fad61161014057806359e5fad6146102d65780636352211e146102f257806370a0823114610322578063715018a614610352576101a9565b8063424294e41461028057806342842e0e1461029e5780634d79957b146102ba576101a9565b806301ffc9a7146101ae57806306fdde03146101de578063081812fc146101fc578063095ea7b31461022c57806323b872dd1461024857806327ea6f2b14610264575b600080fd5b6101c860048036038101906101c391906126e1565b610526565b6040516101d59190612729565b60405180910390f35b6101e6610608565b6040516101f391906127dd565b60405180910390f35b61021660048036038101906102119190612835565b61069a565b60405161022391906128a3565b60405180910390f35b610246600480360381019061024191906128ea565b6106e0565b005b610262600480360381019061025d919061292a565b6107f8565b005b61027e60048036038101906102799190612835565b610858565b005b61028861086a565b604051610295919061298c565b60405180910390f35b6102b860048036038101906102b3919061292a565b610874565b005b6102d460048036038101906102cf9190612adc565b610894565b005b6102f060048036038101906102eb9190612adc565b6108a2565b005b61030c60048036038101906103079190612835565b6108b0565b60405161031991906128a3565b60405180910390f35b61033c60048036038101906103379190612b25565b610962565b604051610349919061298c565b60405180910390f35b61035a610a1a565b005b610364610a2e565b60405161037191906128a3565b60405180910390f35b610382610a58565b60405161038f9190612729565b60405180910390f35b6103a0610a6f565b6040516103ad91906127dd565b60405180910390f35b6103d060048036038101906103cb9190612b7e565b610b01565b005b6103ec60048036038101906103e79190612bab565b610b26565b005b61040860048036038101906104039190612c8c565b610b3c565b005b610424600480360381019061041f9190612adc565b610b9e565b005b610440600480360381019061043b9190612adc565b610bac565b005b61045c60048036038101906104579190612835565b610bba565b60405161046991906127dd565b60405180910390f35b61048c60048036038101906104879190612adc565b6111f3565b005b6104a860048036038101906104a39190612d0f565b611201565b6040516104b59190612729565b60405180910390f35b6104d860048036038101906104d39190612b25565b611295565b6040516104e5919061298c565b60405180910390f35b61050860048036038101906105039190612b25565b6112de565b005b610524600480360381019061051f9190612adc565b611362565b005b60007f80ac58cd000000000000000000000000000000000000000000000000000000007bffffffffffffffffffffffffffffffffffffffffffffffffffffffff1916827bffffffffffffffffffffffffffffffffffffffffffffffffffffffff191614806105f157507f5b5e139f000000000000000000000000000000000000000000000000000000007bffffffffffffffffffffffffffffffffffffffffffffffffffffffff1916827bffffffffffffffffffffffffffffffffffffffffffffffffffffffff1916145b80610601575061060082611370565b5b9050919050565b60606000805461061790612d7e565b80601f016020809104026020016040519081016040528092919081815260200182805461064390612d7e565b80156106905780601f1061066557610100808354040283529160200191610690565b820191906000526020600020905b81548152906001019060200180831161067357829003601f168201915b5050505050905090565b60006106a5826113da565b6004600083815260200190815260200160002060009054906101000a900473ffffffffffffffffffffffffffffffffffffffff169050919050565b60006106eb826108b0565b90508073ffffffffffffffffffffffffffffffffffffffff168373ffffffffffffffffffffffffffffffffffffffff16141561075c576040517f08c379a000000000000000000000000000000000000000000000000000000000815260040161075390612e22565b60405180910390fd5b8073ffffffffffffffffffffffffffffffffffffffff1661077b611425565b73ffffffffffffffffffffffffffffffffffffffff1614806107aa57506107a9816107a4611425565b611201565b5b6107e9576040517f08c379a00000000000000000000000000000000000000000000000000000000081526004016107e090612eb4565b60405180910390fd5b6107f3838361142d565b505050565b610809610803611425565b826114e6565b610848576040517f08c379a000000000000000000000000000000000000000000000000000000000815260040161083f90612f46565b60405180910390fd5b61085383838361157b565b505050565b6108606117e2565b80600a8190555050565b6000600754905090565b61088f83838360405180602001604052806000815250610b3c565b505050565b61089f600482611860565b50565b6108ad600282611860565b50565b6000806002600084815260200190815260200160002060009054906101000a900473ffffffffffffffffffffffffffffffffffffffff169050600073ffffffffffffffffffffffffffffffffffffffff168173ffffffffffffffffffffffffffffffffffffffff161415610959576040517f08c379a000000000000000000000000000000000000000000000000000000000815260040161095090612fb2565b60405180910390fd5b80915050919050565b60008073ffffffffffffffffffffffffffffffffffffffff168273ffffffffffffffffffffffffffffffffffffffff1614156109d3576040517f08c379a00000000000000000000000000000000000000000000000000000000081526004016109ca90613044565b60405180910390fd5b600360008373ffffffffffffffffffffffffffffffffffffffff1673ffffffffffffffffffffffffffffffffffffffff168152602001908152602001600020549050919050565b610a226117e2565b610a2c6000611af3565b565b6000600660009054906101000a900473ffffffffffffffffffffffffffffffffffffffff16905090565b6000600860009054906101000a900460ff16905090565b606060018054610a7e90612d7e565b80601f0160208091040260200160405190810160405280929190818152602001828054610aaa90612d7e565b8015610af75780601f10610acc57610100808354040283529160200191610af7565b820191906000526020600020905b815481529060010190602001808311610ada57829003601f168201915b5050505050905090565b610b096117e2565b80600860006101000a81548160ff02191690831515021790555050565b610b38610b31611425565b8383611bb9565b5050565b610b4d610b47611425565b836114e6565b610b8c576040517f08c379a0000000000000000000000000000000000000000000000000000000008152600401610b8390612f46565b60405180910390fd5b610b9884848484611d26565b50505050565b610ba9600582611860565b50565b610bb7600182611860565b50565b6060610bc582611d82565b610c04576040517f08c379a0000000000000000000000000000000000000000000000000000000008152600401610bfb906130b0565b60405180910390fd5b610c0c6125ab565b604051602001610c1b906132c9565b60405160208183030381529060405281600060068110610c3e57610c3d6132f4565b5b602002018190525060005b600b80549050811015610d71576000600b8281548110610c6c57610c6b6132f4565b5b906000526020600020018054610c8190612d7e565b80601f0160208091040260200160405190810160405280929190818152602001828054610cad90612d7e565b8015610cfa5780601f10610ccf57610100808354040283529160200191610cfa565b820191906000526020600020905b815481529060010190602001808311610cdd57829003601f168201915b5050505050905082600160068110610d1557610d146132f4565b5b602002015181828384604051602001610d32959493929190613568565b60405160208183030381529060405283600160068110610d5557610d546132f4565b5b6020020181905250508080610d6990613624565b915050610c49565b506040518060800160405280604581526020016147a76045913981600260068110610d9f57610d9e6132f4565b5b60200201819052506000610dba610db585611df3565b611e45565b90506000610dcf610dca86611fa6565b611e45565b90508181604051602001610de4929190613777565b60405160208183030381529060405283600360068110610e0757610e066132f4565b5b60200201819052506000600190505b60648111610fef5760006006811115610e3257610e316137bc565b5b600d600083815260200190815260200160002060009054906101000a900460ff166006811115610e6557610e646137bc565b5b1415610e7057610fdc565b6000600c6000600d600085815260200190815260200160002060009054906101000a900460ff166006811115610ea957610ea86137bc565b5b6006811115610ebb57610eba6137bc565b5b81526020019081526020016000208054610ed490612d7e565b80601f0160208091040260200160405190810160405280929190818152602001828054610f0090612d7e565b8015610f4d5780601f10610f2257610100808354040283529160200191610f4d565b820191906000526020600020905b815481529060010190602001808311610f3057829003601f168201915b505050505090506000610f67610f6284611df3565b611e45565b90506000610f7c610f7785611fa6565b611e45565b905086600460068110610f9257610f916132f4565b5b6020020151838383604051602001610fad949392919061391b565b60405160208183030381529060405287600460068110610fd057610fcf6132f4565b5b60200201819052505050505b8080610fe790613624565b915050610e16565b50610ff985611e45565b600f600087815260200190815260200160002060405160200161101d929190613be1565b604051602081830303815290604052836005600681106110405761103f6132f4565b5b602002018190525060008360006006811061105e5761105d6132f4565b5b602002015184600160068110611077576110766132f4565b5b6020020151856002600681106110905761108f6132f4565b5b6020020151866003600681106110a9576110a86132f4565b5b6020020151876004600681106110c2576110c16132f4565b5b6020020151886005600681106110db576110da6132f4565b5b60200201516040516020016110f596959493929190613c31565b6040516020818303038152906040529050600061111187611e45565b600c6000600d60008b815260200190815260200160002060009054906101000a900460ff166006811115611148576111476137bc565b5b600681111561115a576111596137bc565b5b8152602001908152602001600020604051602001611179929190613e77565b604051602081830303815290604052905060006111be8261119985611ff8565b6040516020016111aa929190613f1e565b604051602081830303815290604052611ff8565b90506000816040516020016111d39190613f99565b604051602081830303815290604052905080975050505050505050919050565b6111fe600382611860565b50565b6000600560008473ffffffffffffffffffffffffffffffffffffffff1673ffffffffffffffffffffffffffffffffffffffff16815260200190815260200160002060008373ffffffffffffffffffffffffffffffffffffffff1673ffffffffffffffffffffffffffffffffffffffff16815260200190815260200160002060009054906101000a900460ff16905092915050565b6000601060008373ffffffffffffffffffffffffffffffffffffffff1673ffffffffffffffffffffffffffffffffffffffff168152602001908152602001600020549050919050565b6112e66117e2565b600073ffffffffffffffffffffffffffffffffffffffff168173ffffffffffffffffffffffffffffffffffffffff161415611356576040517f08c379a000000000000000000000000000000000000000000000000000000000815260040161134d9061402d565b60405180910390fd5b61135f81611af3565b50565b61136d600682611860565b50565b60007f01ffc9a7000000000000000000000000000000000000000000000000000000007bffffffffffffffffffffffffffffffffffffffffffffffffffffffff1916827bffffffffffffffffffffffffffffffffffffffffffffffffffffffff1916149050919050565b6113e381612171565b611422576040517f08c379a000000000000000000000000000000000000000000000000000000000815260040161141990612fb2565b60405180910390fd5b50565b600033905090565b816004600083815260200190815260200160002060006101000a81548173ffffffffffffffffffffffffffffffffffffffff021916908373ffffffffffffffffffffffffffffffffffffffff160217905550808273ffffffffffffffffffffffffffffffffffffffff166114a0836108b0565b73ffffffffffffffffffffffffffffffffffffffff167f8c5be1e5ebec7d5bd14f71427d1e84f3dd0314c0f7b2291e5b200ac8c7c3b92560405160405180910390a45050565b6000806114f2836108b0565b90508073ffffffffffffffffffffffffffffffffffffffff168473ffffffffffffffffffffffffffffffffffffffff16148061153457506115338185611201565b5b8061157257508373ffffffffffffffffffffffffffffffffffffffff1661155a8461069a565b73ffffffffffffffffffffffffffffffffffffffff16145b91505092915050565b8273ffffffffffffffffffffffffffffffffffffffff1661159b826108b0565b73ffffffffffffffffffffffffffffffffffffffff16146115f1576040517f08c379a00000000000000000000000000000000000000000000000000000000081526004016115e8906140bf565b60405180910390fd5b600073ffffffffffffffffffffffffffffffffffffffff168273ffffffffffffffffffffffffffffffffffffffff161415611661576040517f08c379a000000000000000000000000000000000000000000000000000000000815260040161165890614151565b60405180910390fd5b61166c8383836121dd565b61167760008261142d565b6001600360008573ffffffffffffffffffffffffffffffffffffffff1673ffffffffffffffffffffffffffffffffffffffff16815260200190815260200160002060008282546116c79190614171565b925050819055506001600360008473ffffffffffffffffffffffffffffffffffffffff1673ffffffffffffffffffffffffffffffffffffffff168152602001908152602001600020600082825461171e91906141a5565b92505081905550816002600083815260200190815260200160002060006101000a81548173ffffffffffffffffffffffffffffffffffffffff021916908373ffffffffffffffffffffffffffffffffffffffff160217905550808273ffffffffffffffffffffffffffffffffffffffff168473ffffffffffffffffffffffffffffffffffffffff167fddf252ad1be2c89b69c2b068fc378daa952ba7f163c4a11628f55a4df523b3ef60405160405180910390a46117dd8383836121e2565b505050565b6117ea611425565b73ffffffffffffffffffffffffffffffffffffffff16611808610a2e565b73ffffffffffffffffffffffffffffffffffffffff161461185e576040517f08c379a000000000000000000000000000000000000000000000000000000000815260040161185590614247565b60405180910390fd5b565b6000339050600860009054906101000a900460ff166118b4576040517f08c379a00000000000000000000000000000000000000000000000000000000081526004016118ab906142b3565b60405180910390fd5b600954600754106118fa576040517f08c379a00000000000000000000000000000000000000000000000000000000081526004016118f19061431f565b60405180910390fd5b600a54601060008373ffffffffffffffffffffffffffffffffffffffff1673ffffffffffffffffffffffffffffffffffffffff168152602001908152602001600020541061197d576040517f08c379a00000000000000000000000000000000000000000000000000000000081526004016119749061438b565b60405180910390fd5b60006119876121e7565b905061199382826121fd565b82600f600083815260200190815260200160002090805190602001906119ba9291906125d2565b5083600d600083815260200190815260200160002060006101000a81548160ff021916908360068111156119f1576119f06137bc565b5b0217905550601060008373ffffffffffffffffffffffffffffffffffffffff1673ffffffffffffffffffffffffffffffffffffffff1681526020019081526020016000206000815480929190611a4690613624565b9190505550600c6000856006811115611a6257611a616137bc565b5b6006811115611a7457611a736137bc565b5b8152602001908152602001600020604051611a8f91906143ab565b60405180910390203373ffffffffffffffffffffffffffffffffffffffff167f35a0e34ee6c196b20f530d94282b96d57c4beda09ba5f603fe1baa387661d3c385604051611add91906127dd565b60405180910390a3611aed6123d7565b50505050565b6000600660009054906101000a900473ffffffffffffffffffffffffffffffffffffffff16905081600660006101000a81548173ffffffffffffffffffffffffffffffffffffffff021916908373ffffffffffffffffffffffffffffffffffffffff1602179055508173ffffffffffffffffffffffffffffffffffffffff168173ffffffffffffffffffffffffffffffffffffffff167f8be0079c531659141344cd1fd0a4f28419497f9722a3daafe3b4186f6b6457e060405160405180910390a35050565b8173ffffffffffffffffffffffffffffffffffffffff168373ffffffffffffffffffffffffffffffffffffffff161415611c28576040517f08c379a0000000000000000000000000000000000000000000000000000000008152600401611c1f9061440e565b60405180910390fd5b80600560008573ffffffffffffffffffffffffffffffffffffffff1673ffffffffffffffffffffffffffffffffffffffff16815260200190815260200160002060008473ffffffffffffffffffffffffffffffffffffffff1673ffffffffffffffffffffffffffffffffffffffff16815260200190815260200160002060006101000a81548160ff0219169083151502179055508173ffffffffffffffffffffffffffffffffffffffff168373ffffffffffffffffffffffffffffffffffffffff167f17307eab39ab6107e8899845ad3d59bd9653f200f220920489ca2b5937696c3183604051611d199190612729565b60405180910390a3505050565b611d3184848461157b565b611d3d848484846123f1565b611d7c576040517f08c379a0000000000000000000000000000000000000000000000000000000008152600401611d73906144a0565b60405180910390fd5b50505050565b60006001821080611d94575081600754105b15611da25760009050611dee565b60006006811115611db657611db56137bc565b5b600d600084815260200190815260200160002060009054906101000a900460ff166006811115611de957611de86137bc565b5b141590505b919050565b6000600a601e600c6018600a600187611e0c9190614171565b611e1691906144ef565b611e209190614520565b611e2a91906141a5565b611e3491906141a5565b611e3e91906141a5565b9050919050565b60606000821415611e8d576040518060400160405280600181526020017f30000000000000000000000000000000000000000000000000000000000000008152509050611fa1565b600082905060005b60008214611ebf578080611ea890613624565b915050600a82611eb8919061457a565b9150611e95565b60008167ffffffffffffffff811115611edb57611eda6129b1565b5b6040519080825280601f01601f191660200182016040528015611f0d5781602001600182028036833780820191505090505b5090505b60008514611f9a57600182611f269190614171565b9150600a85611f3591906144ef565b6030611f4191906141a5565b60f81b818381518110611f5757611f566132f4565b5b60200101907effffffffffffffffffffffffffffffffffffffffffffffffffffffffffffff1916908160001a905350600a85611f93919061457a565b9450611f11565b8093505050505b919050565b6000600a603c600c6018600a600187611fbf9190614171565b611fc9919061457a565b611fd39190614520565b611fdd91906141a5565b611fe791906141a5565b611ff191906141a5565b9050919050565b606060008251141561201b5760405180602001604052806000815250905061216c565b6000604051806060016040528060408152602001614767604091399050600060036002855161204a91906141a5565b612054919061457a565b60046120609190614520565b9050600060208261207191906141a5565b67ffffffffffffffff81111561208a576120896129b1565b5b6040519080825280601f01601f1916602001820160405280156120bc5781602001600182028036833780820191505090505b509050818152600183018586518101602084015b8183101561212b576003830192508251603f8160121c168501518253600182019150603f81600c1c168501518253600182019150603f8160061c168501518253600182019150603f81168501518253600182019150506120d0565b600389510660018114612145576002811461215557612160565b613d3d60f01b6002830352612160565b603d60f81b60018303525b50505050508093505050505b919050565b60008073ffffffffffffffffffffffffffffffffffffffff166002600084815260200190815260200160002060009054906101000a900473ffffffffffffffffffffffffffffffffffffffff1673ffffffffffffffffffffffffffffffffffffffff1614159050919050565b505050565b505050565b600060016007546121f891906141a5565b905090565b600073ffffffffffffffffffffffffffffffffffffffff168273ffffffffffffffffffffffffffffffffffffffff16141561226d576040517f08c379a0000000000000000000000000000000000000000000000000000000008152600401612264906145f7565b60405180910390fd5b61227681612171565b156122b6576040517f08c379a00000000000000000000000000000000000000000000000000000000081526004016122ad90614663565b60405180910390fd5b6122c2600083836121dd565b6001600360008473ffffffffffffffffffffffffffffffffffffffff1673ffffffffffffffffffffffffffffffffffffffff168152602001908152602001600020600082825461231291906141a5565b92505081905550816002600083815260200190815260200160002060006101000a81548173ffffffffffffffffffffffffffffffffffffffff021916908373ffffffffffffffffffffffffffffffffffffffff160217905550808273ffffffffffffffffffffffffffffffffffffffff16600073ffffffffffffffffffffffffffffffffffffffff167fddf252ad1be2c89b69c2b068fc378daa952ba7f163c4a11628f55a4df523b3ef60405160405180910390a46123d3600083836121e2565b5050565b600760008154809291906123ea90613624565b9190505550565b60006124128473ffffffffffffffffffffffffffffffffffffffff16612588565b1561257b578373ffffffffffffffffffffffffffffffffffffffff1663150b7a0261243b611425565b8786866040518563ffffffff1660e01b815260040161245d94939291906146d8565b602060405180830381600087803b15801561247757600080fd5b505af19250505080156124a857506040513d601f19601f820116820180604052508101906124a59190614739565b60015b61252b573d80600081146124d8576040519150601f19603f3d011682016040523d82523d6000602084013e6124dd565b606091505b50600081511415612523576040517f08c379a000000000000000000000000000000000000000000000000000000000815260040161251a906144a0565b60405180910390fd5b805181602001fd5b63150b7a0260e01b7bffffffffffffffffffffffffffffffffffffffffffffffffffffffff1916817bffffffffffffffffffffffffffffffffffffffffffffffffffffffff191614915050612580565b600190505b949350505050565b6000808273ffffffffffffffffffffffffffffffffffffffff163b119050919050565b6040518060c001604052806006905b60608152602001906001900390816125ba5790505090565b8280546125de90612d7e565b90600052602060002090601f0160209004810192826126005760008555612647565b82601f1061261957805160ff1916838001178555612647565b82800160010185558215612647579182015b8281111561264657825182559160200191906001019061262b565b5b5090506126549190612658565b5090565b5b80821115612671576000816000905550600101612659565b5090565b6000604051905090565b600080fd5b600080fd5b60007fffffffff0000000000000000000000000000000000000000000000000000000082169050919050565b6126be81612689565b81146126c957600080fd5b50565b6000813590506126db816126b5565b92915050565b6000602082840312156126f7576126f661267f565b5b6000612705848285016126cc565b91505092915050565b60008115159050919050565b6127238161270e565b82525050565b600060208201905061273e600083018461271a565b92915050565b600081519050919050565b600082825260208201905092915050565b60005b8381101561277e578082015181840152602081019050612763565b8381111561278d576000848401525b50505050565b6000601f19601f8301169050919050565b60006127af82612744565b6127b9818561274f565b93506127c9818560208601612760565b6127d281612793565b840191505092915050565b600060208201905081810360008301526127f781846127a4565b905092915050565b6000819050919050565b612812816127ff565b811461281d57600080fd5b50565b60008135905061282f81612809565b92915050565b60006020828403121561284b5761284a61267f565b5b600061285984828501612820565b91505092915050565b600073ffffffffffffffffffffffffffffffffffffffff82169050919050565b600061288d82612862565b9050919050565b61289d81612882565b82525050565b60006020820190506128b86000830184612894565b92915050565b6128c781612882565b81146128d257600080fd5b50565b6000813590506128e4816128be565b92915050565b600080604083850312156129015761290061267f565b5b600061290f858286016128d5565b925050602061292085828601612820565b9150509250929050565b6000806000606084860312156129435761294261267f565b5b6000612951868287016128d5565b9350506020612962868287016128d5565b925050604061297386828701612820565b9150509250925092565b612986816127ff565b82525050565b60006020820190506129a1600083018461297d565b92915050565b600080fd5b600080fd5b7f4e487b7100000000000000000000000000000000000000000000000000000000600052604160045260246000fd5b6129e982612793565b810181811067ffffffffffffffff82111715612a0857612a076129b1565b5b80604052505050565b6000612a1b612675565b9050612a2782826129e0565b919050565b600067ffffffffffffffff821115612a4757612a466129b1565b5b612a5082612793565b9050602081019050919050565b82818337600083830152505050565b6000612a7f612a7a84612a2c565b612a11565b905082815260208101848484011115612a9b57612a9a6129ac565b5b612aa6848285612a5d565b509392505050565b600082601f830112612ac357612ac26129a7565b5b8135612ad3848260208601612a6c565b91505092915050565b600060208284031215612af257612af161267f565b5b600082013567ffffffffffffffff811115612b1057612b0f612684565b5b612b1c84828501612aae565b91505092915050565b600060208284031215612b3b57612b3a61267f565b5b6000612b49848285016128d5565b91505092915050565b612b5b8161270e565b8114612b6657600080fd5b50565b600081359050612b7881612b52565b92915050565b600060208284031215612b9457612b9361267f565b5b6000612ba284828501612b69565b91505092915050565b60008060408385031215612bc257612bc161267f565b5b6000612bd0858286016128d5565b9250506020612be185828601612b69565b9150509250929050565b600067ffffffffffffffff821115612c0657612c056129b1565b5b612c0f82612793565b9050602081019050919050565b6000612c2f612c2a84612beb565b612a11565b905082815260208101848484011115612c4b57612c4a6129ac565b5b612c56848285612a5d565b509392505050565b600082601f830112612c7357612c726129a7565b5b8135612c83848260208601612c1c565b91505092915050565b60008060008060808587031215612ca657612ca561267f565b5b6000612cb4878288016128d5565b9450506020612cc5878288016128d5565b9350506040612cd687828801612820565b925050606085013567ffffffffffffffff811115612cf757612cf6612684565b5b612d0387828801612c5e565b91505092959194509250565b60008060408385031215612d2657612d2561267f565b5b6000612d34858286016128d5565b9250506020612d45858286016128d5565b9150509250929050565b7f4e487b7100000000000000000000000000000000000000000000000000000000600052602260045260246000fd5b60006002820490506001821680612d9657607f821691505b60208210811415612daa57612da9612d4f565b5b50919050565b7f4552433732313a20617070726f76616c20746f2063757272656e74206f776e6560008201527f7200000000000000000000000000000000000000000000000000000000000000602082015250565b6000612e0c60218361274f565b9150612e1782612db0565b604082019050919050565b60006020820190508181036000830152612e3b81612dff565b9050919050565b7f4552433732313a20617070726f76652063616c6c6572206973206e6f7420746f60008201527f6b656e206f776e6572206e6f7220617070726f76656420666f7220616c6c0000602082015250565b6000612e9e603e8361274f565b9150612ea982612e42565b604082019050919050565b60006020820190508181036000830152612ecd81612e91565b9050919050565b7f4552433732313a2063616c6c6572206973206e6f7420746f6b656e206f776e6560008201527f72206e6f7220617070726f766564000000000000000000000000000000000000602082015250565b6000612f30602e8361274f565b9150612f3b82612ed4565b604082019050919050565b60006020820190508181036000830152612f5f81612f23565b9050919050565b7f4552433732313a20696e76616c696420746f6b656e2049440000000000000000600082015250565b6000612f9c60188361274f565b9150612fa782612f66565b602082019050919050565b60006020820190508181036000830152612fcb81612f8f565b9050919050565b7f4552433732313a2061646472657373207a65726f206973206e6f74206120766160008201527f6c6964206f776e65720000000000000000000000000000000000000000000000602082015250565b600061302e60298361274f565b915061303982612fd2565b604082019050919050565b6000602082019050818103600083015261305d81613021565b9050919050565b7f746f6b656e4964206d7573742062652065786973740000000000000000000000600082015250565b600061309a60158361274f565b91506130a582613064565b602082019050919050565b600060208201905081810360008301526130c98161308d565b9050919050565b600081905092915050565b7f3c73766720786d6c6e733d22687474703a2f2f7777772e77332e6f72672f323060008201527f30302f73766722207072657365727665417370656374526174696f3d22784d6960208201527f6e594d696e206d656574222076696577426f783d22302030203332302033323060408201527f223e000000000000000000000000000000000000000000000000000000000000606082015250565b60006131836062836130d0565b915061318e826130db565b606282019050919050565b7f3c7374796c653e2e62617365207b2066696c6c3a2077686974653b20666f6e7460008201527f2d66616d696c793a2073657269663b20666f6e742d73697a653a20313470783b60208201527f7d3c2f7374796c653e0000000000000000000000000000000000000000000000604082015250565b600061321b6049836130d0565b915061322682613199565b604982019050919050565b7f3c646566733e3c66696c7465722069643d2266223e3c6665476175737369616e60008201527f426c757220696e3d22536f75726365477261706869632220737464446576696160208201527f74696f6e3d223322202f3e3c2f66696c7465723e000000000000000000000000604082015250565b60006132b36054836130d0565b91506132be82613231565b605482019050919050565b60006132d482613176565b91506132df8261320e565b91506132ea826132a6565b9150819050919050565b7f4e487b7100000000000000000000000000000000000000000000000000000000600052603260045260246000fd5b600061332e82612744565b61333881856130d0565b9350613348818560208601612760565b80840191505092915050565b7f3c6c696e6561724772616469656e742069643d22000000000000000000000000600082015250565b600061338a6014836130d0565b915061339582613354565b601482019050919050565b7f4c47223e3c73746f70206f66667365743d223025222073746f702d636f6c6f7260008201527f3d22000000000000000000000000000000000000000000000000000000000000602082015250565b60006133fc6022836130d0565b9150613407826133a0565b602282019050919050565b7f222f3e3c73746f70206f66667365743d2231303025222f3e0000000000000000600082015250565b60006134486018836130d0565b915061345382613412565b601882019050919050565b7f3c2f6c696e6561724772616469656e743e3c636972636c652069643d22000000600082015250565b6000613494601d836130d0565b915061349f8261345e565b601d82019050919050565b7f222063783d2230222063793d22302220723d223130222066696c6c3d2275726c60008201527f2823000000000000000000000000000000000000000000000000000000000000602082015250565b60006135066022836130d0565b9150613511826134aa565b602282019050919050565b7f4c4729222f3e0000000000000000000000000000000000000000000000000000600082015250565b60006135526006836130d0565b915061355d8261351c565b600682019050919050565b60006135748288613323565b915061357f8261337d565b915061358b8287613323565b9150613596826133ef565b91506135a28286613323565b91506135ad8261343b565b91506135b882613487565b91506135c48285613323565b91506135cf826134f9565b91506135db8284613323565b91506135e682613545565b91508190509695505050505050565b7f4e487b7100000000000000000000000000000000000000000000000000000000600052601160045260246000fd5b600061362f826127ff565b91507fffffffffffffffffffffffffffffffffffffffffffffffffffffffffffffffff821415613662576136616135f5565b5b600182019050919050565b7f3c636972636c652069643d2246222063783d2200000000000000000000000000600082015250565b60006136a36013836130d0565b91506136ae8261366d565b601382019050919050565b7f222063793d220000000000000000000000000000000000000000000000000000600082015250565b60006136ef6006836130d0565b91506136fa826136b9565b600682019050919050565b7f2220723d223230222066696c6c3d2223616161222066696c7465723d2275726c60008201527f28236629222f3e00000000000000000000000000000000000000000000000000602082015250565b60006137616027836130d0565b915061376c82613705565b602782019050919050565b600061378282613696565b915061378e8285613323565b9150613799826136e2565b91506137a58284613323565b91506137b082613754565b91508190509392505050565b7f4e487b7100000000000000000000000000000000000000000000000000000000600052602160045260246000fd5b7f3c75736520687265663d22230000000000000000000000000000000000000000600082015250565b6000613821600c836130d0565b915061382c826137eb565b600c82019050919050565b7f2220783d22000000000000000000000000000000000000000000000000000000600082015250565b600061386d6005836130d0565b915061387882613837565b600582019050919050565b7f2220793d22000000000000000000000000000000000000000000000000000000600082015250565b60006138b96005836130d0565b91506138c482613883565b600582019050919050565b7f222f3e0000000000000000000000000000000000000000000000000000000000600082015250565b60006139056003836130d0565b9150613910826138cf565b600382019050919050565b60006139278287613323565b915061393282613814565b915061393e8286613323565b915061394982613860565b91506139558285613323565b9150613960826138ac565b915061396c8284613323565b9150613977826138f8565b915081905095945050505050565b7f3c7465787420783d2233302220793d2232352220636c6173733d22626173652260008201527f3e4e4654204e6577732043657274696669636174696f6e202337353c2f74657860208201527f743e000000000000000000000000000000000000000000000000000000000000604082015250565b6000613a076042836130d0565b9150613a1282613985565b604282019050919050565b7f3c7465787420783d2233302220793d2234352220636c6173733d22626173652260008201527f3e49443a20000000000000000000000000000000000000000000000000000000602082015250565b6000613a796025836130d0565b9150613a8482613a1d565b602582019050919050565b7f3c2f746578743e3c7465787420783d2233302220793d2236352220636c61737360008201527f3d2262617365223e204d696e7465723a20000000000000000000000000000000602082015250565b6000613aeb6031836130d0565b9150613af682613a8f565b603182019050919050565b60008190508160005260206000209050919050565b60008154613b2381612d7e565b613b2d81866130d0565b94506001821660008114613b485760018114613b5957613b8c565b60ff19831686528186019350613b8c565b613b6285613b01565b60005b83811015613b8457815481890152600182019150602081019050613b65565b838801955050505b50505092915050565b7f3c2f746578743e3c2f7376673e00000000000000000000000000000000000000600082015250565b6000613bcb600d836130d0565b9150613bd682613b95565b600d82019050919050565b6000613bec826139fa565b9150613bf782613a6c565b9150613c038285613323565b9150613c0e82613ade565b9150613c1a8284613b16565b9150613c2582613bbe565b91508190509392505050565b6000613c3d8289613323565b9150613c498288613323565b9150613c558287613323565b9150613c618286613323565b9150613c6d8285613323565b9150613c798284613323565b9150819050979650505050505050565b7f7b226e616d65223a20224e46544e657773436572746669636174696f6e202300600082015250565b6000613cbf601f836130d0565b9150613cca82613c89565b601f82019050919050565b7f222c226465736372697074696f6e223a20224e4654204e65777320526561646960008201527f6e672043657274696669636174696f6e2e222c00000000000000000000000000602082015250565b6000613d316033836130d0565b9150613d3c82613cd5565b603382019050919050565b7f2261747472696275746573223a205b7b2274726169745f74797065223a22436f60008201527f6c6f72222c2276616c7565223a22000000000000000000000000000000000000602082015250565b6000613da3602e836130d0565b9150613dae82613d47565b602e82019050919050565b7f227d5d2c00000000000000000000000000000000000000000000000000000000600082015250565b6000613def6004836130d0565b9150613dfa82613db9565b600482019050919050565b7f22696d616765223a2022646174613a696d6167652f7376672b786d6c3b62617360008201527f6536342c00000000000000000000000000000000000000000000000000000000602082015250565b6000613e616024836130d0565b9150613e6c82613e05565b602482019050919050565b6000613e8282613cb2565b9150613e8e8285613323565b9150613e9982613d24565b9150613ea482613d96565b9150613eb08284613b16565b9150613ebb82613de2565b9150613ec682613e54565b91508190509392505050565b7f227d000000000000000000000000000000000000000000000000000000000000600082015250565b6000613f086002836130d0565b9150613f1382613ed2565b600282019050919050565b6000613f2a8285613323565b9150613f368284613323565b9150613f4182613efb565b91508190509392505050565b7f646174613a6170706c69636174696f6e2f6a736f6e3b6261736536342c000000600082015250565b6000613f83601d836130d0565b9150613f8e82613f4d565b601d82019050919050565b6000613fa482613f76565b9150613fb08284613323565b915081905092915050565b7f4f776e61626c653a206e6577206f776e657220697320746865207a65726f206160008201527f6464726573730000000000000000000000000000000000000000000000000000602082015250565b600061401760268361274f565b915061402282613fbb565b604082019050919050565b600060208201905081810360008301526140468161400a565b9050919050565b7f4552433732313a207472616e736665722066726f6d20696e636f72726563742060008201527f6f776e6572000000000000000000000000000000000000000000000000000000602082015250565b60006140a960258361274f565b91506140b48261404d565b604082019050919050565b600060208201905081810360008301526140d88161409c565b9050919050565b7f4552433732313a207472616e7366657220746f20746865207a65726f2061646460008201527f7265737300000000000000000000000000000000000000000000000000000000602082015250565b600061413b60248361274f565b9150614146826140df565b604082019050919050565b6000602082019050818103600083015261416a8161412e565b9050919050565b600061417c826127ff565b9150614187836127ff565b92508282101561419a576141996135f5565b5b828203905092915050565b60006141b0826127ff565b91506141bb836127ff565b9250827fffffffffffffffffffffffffffffffffffffffffffffffffffffffffffffffff038211156141f0576141ef6135f5565b5b828201905092915050565b7f4f776e61626c653a2063616c6c6572206973206e6f7420746865206f776e6572600082015250565b600061423160208361274f565b915061423c826141fb565b602082019050919050565b6000602082019050818103600083015261426081614224565b9050919050565b7f4d696e74696e672077696e646f77206973206e6f74206f70656e000000000000600082015250565b600061429d601a8361274f565b91506142a882614267565b602082019050919050565b600060208201905081810360008301526142cc81614290565b9050919050565b7f546f6b656e20616d6f756e742069732066756c6c290000000000000000000000600082015250565b600061430960158361274f565b9150614314826142d3565b602082019050919050565b60006020820190508181036000830152614338816142fc565b9050919050565b7f596f752072656163686564206d696e74206c696d697400000000000000000000600082015250565b600061437560168361274f565b91506143808261433f565b602082019050919050565b600060208201905081810360008301526143a481614368565b9050919050565b60006143b78284613b16565b915081905092915050565b7f4552433732313a20617070726f766520746f2063616c6c657200000000000000600082015250565b60006143f860198361274f565b9150614403826143c2565b602082019050919050565b60006020820190508181036000830152614427816143eb565b9050919050565b7f4552433732313a207472616e7366657220746f206e6f6e20455243373231526560008201527f63656976657220696d706c656d656e7465720000000000000000000000000000602082015250565b600061448a60328361274f565b91506144958261442e565b604082019050919050565b600060208201905081810360008301526144b98161447d565b9050919050565b7f4e487b7100000000000000000000000000000000000000000000000000000000600052601260045260246000fd5b60006144fa826127ff565b9150614505836127ff565b925082614515576145146144c0565b5b828206905092915050565b600061452b826127ff565b9150614536836127ff565b9250817fffffffffffffffffffffffffffffffffffffffffffffffffffffffffffffffff048311821515161561456f5761456e6135f5565b5b828202905092915050565b6000614585826127ff565b9150614590836127ff565b9250826145a05761459f6144c0565b5b828204905092915050565b7f4552433732313a206d696e7420746f20746865207a65726f2061646472657373600082015250565b60006145e160208361274f565b91506145ec826145ab565b602082019050919050565b60006020820190508181036000830152614610816145d4565b9050919050565b7f4552433732313a20746f6b656e20616c7265616479206d696e74656400000000600082015250565b600061464d601c8361274f565b915061465882614617565b602082019050919050565b6000602082019050818103600083015261467c81614640565b9050919050565b600081519050919050565b600082825260208201905092915050565b60006146aa82614683565b6146b4818561468e565b93506146c4818560208601612760565b6146cd81612793565b840191505092915050565b60006080820190506146ed6000830187612894565b6146fa6020830186612894565b614707604083018561297d565b8181036060830152614719818461469f565b905095945050505050565b600081519050614733816126b5565b92915050565b60006020828403121561474f5761474e61267f565b5b600061475d84828501614724565b9150509291505056fe4142434445464748494a4b4c4d4e4f505152535455565758595a6162636465666768696a6b6c6d6e6f707172737475767778797a303132333435363738392b2f3c2f646566733e3c726563742077696474683d223130302522206865696768743d2231303025222066696c6c3d2223323232222072783d223135222072793d223135222f3ea26469706673582212204d8f19823b23fbe78d7e8027d52e7572bbd3c447d049e84b0312065adfadbf0964736f6c63430008090033",
  "linkReferences": {},
  "deployedLinkReferences": {}
}