{
  "_format": "hh-sol-artifact-1",
  "contractName": "NFTNewsCert",
  "sourceName": "contracts/NFTNewsCert.sol",
  "abi": [
    {
      "inputs": [
        {
          "internalType": "string",
          "name": "_name",
          "type": "string"
        },
        {
          "internalType": "string",
          "name": "_symbol",
          "type": "string"
        }
      ],
      "stateMutability": "nonpayable",
      "type": "constructor"
    },
    {
      "anonymous": false,
      "inputs": [
        {
          "indexed": true,
          "internalType": "address",
          "name": "owner",
          "type": "address"
        },
        {
          "indexed": true,
          "internalType": "address",
          "name": "approved",
          "type": "address"
        },
        {
          "indexed": true,
          "internalType": "uint256",
          "name": "tokenId",
          "type": "uint256"
        }
      ],
      "name": "Approval",
      "type": "event"
    },
    {
      "anonymous": false,
      "inputs": [
        {
          "indexed": true,
          "internalType": "address",
          "name": "owner",
          "type": "address"
        },
        {
          "indexed": true,
          "internalType": "address",
          "name": "operator",
          "type": "address"
        },
        {
          "indexed": false,
          "internalType": "bool",
          "name": "approved",
          "type": "bool"
        }
      ],
      "name": "ApprovalForAll",
      "type": "event"
    },
    {
      "anonymous": false,
      "inputs": [
        {
          "indexed": true,
          "internalType": "address",
          "name": "minter",
          "type": "address"
        },
        {
          "indexed": true,
          "internalType": "string",
          "name": "color",
          "type": "string"
        },
        {
          "indexed": false,
          "internalType": "string",
          "name": "signature",
          "type": "string"
        }
      ],
      "name": "Mint",
      "type": "event"
    },
    {
      "anonymous": false,
      "inputs": [
        {
          "indexed": true,
          "internalType": "address",
          "name": "previousOwner",
          "type": "address"
        },
        {
          "indexed": true,
          "internalType": "address",
          "name": "newOwner",
          "type": "address"
        }
      ],
      "name": "OwnershipTransferred",
      "type": "event"
    },
    {
      "anonymous": false,
      "inputs": [
        {
          "indexed": true,
          "internalType": "address",
          "name": "from",
          "type": "address"
        },
        {
          "indexed": true,
          "internalType": "address",
          "name": "to",
          "type": "address"
        },
        {
          "indexed": true,
          "internalType": "uint256",
          "name": "tokenId",
          "type": "uint256"
        }
      ],
      "name": "Transfer",
      "type": "event"
    },
    {
      "inputs": [
        {
          "internalType": "address",
          "name": "to",
          "type": "address"
        },
        {
          "internalType": "uint256",
          "name": "tokenId",
          "type": "uint256"
        }
      ],
      "name": "approve",
      "outputs": [],
      "stateMutability": "nonpayable",
      "type": "function"
    },
    {
      "inputs": [
        {
          "internalType": "address",
          "name": "owner",
          "type": "address"
        }
      ],
      "name": "balanceOf",
      "outputs": [
        {
          "internalType": "uint256",
          "name": "",
          "type": "uint256"
        }
      ],
      "stateMutability": "view",
      "type": "function"
    },
    {
      "inputs": [
        {
          "internalType": "uint256",
          "name": "tokenId",
          "type": "uint256"
        }
      ],
      "name": "getApproved",
      "outputs": [
        {
          "internalType": "address",
          "name": "",
          "type": "address"
        }
      ],
      "stateMutability": "view",
      "type": "function"
    },
    {
      "inputs": [],
      "name": "getMintStatus",
      "outputs": [
        {
          "internalType": "bool",
          "name": "",
          "type": "bool"
        }
      ],
      "stateMutability": "view",
      "type": "function"
    },
    {
      "inputs": [
        {
          "internalType": "address",
          "name": "_address",
          "type": "address"
        }
      ],
      "name": "getNumberOfAccountMinted",
      "outputs": [
        {
          "internalType": "uint256",
          "name": "",
          "type": "uint256"
        }
      ],
      "stateMutability": "view",
      "type": "function"
    },
    {
      "inputs": [],
      "name": "getNumberOfMinted",
      "outputs": [
        {
          "internalType": "uint256",
          "name": "",
          "type": "uint256"
        }
      ],
      "stateMutability": "view",
      "type": "function"
    },
    {
      "inputs": [
        {
          "internalType": "uint256",
          "name": "_tokenId",
          "type": "uint256"
        }
      ],
      "name": "getSignature",
      "outputs": [
        {
          "internalType": "string",
          "name": "",
          "type": "string"
        }
      ],
      "stateMutability": "view",
      "type": "function"
    },
    {
      "inputs": [
        {
          "internalType": "address",
          "name": "owner",
          "type": "address"
        },
        {
          "internalType": "address",
          "name": "operator",
          "type": "address"
        }
      ],
      "name": "isApprovedForAll",
      "outputs": [
        {
          "internalType": "bool",
          "name": "",
          "type": "bool"
        }
      ],
      "stateMutability": "view",
      "type": "function"
    },
    {
      "inputs": [
        {
          "internalType": "string",
          "name": "yourName",
          "type": "string"
        }
      ],
      "name": "mintBlue",
      "outputs": [],
      "stateMutability": "nonpayable",
      "type": "function"
    },
    {
      "inputs": [
        {
          "internalType": "string",
          "name": "yourName",
          "type": "string"
        }
      ],
      "name": "mintGreen",
      "outputs": [],
      "stateMutability": "nonpayable",
      "type": "function"
    },
    {
      "inputs": [
        {
          "internalType": "string",
          "name": "yourName",
          "type": "string"
        }
      ],
      "name": "mintPink",
      "outputs": [],
      "stateMutability": "nonpayable",
      "type": "function"
    },
    {
      "inputs": [
        {
          "internalType": "string",
          "name": "yourName",
          "type": "string"
        }
      ],
      "name": "mintRed",
      "outputs": [],
      "stateMutability": "nonpayable",
      "type": "function"
    },
    {
      "inputs": [
        {
          "internalType": "string",
          "name": "yourName",
          "type": "string"
        }
      ],
      "name": "mintWhite",
      "outputs": [],
      "stateMutability": "nonpayable",
      "type": "function"
    },
    {
      "inputs": [
        {
          "internalType": "string",
          "name": "yourName",
          "type": "string"
        }
      ],
      "name": "mintYellow",
      "outputs": [],
      "stateMutability": "nonpayable",
      "type": "function"
    },
    {
      "inputs": [],
      "name": "name",
      "outputs": [
        {
          "internalType": "string",
          "name": "",
          "type": "string"
        }
      ],
      "stateMutability": "view",
      "type": "function"
    },
    {
      "inputs": [],
      "name": "owner",
      "outputs": [
        {
          "internalType": "address",
          "name": "",
          "type": "address"
        }
      ],
      "stateMutability": "view",
      "type": "function"
    },
    {
      "inputs": [
        {
          "internalType": "uint256",
          "name": "tokenId",
          "type": "uint256"
        }
      ],
      "name": "ownerOf",
      "outputs": [
        {
          "internalType": "address",
          "name": "",
          "type": "address"
        }
      ],
      "stateMutability": "view",
      "type": "function"
    },
    {
      "inputs": [],
      "name": "renounceOwnership",
      "outputs": [],
      "stateMutability": "nonpayable",
      "type": "function"
    },
    {
      "inputs": [
        {
          "internalType": "address",
          "name": "from",
          "type": "address"
        },
        {
          "internalType": "address",
          "name": "to",
          "type": "address"
        },
        {
          "internalType": "uint256",
          "name": "tokenId",
          "type": "uint256"
        }
      ],
      "name": "safeTransferFrom",
      "outputs": [],
      "stateMutability": "nonpayable",
      "type": "function"
    },
    {
      "inputs": [
        {
          "internalType": "address",
          "name": "from",
          "type": "address"
        },
        {
          "internalType": "address",
          "name": "to",
          "type": "address"
        },
        {
          "internalType": "uint256",
          "name": "tokenId",
          "type": "uint256"
        },
        {
          "internalType": "bytes",
          "name": "data",
          "type": "bytes"
        }
      ],
      "name": "safeTransferFrom",
      "outputs": [],
      "stateMutability": "nonpayable",
      "type": "function"
    },
    {
      "inputs": [
        {
          "internalType": "address",
          "name": "operator",
          "type": "address"
        },
        {
          "internalType": "bool",
          "name": "approved",
          "type": "bool"
        }
      ],
      "name": "setApprovalForAll",
      "outputs": [],
      "stateMutability": "nonpayable",
      "type": "function"
    },
    {
      "inputs": [
        {
          "internalType": "uint256",
          "name": "_limit",
          "type": "uint256"
        }
      ],
      "name": "setLimit",
      "outputs": [],
      "stateMutability": "nonpayable",
      "type": "function"
    },
    {
      "inputs": [
        {
          "internalType": "uint256",
          "name": "_tokenId",
          "type": "uint256"
        },
        {
          "internalType": "string",
          "name": "_signature",
          "type": "string"
        }
      ],
      "name": "setSignature",
      "outputs": [],
      "stateMutability": "nonpayable",
      "type": "function"
    },
    {
      "inputs": [
        {
          "internalType": "bool",
          "name": "_sw",
          "type": "bool"
        }
      ],
      "name": "setSwitch",
      "outputs": [],
      "stateMutability": "nonpayable",
      "type": "function"
    },
    {
      "inputs": [
        {
          "internalType": "bytes4",
          "name": "interfaceId",
          "type": "bytes4"
        }
      ],
      "name": "supportsInterface",
      "outputs": [
        {
          "internalType": "bool",
          "name": "",
          "type": "bool"
        }
      ],
      "stateMutability": "view",
      "type": "function"
    },
    {
      "inputs": [],
      "name": "symbol",
      "outputs": [
        {
          "internalType": "string",
          "name": "",
          "type": "string"
        }
      ],
      "stateMutability": "view",
      "type": "function"
    },
    {
      "inputs": [
        {
          "internalType": "uint256",
          "name": "_tokenId",
          "type": "uint256"
        }
      ],
      "name": "tokenURI",
      "outputs": [
        {
          "internalType": "string",
          "name": "",
          "type": "string"
        }
      ],
      "stateMutability": "view",
      "type": "function"
    },
    {
      "inputs": [
        {
          "internalType": "address",
          "name": "from",
          "type": "address"
        },
        {
          "internalType": "address",
          "name": "to",
          "type": "address"
        },
        {
          "internalType": "uint256",
          "name": "tokenId",
          "type": "uint256"
        }
      ],
      "name": "transferFrom",
      "outputs": [],
      "stateMutability": "nonpayable",
      "type": "function"
    },
    {
      "inputs": [
        {
          "internalType": "address",
          "name": "newOwner",
          "type": "address"
        }
      ],
      "name": "transferOwnership",
      "outputs": [],
      "stateMutability": "nonpayable",
      "type": "function"
    }
  ],
  "bytecode": "0x608060405260006007556000600860006101000a81548160ff02191690831515021790555060646009556001600a553480156200003b57600080fd5b5060405162005438380380620054388339818101604052810190620000619190620007b7565b818181600090805190602001906200007b929190620003fd565b50806001908051906020019062000094929190620003fd565b505050620000b7620000ab6200032f60201b60201c565b6200033760201b60201c565b6040518060e001604052806040518060400160405280600581526020017f626c61636b00000000000000000000000000000000000000000000000000000081525081526020016040518060400160405280600381526020017f726564000000000000000000000000000000000000000000000000000000000081525081526020016040518060400160405280600481526020017f626c75650000000000000000000000000000000000000000000000000000000081525081526020016040518060400160405280600581526020017f677265656e00000000000000000000000000000000000000000000000000000081525081526020016040518060400160405280600681526020017f79656c6c6f77000000000000000000000000000000000000000000000000000081525081526020016040518060400160405280600581526020017f776869746500000000000000000000000000000000000000000000000000000081525081526020016040518060400160405280600481526020017f70696e6b00000000000000000000000000000000000000000000000000000000815250815250600b9060076200026f9291906200048e565b5060005b600b805490508110156200032657600b81815481106200029857620002976200083c565b5b90600052602060002001600c6000836006811115620002bc57620002bb6200086b565b5b6006811115620002d157620002d06200086b565b5b6006811115620002e657620002e56200086b565b5b81526020019081526020016000209080546200030290620008c9565b6200030f929190620004f5565b5080806200031d9062000938565b91505062000273565b50505062000986565b600033905090565b6000600660009054906101000a900473ffffffffffffffffffffffffffffffffffffffff16905081600660006101000a81548173ffffffffffffffffffffffffffffffffffffffff021916908373ffffffffffffffffffffffffffffffffffffffff1602179055508173ffffffffffffffffffffffffffffffffffffffff168173ffffffffffffffffffffffffffffffffffffffff167f8be0079c531659141344cd1fd0a4f28419497f9722a3daafe3b4186f6b6457e060405160405180910390a35050565b8280546200040b90620008c9565b90600052602060002090601f0160209004810192826200042f57600085556200047b565b82601f106200044a57805160ff19168380011785556200047b565b828001600101855582156200047b579182015b828111156200047a5782518255916020019190600101906200045d565b5b5090506200048a91906200058d565b5090565b828054828255906000526020600020908101928215620004e2579160200282015b82811115620004e1578251829080519060200190620004d0929190620003fd565b5091602001919060010190620004af565b5b509050620004f19190620005ac565b5090565b8280546200050390620008c9565b90600052602060002090601f0160209004810192826200052757600085556200057a565b82601f106200053a57805485556200057a565b828001600101855582156200057a57600052602060002091601f016020900482015b82811115620005795782548255916001019190600101906200055c565b5b5090506200058991906200058d565b5090565b5b80821115620005a85760008160009055506001016200058e565b5090565b5b80821115620005d05760008181620005c69190620005d4565b50600101620005ad565b5090565b508054620005e290620008c9565b6000825580601f10620005f6575062000617565b601f0160209004906000526020600020908101906200061691906200058d565b5b50565b6000604051905090565b600080fd5b600080fd5b600080fd5b600080fd5b6000601f19601f8301169050919050565b7f4e487b7100000000000000000000000000000000000000000000000000000000600052604160045260246000fd5b620006838262000638565b810181811067ffffffffffffffff82111715620006a557620006a462000649565b5b80604052505050565b6000620006ba6200061a565b9050620006c8828262000678565b919050565b600067ffffffffffffffff821115620006eb57620006ea62000649565b5b620006f68262000638565b9050602081019050919050565b60005b838110156200072357808201518184015260208101905062000706565b8381111562000733576000848401525b50505050565b6000620007506200074a84620006cd565b620006ae565b9050828152602081018484840111156200076f576200076e62000633565b5b6200077c84828562000703565b509392505050565b600082601f8301126200079c576200079b6200062e565b5b8151620007ae84826020860162000739565b91505092915050565b60008060408385031215620007d157620007d062000624565b5b600083015167ffffffffffffffff811115620007f257620007f162000629565b5b620008008582860162000784565b925050602083015167ffffffffffffffff81111562000824576200082362000629565b5b620008328582860162000784565b9150509250929050565b7f4e487b7100000000000000000000000000000000000000000000000000000000600052603260045260246000fd5b7f4e487b7100000000000000000000000000000000000000000000000000000000600052602160045260246000fd5b7f4e487b7100000000000000000000000000000000000000000000000000000000600052602260045260246000fd5b60006002820490506001821680620008e257607f821691505b60208210811415620008f957620008f86200089a565b5b50919050565b7f4e487b7100000000000000000000000000000000000000000000000000000000600052601160045260246000fd5b6000819050919050565b600062000945826200092e565b91507fffffffffffffffffffffffffffffffffffffffffffffffffffffffffffffffff8214156200097b576200097a620008ff565b5b600182019050919050565b614aa280620009966000396000f3fe608060405234801561001057600080fd5b50600436106101cf5760003560e01c80638da5cb5b11610104578063c6ae9475116100a2578063e93d40cf11610071578063e93d40cf14610500578063e985e9c514610530578063f2fde38b14610560578063f69b85261461057c576101cf565b8063c6ae94751461047c578063c87b56dd14610498578063cdefbb12146104c8578063dcdeb9bd146104e4576101cf565b806397cefc4c116100de57806397cefc4c1461040c578063a22cb46514610428578063b88d4fde14610444578063be4603c314610460576101cf565b80638da5cb5b146103b2578063941ada0e146103d057806395d89b41146103ee576101cf565b8063424294e41161017157806359e5fad61161014b57806359e5fad61461032c5780636352211e1461034857806370a0823114610378578063715018a6146103a8576101cf565b8063424294e4146102d657806342842e0e146102f45780634d79957b14610310576101cf565b8063081812fc116101ad578063081812fc14610252578063095ea7b31461028257806323b872dd1461029e57806327ea6f2b146102ba576101cf565b806301ffc9a7146101d457806302a569e61461020457806306fdde0314610234575b600080fd5b6101ee60048036038101906101e9919061289a565b610598565b6040516101fb91906128e2565b60405180910390f35b61021e60048036038101906102199190612933565b61067a565b60405161022b91906129f9565b60405180910390f35b61023c61071f565b60405161024991906129f9565b60405180910390f35b61026c60048036038101906102679190612933565b6107b1565b6040516102799190612a5c565b60405180910390f35b61029c60048036038101906102979190612aa3565b6107f7565b005b6102b860048036038101906102b39190612ae3565b61090f565b005b6102d460048036038101906102cf9190612933565b61096f565b005b6102de610981565b6040516102eb9190612b45565b60405180910390f35b61030e60048036038101906103099190612ae3565b61098b565b005b61032a60048036038101906103259190612c95565b6109ab565b005b61034660048036038101906103419190612c95565b6109b9565b005b610362600480360381019061035d9190612933565b6109c7565b60405161036f9190612a5c565b60405180910390f35b610392600480360381019061038d9190612cde565b610a79565b60405161039f9190612b45565b60405180910390f35b6103b0610b31565b005b6103ba610b45565b6040516103c79190612a5c565b60405180910390f35b6103d8610b6f565b6040516103e591906128e2565b60405180910390f35b6103f6610b86565b60405161040391906129f9565b60405180910390f35b61042660048036038101906104219190612d37565b610c18565b005b610442600480360381019061043d9190612d64565b610c3d565b005b61045e60048036038101906104599190612e45565b610c53565b005b61047a60048036038101906104759190612c95565b610cb5565b005b61049660048036038101906104919190612c95565b610cc3565b005b6104b260048036038101906104ad9190612933565b610cd1565b6040516104bf91906129f9565b60405180910390f35b6104e260048036038101906104dd9190612c95565b61130a565b005b6104fe60048036038101906104f99190612ec8565b611318565b005b61051a60048036038101906105159190612cde565b6113ba565b6040516105279190612b45565b60405180910390f35b61054a60048036038101906105459190612f24565b611403565b60405161055791906128e2565b60405180910390f35b61057a60048036038101906105759190612cde565b611497565b005b61059660048036038101906105919190612c95565b61151b565b005b60007f80ac58cd000000000000000000000000000000000000000000000000000000007bffffffffffffffffffffffffffffffffffffffffffffffffffffffff1916827bffffffffffffffffffffffffffffffffffffffffffffffffffffffff1916148061066357507f5b5e139f000000000000000000000000000000000000000000000000000000007bffffffffffffffffffffffffffffffffffffffffffffffffffffffff1916827bffffffffffffffffffffffffffffffffffffffffffffffffffffffff1916145b80610673575061067282611529565b5b9050919050565b6060600e6000838152602001908152602001600020805461069a90612f93565b80601f01602080910402602001604051908101604052809291908181526020018280546106c690612f93565b80156107135780601f106106e857610100808354040283529160200191610713565b820191906000526020600020905b8154815290600101906020018083116106f657829003601f168201915b50505050509050919050565b60606000805461072e90612f93565b80601f016020809104026020016040519081016040528092919081815260200182805461075a90612f93565b80156107a75780601f1061077c576101008083540402835291602001916107a7565b820191906000526020600020905b81548152906001019060200180831161078a57829003601f168201915b5050505050905090565b60006107bc82611593565b6004600083815260200190815260200160002060009054906101000a900473ffffffffffffffffffffffffffffffffffffffff169050919050565b6000610802826109c7565b90508073ffffffffffffffffffffffffffffffffffffffff168373ffffffffffffffffffffffffffffffffffffffff161415610873576040517f08c379a000000000000000000000000000000000000000000000000000000000815260040161086a90613037565b60405180910390fd5b8073ffffffffffffffffffffffffffffffffffffffff166108926115de565b73ffffffffffffffffffffffffffffffffffffffff1614806108c157506108c0816108bb6115de565b611403565b5b610900576040517f08c379a00000000000000000000000000000000000000000000000000000000081526004016108f7906130c9565b60405180910390fd5b61090a83836115e6565b505050565b61092061091a6115de565b8261169f565b61095f576040517f08c379a00000000000000000000000000000000000000000000000000000000081526004016109569061315b565b60405180910390fd5b61096a838383611734565b505050565b61097761199b565b80600a8190555050565b6000600754905090565b6109a683838360405180602001604052806000815250610c53565b505050565b6109b6600482611a19565b50565b6109c4600282611a19565b50565b6000806002600084815260200190815260200160002060009054906101000a900473ffffffffffffffffffffffffffffffffffffffff169050600073ffffffffffffffffffffffffffffffffffffffff168173ffffffffffffffffffffffffffffffffffffffff161415610a70576040517f08c379a0000000000000000000000000000000000000000000000000000000008152600401610a67906131c7565b60405180910390fd5b80915050919050565b60008073ffffffffffffffffffffffffffffffffffffffff168273ffffffffffffffffffffffffffffffffffffffff161415610aea576040517f08c379a0000000000000000000000000000000000000000000000000000000008152600401610ae190613259565b60405180910390fd5b600360008373ffffffffffffffffffffffffffffffffffffffff1673ffffffffffffffffffffffffffffffffffffffff168152602001908152602001600020549050919050565b610b3961199b565b610b436000611cac565b565b6000600660009054906101000a900473ffffffffffffffffffffffffffffffffffffffff16905090565b6000600860009054906101000a900460ff16905090565b606060018054610b9590612f93565b80601f0160208091040260200160405190810160405280929190818152602001828054610bc190612f93565b8015610c0e5780601f10610be357610100808354040283529160200191610c0e565b820191906000526020600020905b815481529060010190602001808311610bf157829003601f168201915b5050505050905090565b610c2061199b565b80600860006101000a81548160ff02191690831515021790555050565b610c4f610c486115de565b8383611d72565b5050565b610c64610c5e6115de565b8361169f565b610ca3576040517f08c379a0000000000000000000000000000000000000000000000000000000008152600401610c9a9061315b565b60405180910390fd5b610caf84848484611edf565b50505050565b610cc0600582611a19565b50565b610cce600182611a19565b50565b6060610cdc82611f3b565b610d1b576040517f08c379a0000000000000000000000000000000000000000000000000000000008152600401610d12906132c5565b60405180910390fd5b610d23612764565b604051602001610d32906134de565b60405160208183030381529060405281600060068110610d5557610d54613509565b5b602002018190525060005b600b80549050811015610e88576000600b8281548110610d8357610d82613509565b5b906000526020600020018054610d9890612f93565b80601f0160208091040260200160405190810160405280929190818152602001828054610dc490612f93565b8015610e115780601f10610de657610100808354040283529160200191610e11565b820191906000526020600020905b815481529060010190602001808311610df457829003601f168201915b5050505050905082600160068110610e2c57610e2b613509565b5b602002015181828384604051602001610e4995949392919061377d565b60405160208183030381529060405283600160068110610e6c57610e6b613509565b5b6020020181905250508080610e8090613839565b915050610d60565b50604051806080016040528060458152602001614a286045913981600260068110610eb657610eb5613509565b5b60200201819052506000610ed1610ecc85611fac565b611ffe565b90506000610ee6610ee18661215f565b611ffe565b90508181604051602001610efb92919061398c565b60405160208183030381529060405283600360068110610f1e57610f1d613509565b5b60200201819052506000600190505b606481116111065760006006811115610f4957610f486139d1565b5b600d600083815260200190815260200160002060009054906101000a900460ff166006811115610f7c57610f7b6139d1565b5b1415610f87576110f3565b6000600c6000600d600085815260200190815260200160002060009054906101000a900460ff166006811115610fc057610fbf6139d1565b5b6006811115610fd257610fd16139d1565b5b81526020019081526020016000208054610feb90612f93565b80601f016020809104026020016040519081016040528092919081815260200182805461101790612f93565b80156110645780601f1061103957610100808354040283529160200191611064565b820191906000526020600020905b81548152906001019060200180831161104757829003601f168201915b50505050509050600061107e61107984611fac565b611ffe565b9050600061109361108e8561215f565b611ffe565b9050866004600681106110a9576110a8613509565b5b60200201518383836040516020016110c49493929190613b30565b604051602081830303815290604052876004600681106110e7576110e6613509565b5b60200201819052505050505b80806110fe90613839565b915050610f2d565b5061111085611ffe565b600e6000878152602001908152602001600020604051602001611134929190613df6565b6040516020818303038152906040528360056006811061115757611156613509565b5b602002018190525060008360006006811061117557611174613509565b5b60200201518460016006811061118e5761118d613509565b5b6020020151856002600681106111a7576111a6613509565b5b6020020151866003600681106111c0576111bf613509565b5b6020020151876004600681106111d9576111d8613509565b5b6020020151886005600681106111f2576111f1613509565b5b602002015160405160200161120c96959493929190613e46565b6040516020818303038152906040529050600061122887611ffe565b600c6000600d60008b815260200190815260200160002060009054906101000a900460ff16600681111561125f5761125e6139d1565b5b6006811115611271576112706139d1565b5b815260200190815260200160002060405160200161129092919061408c565b604051602081830303815290604052905060006112d5826112b0856121b1565b6040516020016112c1929190614133565b6040516020818303038152906040526121b1565b90506000816040516020016112ea91906141ae565b604051602081830303815290604052905080975050505050505050919050565b611315600382611a19565b50565b3373ffffffffffffffffffffffffffffffffffffffff16611338836109c7565b73ffffffffffffffffffffffffffffffffffffffff161461138e576040517f08c379a00000000000000000000000000000000000000000000000000000000081526004016113859061421c565b60405180910390fd5b80600e600084815260200190815260200160002090805190602001906113b592919061278b565b505050565b6000600f60008373ffffffffffffffffffffffffffffffffffffffff1673ffffffffffffffffffffffffffffffffffffffff168152602001908152602001600020549050919050565b6000600560008473ffffffffffffffffffffffffffffffffffffffff1673ffffffffffffffffffffffffffffffffffffffff16815260200190815260200160002060008373ffffffffffffffffffffffffffffffffffffffff1673ffffffffffffffffffffffffffffffffffffffff16815260200190815260200160002060009054906101000a900460ff16905092915050565b61149f61199b565b600073ffffffffffffffffffffffffffffffffffffffff168173ffffffffffffffffffffffffffffffffffffffff16141561150f576040517f08c379a0000000000000000000000000000000000000000000000000000000008152600401611506906142ae565b60405180910390fd5b61151881611cac565b50565b611526600682611a19565b50565b60007f01ffc9a7000000000000000000000000000000000000000000000000000000007bffffffffffffffffffffffffffffffffffffffffffffffffffffffff1916827bffffffffffffffffffffffffffffffffffffffffffffffffffffffff1916149050919050565b61159c8161232a565b6115db576040517f08c379a00000000000000000000000000000000000000000000000000000000081526004016115d2906131c7565b60405180910390fd5b50565b600033905090565b816004600083815260200190815260200160002060006101000a81548173ffffffffffffffffffffffffffffffffffffffff021916908373ffffffffffffffffffffffffffffffffffffffff160217905550808273ffffffffffffffffffffffffffffffffffffffff16611659836109c7565b73ffffffffffffffffffffffffffffffffffffffff167f8c5be1e5ebec7d5bd14f71427d1e84f3dd0314c0f7b2291e5b200ac8c7c3b92560405160405180910390a45050565b6000806116ab836109c7565b90508073ffffffffffffffffffffffffffffffffffffffff168473ffffffffffffffffffffffffffffffffffffffff1614806116ed57506116ec8185611403565b5b8061172b57508373ffffffffffffffffffffffffffffffffffffffff16611713846107b1565b73ffffffffffffffffffffffffffffffffffffffff16145b91505092915050565b8273ffffffffffffffffffffffffffffffffffffffff16611754826109c7565b73ffffffffffffffffffffffffffffffffffffffff16146117aa576040517f08c379a00000000000000000000000000000000000000000000000000000000081526004016117a190614340565b60405180910390fd5b600073ffffffffffffffffffffffffffffffffffffffff168273ffffffffffffffffffffffffffffffffffffffff16141561181a576040517f08c379a0000000000000000000000000000000000000000000000000000000008152600401611811906143d2565b60405180910390fd5b611825838383612396565b6118306000826115e6565b6001600360008573ffffffffffffffffffffffffffffffffffffffff1673ffffffffffffffffffffffffffffffffffffffff168152602001908152602001600020600082825461188091906143f2565b925050819055506001600360008473ffffffffffffffffffffffffffffffffffffffff1673ffffffffffffffffffffffffffffffffffffffff16815260200190815260200160002060008282546118d79190614426565b92505081905550816002600083815260200190815260200160002060006101000a81548173ffffffffffffffffffffffffffffffffffffffff021916908373ffffffffffffffffffffffffffffffffffffffff160217905550808273ffffffffffffffffffffffffffffffffffffffff168473ffffffffffffffffffffffffffffffffffffffff167fddf252ad1be2c89b69c2b068fc378daa952ba7f163c4a11628f55a4df523b3ef60405160405180910390a461199683838361239b565b505050565b6119a36115de565b73ffffffffffffffffffffffffffffffffffffffff166119c1610b45565b73ffffffffffffffffffffffffffffffffffffffff1614611a17576040517f08c379a0000000000000000000000000000000000000000000000000000000008152600401611a0e906144c8565b60405180910390fd5b565b6000339050600860009054906101000a900460ff16611a6d576040517f08c379a0000000000000000000000000000000000000000000000000000000008152600401611a6490614534565b60405180910390fd5b60095460075410611ab3576040517f08c379a0000000000000000000000000000000000000000000000000000000008152600401611aaa906145a0565b60405180910390fd5b600a54600f60008373ffffffffffffffffffffffffffffffffffffffff1673ffffffffffffffffffffffffffffffffffffffff1681526020019081526020016000205410611b36576040517f08c379a0000000000000000000000000000000000000000000000000000000008152600401611b2d9061460c565b60405180910390fd5b6000611b406123a0565b9050611b4c82826123b6565b82600e60008381526020019081526020016000209080519060200190611b7392919061278b565b5083600d600083815260200190815260200160002060006101000a81548160ff02191690836006811115611baa57611ba96139d1565b5b0217905550600f60008373ffffffffffffffffffffffffffffffffffffffff1673ffffffffffffffffffffffffffffffffffffffff1681526020019081526020016000206000815480929190611bff90613839565b9190505550600c6000856006811115611c1b57611c1a6139d1565b5b6006811115611c2d57611c2c6139d1565b5b8152602001908152602001600020604051611c48919061462c565b60405180910390203373ffffffffffffffffffffffffffffffffffffffff167f35a0e34ee6c196b20f530d94282b96d57c4beda09ba5f603fe1baa387661d3c385604051611c9691906129f9565b60405180910390a3611ca6612590565b50505050565b6000600660009054906101000a900473ffffffffffffffffffffffffffffffffffffffff16905081600660006101000a81548173ffffffffffffffffffffffffffffffffffffffff021916908373ffffffffffffffffffffffffffffffffffffffff1602179055508173ffffffffffffffffffffffffffffffffffffffff168173ffffffffffffffffffffffffffffffffffffffff167f8be0079c531659141344cd1fd0a4f28419497f9722a3daafe3b4186f6b6457e060405160405180910390a35050565b8173ffffffffffffffffffffffffffffffffffffffff168373ffffffffffffffffffffffffffffffffffffffff161415611de1576040517f08c379a0000000000000000000000000000000000000000000000000000000008152600401611dd89061468f565b60405180910390fd5b80600560008573ffffffffffffffffffffffffffffffffffffffff1673ffffffffffffffffffffffffffffffffffffffff16815260200190815260200160002060008473ffffffffffffffffffffffffffffffffffffffff1673ffffffffffffffffffffffffffffffffffffffff16815260200190815260200160002060006101000a81548160ff0219169083151502179055508173ffffffffffffffffffffffffffffffffffffffff168373ffffffffffffffffffffffffffffffffffffffff167f17307eab39ab6107e8899845ad3d59bd9653f200f220920489ca2b5937696c3183604051611ed291906128e2565b60405180910390a3505050565b611eea848484611734565b611ef6848484846125aa565b611f35576040517f08c379a0000000000000000000000000000000000000000000000000000000008152600401611f2c90614721565b60405180910390fd5b50505050565b60006001821080611f4d575081600754105b15611f5b5760009050611fa7565b60006006811115611f6f57611f6e6139d1565b5b600d600084815260200190815260200160002060009054906101000a900460ff166006811115611fa257611fa16139d1565b5b141590505b919050565b6000600a601e600c6018600a600187611fc591906143f2565b611fcf9190614770565b611fd991906147a1565b611fe39190614426565b611fed9190614426565b611ff79190614426565b9050919050565b60606000821415612046576040518060400160405280600181526020017f3000000000000000000000000000000000000000000000000000000000000000815250905061215a565b600082905060005b6000821461207857808061206190613839565b915050600a8261207191906147fb565b915061204e565b60008167ffffffffffffffff81111561209457612093612b6a565b5b6040519080825280601f01601f1916602001820160405280156120c65781602001600182028036833780820191505090505b5090505b60008514612153576001826120df91906143f2565b9150600a856120ee9190614770565b60306120fa9190614426565b60f81b8183815181106121105761210f613509565b5b60200101907effffffffffffffffffffffffffffffffffffffffffffffffffffffffffffff1916908160001a905350600a8561214c91906147fb565b94506120ca565b8093505050505b919050565b6000600a603c600c6018600a60018761217891906143f2565b61218291906147fb565b61218c91906147a1565b6121969190614426565b6121a09190614426565b6121aa9190614426565b9050919050565b60606000825114156121d457604051806020016040528060008152509050612325565b60006040518060600160405280604081526020016149e860409139905060006003600285516122039190614426565b61220d91906147fb565b600461221991906147a1565b9050600060208261222a9190614426565b67ffffffffffffffff81111561224357612242612b6a565b5b6040519080825280601f01601f1916602001820160405280156122755781602001600182028036833780820191505090505b509050818152600183018586518101602084015b818310156122e4576003830192508251603f8160121c168501518253600182019150603f81600c1c168501518253600182019150603f8160061c168501518253600182019150603f8116850151825360018201915050612289565b6003895106600181146122fe576002811461230e57612319565b613d3d60f01b6002830352612319565b603d60f81b60018303525b50505050508093505050505b919050565b60008073ffffffffffffffffffffffffffffffffffffffff166002600084815260200190815260200160002060009054906101000a900473ffffffffffffffffffffffffffffffffffffffff1673ffffffffffffffffffffffffffffffffffffffff1614159050919050565b505050565b505050565b600060016007546123b19190614426565b905090565b600073ffffffffffffffffffffffffffffffffffffffff168273ffffffffffffffffffffffffffffffffffffffff161415612426576040517f08c379a000000000000000000000000000000000000000000000000000000000815260040161241d90614878565b60405180910390fd5b61242f8161232a565b1561246f576040517f08c379a0000000000000000000000000000000000000000000000000000000008152600401612466906148e4565b60405180910390fd5b61247b60008383612396565b6001600360008473ffffffffffffffffffffffffffffffffffffffff1673ffffffffffffffffffffffffffffffffffffffff16815260200190815260200160002060008282546124cb9190614426565b92505081905550816002600083815260200190815260200160002060006101000a81548173ffffffffffffffffffffffffffffffffffffffff021916908373ffffffffffffffffffffffffffffffffffffffff160217905550808273ffffffffffffffffffffffffffffffffffffffff16600073ffffffffffffffffffffffffffffffffffffffff167fddf252ad1be2c89b69c2b068fc378daa952ba7f163c4a11628f55a4df523b3ef60405160405180910390a461258c6000838361239b565b5050565b600760008154809291906125a390613839565b9190505550565b60006125cb8473ffffffffffffffffffffffffffffffffffffffff16612741565b15612734578373ffffffffffffffffffffffffffffffffffffffff1663150b7a026125f46115de565b8786866040518563ffffffff1660e01b81526004016126169493929190614959565b602060405180830381600087803b15801561263057600080fd5b505af192505050801561266157506040513d601f19601f8201168201806040525081019061265e91906149ba565b60015b6126e4573d8060008114612691576040519150601f19603f3d011682016040523d82523d6000602084013e612696565b606091505b506000815114156126dc576040517f08c379a00000000000000000000000000000000000000000000000000000000081526004016126d390614721565b60405180910390fd5b805181602001fd5b63150b7a0260e01b7bffffffffffffffffffffffffffffffffffffffffffffffffffffffff1916817bffffffffffffffffffffffffffffffffffffffffffffffffffffffff191614915050612739565b600190505b949350505050565b6000808273ffffffffffffffffffffffffffffffffffffffff163b119050919050565b6040518060c001604052806006905b60608152602001906001900390816127735790505090565b82805461279790612f93565b90600052602060002090601f0160209004810192826127b95760008555612800565b82601f106127d257805160ff1916838001178555612800565b82800160010185558215612800579182015b828111156127ff5782518255916020019190600101906127e4565b5b50905061280d9190612811565b5090565b5b8082111561282a576000816000905550600101612812565b5090565b6000604051905090565b600080fd5b600080fd5b60007fffffffff0000000000000000000000000000000000000000000000000000000082169050919050565b61287781612842565b811461288257600080fd5b50565b6000813590506128948161286e565b92915050565b6000602082840312156128b0576128af612838565b5b60006128be84828501612885565b91505092915050565b60008115159050919050565b6128dc816128c7565b82525050565b60006020820190506128f760008301846128d3565b92915050565b6000819050919050565b612910816128fd565b811461291b57600080fd5b50565b60008135905061292d81612907565b92915050565b60006020828403121561294957612948612838565b5b60006129578482850161291e565b91505092915050565b600081519050919050565b600082825260208201905092915050565b60005b8381101561299a57808201518184015260208101905061297f565b838111156129a9576000848401525b50505050565b6000601f19601f8301169050919050565b60006129cb82612960565b6129d5818561296b565b93506129e581856020860161297c565b6129ee816129af565b840191505092915050565b60006020820190508181036000830152612a1381846129c0565b905092915050565b600073ffffffffffffffffffffffffffffffffffffffff82169050919050565b6000612a4682612a1b565b9050919050565b612a5681612a3b565b82525050565b6000602082019050612a716000830184612a4d565b92915050565b612a8081612a3b565b8114612a8b57600080fd5b50565b600081359050612a9d81612a77565b92915050565b60008060408385031215612aba57612ab9612838565b5b6000612ac885828601612a8e565b9250506020612ad98582860161291e565b9150509250929050565b600080600060608486031215612afc57612afb612838565b5b6000612b0a86828701612a8e565b9350506020612b1b86828701612a8e565b9250506040612b2c8682870161291e565b9150509250925092565b612b3f816128fd565b82525050565b6000602082019050612b5a6000830184612b36565b92915050565b600080fd5b600080fd5b7f4e487b7100000000000000000000000000000000000000000000000000000000600052604160045260246000fd5b612ba2826129af565b810181811067ffffffffffffffff82111715612bc157612bc0612b6a565b5b80604052505050565b6000612bd461282e565b9050612be08282612b99565b919050565b600067ffffffffffffffff821115612c0057612bff612b6a565b5b612c09826129af565b9050602081019050919050565b82818337600083830152505050565b6000612c38612c3384612be5565b612bca565b905082815260208101848484011115612c5457612c53612b65565b5b612c5f848285612c16565b509392505050565b600082601f830112612c7c57612c7b612b60565b5b8135612c8c848260208601612c25565b91505092915050565b600060208284031215612cab57612caa612838565b5b600082013567ffffffffffffffff811115612cc957612cc861283d565b5b612cd584828501612c67565b91505092915050565b600060208284031215612cf457612cf3612838565b5b6000612d0284828501612a8e565b91505092915050565b612d14816128c7565b8114612d1f57600080fd5b50565b600081359050612d3181612d0b565b92915050565b600060208284031215612d4d57612d4c612838565b5b6000612d5b84828501612d22565b91505092915050565b60008060408385031215612d7b57612d7a612838565b5b6000612d8985828601612a8e565b9250506020612d9a85828601612d22565b9150509250929050565b600067ffffffffffffffff821115612dbf57612dbe612b6a565b5b612dc8826129af565b9050602081019050919050565b6000612de8612de384612da4565b612bca565b905082815260208101848484011115612e0457612e03612b65565b5b612e0f848285612c16565b509392505050565b600082601f830112612e2c57612e2b612b60565b5b8135612e3c848260208601612dd5565b91505092915050565b60008060008060808587031215612e5f57612e5e612838565b5b6000612e6d87828801612a8e565b9450506020612e7e87828801612a8e565b9350506040612e8f8782880161291e565b925050606085013567ffffffffffffffff811115612eb057612eaf61283d565b5b612ebc87828801612e17565b91505092959194509250565b60008060408385031215612edf57612ede612838565b5b6000612eed8582860161291e565b925050602083013567ffffffffffffffff811115612f0e57612f0d61283d565b5b612f1a85828601612c67565b9150509250929050565b60008060408385031215612f3b57612f3a612838565b5b6000612f4985828601612a8e565b9250506020612f5a85828601612a8e565b9150509250929050565b7f4e487b7100000000000000000000000000000000000000000000000000000000600052602260045260246000fd5b60006002820490506001821680612fab57607f821691505b60208210811415612fbf57612fbe612f64565b5b50919050565b7f4552433732313a20617070726f76616c20746f2063757272656e74206f776e6560008201527f7200000000000000000000000000000000000000000000000000000000000000602082015250565b600061302160218361296b565b915061302c82612fc5565b604082019050919050565b6000602082019050818103600083015261305081613014565b9050919050565b7f4552433732313a20617070726f76652063616c6c6572206973206e6f7420746f60008201527f6b656e206f776e6572206e6f7220617070726f76656420666f7220616c6c0000602082015250565b60006130b3603e8361296b565b91506130be82613057565b604082019050919050565b600060208201905081810360008301526130e2816130a6565b9050919050565b7f4552433732313a2063616c6c6572206973206e6f7420746f6b656e206f776e6560008201527f72206e6f7220617070726f766564000000000000000000000000000000000000602082015250565b6000613145602e8361296b565b9150613150826130e9565b604082019050919050565b6000602082019050818103600083015261317481613138565b9050919050565b7f4552433732313a20696e76616c696420746f6b656e2049440000000000000000600082015250565b60006131b160188361296b565b91506131bc8261317b565b602082019050919050565b600060208201905081810360008301526131e0816131a4565b9050919050565b7f4552433732313a2061646472657373207a65726f206973206e6f74206120766160008201527f6c6964206f776e65720000000000000000000000000000000000000000000000602082015250565b600061324360298361296b565b915061324e826131e7565b604082019050919050565b6000602082019050818103600083015261327281613236565b9050919050565b7f746f6b656e4964206d7573742062652065786973740000000000000000000000600082015250565b60006132af60158361296b565b91506132ba82613279565b602082019050919050565b600060208201905081810360008301526132de816132a2565b9050919050565b600081905092915050565b7f3c73766720786d6c6e733d22687474703a2f2f7777772e77332e6f72672f323060008201527f30302f73766722207072657365727665417370656374526174696f3d22784d6960208201527f6e594d696e206d656574222076696577426f783d22302030203332302033323060408201527f223e000000000000000000000000000000000000000000000000000000000000606082015250565b60006133986062836132e5565b91506133a3826132f0565b606282019050919050565b7f3c7374796c653e2e62617365207b2066696c6c3a2077686974653b20666f6e7460008201527f2d66616d696c793a2073657269663b20666f6e742d73697a653a20313470783b60208201527f7d3c2f7374796c653e0000000000000000000000000000000000000000000000604082015250565b60006134306049836132e5565b915061343b826133ae565b604982019050919050565b7f3c646566733e3c66696c7465722069643d2266223e3c6665476175737369616e60008201527f426c757220696e3d22536f75726365477261706869632220737464446576696160208201527f74696f6e3d223322202f3e3c2f66696c7465723e000000000000000000000000604082015250565b60006134c86054836132e5565b91506134d382613446565b605482019050919050565b60006134e98261338b565b91506134f482613423565b91506134ff826134bb565b9150819050919050565b7f4e487b7100000000000000000000000000000000000000000000000000000000600052603260045260246000fd5b600061354382612960565b61354d81856132e5565b935061355d81856020860161297c565b80840191505092915050565b7f3c6c696e6561724772616469656e742069643d22000000000000000000000000600082015250565b600061359f6014836132e5565b91506135aa82613569565b601482019050919050565b7f4c47223e3c73746f70206f66667365743d223025222073746f702d636f6c6f7260008201527f3d22000000000000000000000000000000000000000000000000000000000000602082015250565b60006136116022836132e5565b915061361c826135b5565b602282019050919050565b7f222f3e3c73746f70206f66667365743d2231303025222f3e0000000000000000600082015250565b600061365d6018836132e5565b915061366882613627565b601882019050919050565b7f3c2f6c696e6561724772616469656e743e3c636972636c652069643d22000000600082015250565b60006136a9601d836132e5565b91506136b482613673565b601d82019050919050565b7f222063783d2230222063793d22302220723d223130222066696c6c3d2275726c60008201527f2823000000000000000000000000000000000000000000000000000000000000602082015250565b600061371b6022836132e5565b9150613726826136bf565b602282019050919050565b7f4c4729222f3e0000000000000000000000000000000000000000000000000000600082015250565b60006137676006836132e5565b915061377282613731565b600682019050919050565b60006137898288613538565b915061379482613592565b91506137a08287613538565b91506137ab82613604565b91506137b78286613538565b91506137c282613650565b91506137cd8261369c565b91506137d98285613538565b91506137e48261370e565b91506137f08284613538565b91506137fb8261375a565b91508190509695505050505050565b7f4e487b7100000000000000000000000000000000000000000000000000000000600052601160045260246000fd5b6000613844826128fd565b91507fffffffffffffffffffffffffffffffffffffffffffffffffffffffffffffffff8214156138775761387661380a565b5b600182019050919050565b7f3c636972636c652069643d2246222063783d2200000000000000000000000000600082015250565b60006138b86013836132e5565b91506138c382613882565b601382019050919050565b7f222063793d220000000000000000000000000000000000000000000000000000600082015250565b60006139046006836132e5565b915061390f826138ce565b600682019050919050565b7f2220723d223230222066696c6c3d2223616161222066696c7465723d2275726c60008201527f28236629222f3e00000000000000000000000000000000000000000000000000602082015250565b60006139766027836132e5565b91506139818261391a565b602782019050919050565b6000613997826138ab565b91506139a38285613538565b91506139ae826138f7565b91506139ba8284613538565b91506139c582613969565b91508190509392505050565b7f4e487b7100000000000000000000000000000000000000000000000000000000600052602160045260246000fd5b7f3c75736520687265663d22230000000000000000000000000000000000000000600082015250565b6000613a36600c836132e5565b9150613a4182613a00565b600c82019050919050565b7f2220783d22000000000000000000000000000000000000000000000000000000600082015250565b6000613a826005836132e5565b9150613a8d82613a4c565b600582019050919050565b7f2220793d22000000000000000000000000000000000000000000000000000000600082015250565b6000613ace6005836132e5565b9150613ad982613a98565b600582019050919050565b7f222f3e0000000000000000000000000000000000000000000000000000000000600082015250565b6000613b1a6003836132e5565b9150613b2582613ae4565b600382019050919050565b6000613b3c8287613538565b9150613b4782613a29565b9150613b538286613538565b9150613b5e82613a75565b9150613b6a8285613538565b9150613b7582613ac1565b9150613b818284613538565b9150613b8c82613b0d565b915081905095945050505050565b7f3c7465787420783d2233302220793d2232352220636c6173733d22626173652260008201527f3e4e4654204e6577732043657274696669636174696f6e202337353c2f74657860208201527f743e000000000000000000000000000000000000000000000000000000000000604082015250565b6000613c1c6042836132e5565b9150613c2782613b9a565b604282019050919050565b7f3c7465787420783d2233302220793d2234352220636c6173733d22626173652260008201527f3e49443a20000000000000000000000000000000000000000000000000000000602082015250565b6000613c8e6025836132e5565b9150613c9982613c32565b602582019050919050565b7f3c2f746578743e3c7465787420783d2233302220793d2236352220636c61737360008201527f3d2262617365223e204d696e7465723a20000000000000000000000000000000602082015250565b6000613d006031836132e5565b9150613d0b82613ca4565b603182019050919050565b60008190508160005260206000209050919050565b60008154613d3881612f93565b613d4281866132e5565b94506001821660008114613d5d5760018114613d6e57613da1565b60ff19831686528186019350613da1565b613d7785613d16565b60005b83811015613d9957815481890152600182019150602081019050613d7a565b838801955050505b50505092915050565b7f3c2f746578743e3c2f7376673e00000000000000000000000000000000000000600082015250565b6000613de0600d836132e5565b9150613deb82613daa565b600d82019050919050565b6000613e0182613c0f565b9150613e0c82613c81565b9150613e188285613538565b9150613e2382613cf3565b9150613e2f8284613d2b565b9150613e3a82613dd3565b91508190509392505050565b6000613e528289613538565b9150613e5e8288613538565b9150613e6a8287613538565b9150613e768286613538565b9150613e828285613538565b9150613e8e8284613538565b9150819050979650505050505050565b7f7b226e616d65223a20224e46544e657773436572746669636174696f6e202300600082015250565b6000613ed4601f836132e5565b9150613edf82613e9e565b601f82019050919050565b7f222c226465736372697074696f6e223a20224e4654204e65777320526561646960008201527f6e672043657274696669636174696f6e2e222c00000000000000000000000000602082015250565b6000613f466033836132e5565b9150613f5182613eea565b603382019050919050565b7f2261747472696275746573223a205b7b2274726169745f74797065223a22436f60008201527f6c6f72222c2276616c7565223a22000000000000000000000000000000000000602082015250565b6000613fb8602e836132e5565b9150613fc382613f5c565b602e82019050919050565b7f227d5d2c00000000000000000000000000000000000000000000000000000000600082015250565b60006140046004836132e5565b915061400f82613fce565b600482019050919050565b7f22696d616765223a2022646174613a696d6167652f7376672b786d6c3b62617360008201527f6536342c00000000000000000000000000000000000000000000000000000000602082015250565b60006140766024836132e5565b91506140818261401a565b602482019050919050565b600061409782613ec7565b91506140a38285613538565b91506140ae82613f39565b91506140b982613fab565b91506140c58284613d2b565b91506140d082613ff7565b91506140db82614069565b91508190509392505050565b7f227d000000000000000000000000000000000000000000000000000000000000600082015250565b600061411d6002836132e5565b9150614128826140e7565b600282019050919050565b600061413f8285613538565b915061414b8284613538565b915061415682614110565b91508190509392505050565b7f646174613a6170706c69636174696f6e2f6a736f6e3b6261736536342c000000600082015250565b6000614198601d836132e5565b91506141a382614162565b601d82019050919050565b60006141b98261418b565b91506141c58284613538565b915081905092915050565b7f4f6e6c79206f776e65722063616e20736574207369676e617475726500000000600082015250565b6000614206601c8361296b565b9150614211826141d0565b602082019050919050565b60006020820190508181036000830152614235816141f9565b9050919050565b7f4f776e61626c653a206e6577206f776e657220697320746865207a65726f206160008201527f6464726573730000000000000000000000000000000000000000000000000000602082015250565b600061429860268361296b565b91506142a38261423c565b604082019050919050565b600060208201905081810360008301526142c78161428b565b9050919050565b7f4552433732313a207472616e736665722066726f6d20696e636f72726563742060008201527f6f776e6572000000000000000000000000000000000000000000000000000000602082015250565b600061432a60258361296b565b9150614335826142ce565b604082019050919050565b600060208201905081810360008301526143598161431d565b9050919050565b7f4552433732313a207472616e7366657220746f20746865207a65726f2061646460008201527f7265737300000000000000000000000000000000000000000000000000000000602082015250565b60006143bc60248361296b565b91506143c782614360565b604082019050919050565b600060208201905081810360008301526143eb816143af565b9050919050565b60006143fd826128fd565b9150614408836128fd565b92508282101561441b5761441a61380a565b5b828203905092915050565b6000614431826128fd565b915061443c836128fd565b9250827fffffffffffffffffffffffffffffffffffffffffffffffffffffffffffffffff038211156144715761447061380a565b5b828201905092915050565b7f4f776e61626c653a2063616c6c6572206973206e6f7420746865206f776e6572600082015250565b60006144b260208361296b565b91506144bd8261447c565b602082019050919050565b600060208201905081810360008301526144e1816144a5565b9050919050565b7f4d696e74696e672077696e646f77206973206e6f74206f70656e000000000000600082015250565b600061451e601a8361296b565b9150614529826144e8565b602082019050919050565b6000602082019050818103600083015261454d81614511565b9050919050565b7f546f6b656e20616d6f756e742069732066756c6c290000000000000000000000600082015250565b600061458a60158361296b565b915061459582614554565b602082019050919050565b600060208201905081810360008301526145b98161457d565b9050919050565b7f596f752072656163686564206d696e74206c696d697400000000000000000000600082015250565b60006145f660168361296b565b9150614601826145c0565b602082019050919050565b60006020820190508181036000830152614625816145e9565b9050919050565b60006146388284613d2b565b915081905092915050565b7f4552433732313a20617070726f766520746f2063616c6c657200000000000000600082015250565b600061467960198361296b565b915061468482614643565b602082019050919050565b600060208201905081810360008301526146a88161466c565b9050919050565b7f4552433732313a207472616e7366657220746f206e6f6e20455243373231526560008201527f63656976657220696d706c656d656e7465720000000000000000000000000000602082015250565b600061470b60328361296b565b9150614716826146af565b604082019050919050565b6000602082019050818103600083015261473a816146fe565b9050919050565b7f4e487b7100000000000000000000000000000000000000000000000000000000600052601260045260246000fd5b600061477b826128fd565b9150614786836128fd565b92508261479657614795614741565b5b828206905092915050565b60006147ac826128fd565b91506147b7836128fd565b9250817fffffffffffffffffffffffffffffffffffffffffffffffffffffffffffffffff04831182151516156147f0576147ef61380a565b5b828202905092915050565b6000614806826128fd565b9150614811836128fd565b92508261482157614820614741565b5b828204905092915050565b7f4552433732313a206d696e7420746f20746865207a65726f2061646472657373600082015250565b600061486260208361296b565b915061486d8261482c565b602082019050919050565b6000602082019050818103600083015261489181614855565b9050919050565b7f4552433732313a20746f6b656e20616c7265616479206d696e74656400000000600082015250565b60006148ce601c8361296b565b91506148d982614898565b602082019050919050565b600060208201905081810360008301526148fd816148c1565b9050919050565b600081519050919050565b600082825260208201905092915050565b600061492b82614904565b614935818561490f565b935061494581856020860161297c565b61494e816129af565b840191505092915050565b600060808201905061496e6000830187612a4d565b61497b6020830186612a4d565b6149886040830185612b36565b818103606083015261499a8184614920565b905095945050505050565b6000815190506149b48161286e565b92915050565b6000602082840312156149d0576149cf612838565b5b60006149de848285016149a5565b9150509291505056fe4142434445464748494a4b4c4d4e4f505152535455565758595a6162636465666768696a6b6c6d6e6f707172737475767778797a303132333435363738392b2f3c2f646566733e3c726563742077696474683d223130302522206865696768743d2231303025222066696c6c3d2223323232222072783d223135222072793d223135222f3ea2646970667358221220e146994601cc2739db51e3225a92d4d02976565b9afd322316c79c527a5c74e064736f6c63430008090033",
  "linkReferences": {},
  "deployedLinkReferences": {}
}