{
  "_format": "hh-sol-artifact-1",
  "contractName": "NFTNewsCert",
  "sourceName": "contracts/NFTNewsCert.sol",
  "abi": [
    {
      "inputs": [
        {
          "internalType": "string",
          "name": "_name",
          "type": "string"
        },
        {
          "internalType": "string",
          "name": "_symbol",
          "type": "string"
        }
      ],
      "stateMutability": "nonpayable",
      "type": "constructor"
    },
    {
      "anonymous": false,
      "inputs": [
        {
          "indexed": true,
          "internalType": "address",
          "name": "owner",
          "type": "address"
        },
        {
          "indexed": true,
          "internalType": "address",
          "name": "approved",
          "type": "address"
        },
        {
          "indexed": true,
          "internalType": "uint256",
          "name": "tokenId",
          "type": "uint256"
        }
      ],
      "name": "Approval",
      "type": "event"
    },
    {
      "anonymous": false,
      "inputs": [
        {
          "indexed": true,
          "internalType": "address",
          "name": "owner",
          "type": "address"
        },
        {
          "indexed": true,
          "internalType": "address",
          "name": "operator",
          "type": "address"
        },
        {
          "indexed": false,
          "internalType": "bool",
          "name": "approved",
          "type": "bool"
        }
      ],
      "name": "ApprovalForAll",
      "type": "event"
    },
    {
      "anonymous": false,
      "inputs": [
        {
          "indexed": true,
          "internalType": "address",
          "name": "minter",
          "type": "address"
        },
        {
          "indexed": true,
          "internalType": "string",
          "name": "color",
          "type": "string"
        },
        {
          "indexed": false,
          "internalType": "string",
          "name": "signature",
          "type": "string"
        }
      ],
      "name": "Mint",
      "type": "event"
    },
    {
      "anonymous": false,
      "inputs": [
        {
          "indexed": true,
          "internalType": "address",
          "name": "previousOwner",
          "type": "address"
        },
        {
          "indexed": true,
          "internalType": "address",
          "name": "newOwner",
          "type": "address"
        }
      ],
      "name": "OwnershipTransferred",
      "type": "event"
    },
    {
      "anonymous": false,
      "inputs": [
        {
          "indexed": true,
          "internalType": "address",
          "name": "from",
          "type": "address"
        },
        {
          "indexed": true,
          "internalType": "address",
          "name": "to",
          "type": "address"
        },
        {
          "indexed": true,
          "internalType": "uint256",
          "name": "tokenId",
          "type": "uint256"
        }
      ],
      "name": "Transfer",
      "type": "event"
    },
    {
      "inputs": [
        {
          "internalType": "address",
          "name": "to",
          "type": "address"
        },
        {
          "internalType": "uint256",
          "name": "tokenId",
          "type": "uint256"
        }
      ],
      "name": "approve",
      "outputs": [],
      "stateMutability": "nonpayable",
      "type": "function"
    },
    {
      "inputs": [
        {
          "internalType": "address",
          "name": "owner",
          "type": "address"
        }
      ],
      "name": "balanceOf",
      "outputs": [
        {
          "internalType": "uint256",
          "name": "",
          "type": "uint256"
        }
      ],
      "stateMutability": "view",
      "type": "function"
    },
    {
      "inputs": [
        {
          "internalType": "uint256",
          "name": "tokenId",
          "type": "uint256"
        }
      ],
      "name": "getApproved",
      "outputs": [
        {
          "internalType": "address",
          "name": "",
          "type": "address"
        }
      ],
      "stateMutability": "view",
      "type": "function"
    },
    {
      "inputs": [
        {
          "internalType": "address",
          "name": "_address",
          "type": "address"
        }
      ],
      "name": "getNumberOfMinted",
      "outputs": [
        {
          "internalType": "uint256",
          "name": "",
          "type": "uint256"
        }
      ],
      "stateMutability": "view",
      "type": "function"
    },
    {
      "inputs": [
        {
          "internalType": "address",
          "name": "owner",
          "type": "address"
        },
        {
          "internalType": "address",
          "name": "operator",
          "type": "address"
        }
      ],
      "name": "isApprovedForAll",
      "outputs": [
        {
          "internalType": "bool",
          "name": "",
          "type": "bool"
        }
      ],
      "stateMutability": "view",
      "type": "function"
    },
    {
      "inputs": [
        {
          "internalType": "uint256",
          "name": "_tokenId",
          "type": "uint256"
        }
      ],
      "name": "isTokenExist",
      "outputs": [
        {
          "internalType": "bool",
          "name": "",
          "type": "bool"
        }
      ],
      "stateMutability": "view",
      "type": "function"
    },
    {
      "inputs": [
        {
          "internalType": "string",
          "name": "yourName",
          "type": "string"
        }
      ],
      "name": "mintBlue",
      "outputs": [],
      "stateMutability": "nonpayable",
      "type": "function"
    },
    {
      "inputs": [
        {
          "internalType": "string",
          "name": "yourName",
          "type": "string"
        }
      ],
      "name": "mintGreen",
      "outputs": [],
      "stateMutability": "nonpayable",
      "type": "function"
    },
    {
      "inputs": [
        {
          "internalType": "string",
          "name": "yourName",
          "type": "string"
        }
      ],
      "name": "mintPink",
      "outputs": [],
      "stateMutability": "nonpayable",
      "type": "function"
    },
    {
      "inputs": [
        {
          "internalType": "string",
          "name": "yourName",
          "type": "string"
        }
      ],
      "name": "mintRed",
      "outputs": [],
      "stateMutability": "nonpayable",
      "type": "function"
    },
    {
      "inputs": [
        {
          "internalType": "bool",
          "name": "_sw",
          "type": "bool"
        }
      ],
      "name": "mintSwitch",
      "outputs": [],
      "stateMutability": "nonpayable",
      "type": "function"
    },
    {
      "inputs": [
        {
          "internalType": "string",
          "name": "yourName",
          "type": "string"
        }
      ],
      "name": "mintWhite",
      "outputs": [],
      "stateMutability": "nonpayable",
      "type": "function"
    },
    {
      "inputs": [
        {
          "internalType": "string",
          "name": "yourName",
          "type": "string"
        }
      ],
      "name": "mintYellow",
      "outputs": [],
      "stateMutability": "nonpayable",
      "type": "function"
    },
    {
      "inputs": [],
      "name": "name",
      "outputs": [
        {
          "internalType": "string",
          "name": "",
          "type": "string"
        }
      ],
      "stateMutability": "view",
      "type": "function"
    },
    {
      "inputs": [],
      "name": "owner",
      "outputs": [
        {
          "internalType": "address",
          "name": "",
          "type": "address"
        }
      ],
      "stateMutability": "view",
      "type": "function"
    },
    {
      "inputs": [
        {
          "internalType": "uint256",
          "name": "tokenId",
          "type": "uint256"
        }
      ],
      "name": "ownerOf",
      "outputs": [
        {
          "internalType": "address",
          "name": "",
          "type": "address"
        }
      ],
      "stateMutability": "view",
      "type": "function"
    },
    {
      "inputs": [],
      "name": "renounceOwnership",
      "outputs": [],
      "stateMutability": "nonpayable",
      "type": "function"
    },
    {
      "inputs": [
        {
          "internalType": "address",
          "name": "from",
          "type": "address"
        },
        {
          "internalType": "address",
          "name": "to",
          "type": "address"
        },
        {
          "internalType": "uint256",
          "name": "tokenId",
          "type": "uint256"
        }
      ],
      "name": "safeTransferFrom",
      "outputs": [],
      "stateMutability": "nonpayable",
      "type": "function"
    },
    {
      "inputs": [
        {
          "internalType": "address",
          "name": "from",
          "type": "address"
        },
        {
          "internalType": "address",
          "name": "to",
          "type": "address"
        },
        {
          "internalType": "uint256",
          "name": "tokenId",
          "type": "uint256"
        },
        {
          "internalType": "bytes",
          "name": "data",
          "type": "bytes"
        }
      ],
      "name": "safeTransferFrom",
      "outputs": [],
      "stateMutability": "nonpayable",
      "type": "function"
    },
    {
      "inputs": [
        {
          "internalType": "address",
          "name": "operator",
          "type": "address"
        },
        {
          "internalType": "bool",
          "name": "approved",
          "type": "bool"
        }
      ],
      "name": "setApprovalForAll",
      "outputs": [],
      "stateMutability": "nonpayable",
      "type": "function"
    },
    {
      "inputs": [
        {
          "internalType": "uint256",
          "name": "_limit",
          "type": "uint256"
        }
      ],
      "name": "setLimit",
      "outputs": [],
      "stateMutability": "nonpayable",
      "type": "function"
    },
    {
      "inputs": [
        {
          "internalType": "bytes4",
          "name": "interfaceId",
          "type": "bytes4"
        }
      ],
      "name": "supportsInterface",
      "outputs": [
        {
          "internalType": "bool",
          "name": "",
          "type": "bool"
        }
      ],
      "stateMutability": "view",
      "type": "function"
    },
    {
      "inputs": [],
      "name": "symbol",
      "outputs": [
        {
          "internalType": "string",
          "name": "",
          "type": "string"
        }
      ],
      "stateMutability": "view",
      "type": "function"
    },
    {
      "inputs": [
        {
          "internalType": "uint256",
          "name": "_tokenId",
          "type": "uint256"
        }
      ],
      "name": "tokenURI",
      "outputs": [
        {
          "internalType": "string",
          "name": "",
          "type": "string"
        }
      ],
      "stateMutability": "view",
      "type": "function"
    },
    {
      "inputs": [
        {
          "internalType": "address",
          "name": "from",
          "type": "address"
        },
        {
          "internalType": "address",
          "name": "to",
          "type": "address"
        },
        {
          "internalType": "uint256",
          "name": "tokenId",
          "type": "uint256"
        }
      ],
      "name": "transferFrom",
      "outputs": [],
      "stateMutability": "nonpayable",
      "type": "function"
    },
    {
      "inputs": [
        {
          "internalType": "address",
          "name": "newOwner",
          "type": "address"
        }
      ],
      "name": "transferOwnership",
      "outputs": [],
      "stateMutability": "nonpayable",
      "type": "function"
    },
    {
      "inputs": [
        {
          "internalType": "uint256",
          "name": "_tokenId",
          "type": "uint256"
        }
      ],
      "name": "xPosition",
      "outputs": [
        {
          "internalType": "uint256",
          "name": "",
          "type": "uint256"
        }
      ],
      "stateMutability": "pure",
      "type": "function"
    },
    {
      "inputs": [
        {
          "internalType": "uint256",
          "name": "_tokenId",
          "type": "uint256"
        }
      ],
      "name": "yPosition",
      "outputs": [
        {
          "internalType": "uint256",
          "name": "",
          "type": "uint256"
        }
      ],
      "stateMutability": "pure",
      "type": "function"
    }
  ],
  "bytecode": "0x608060405260006007556000600860006101000a81548160ff02191690831515021790555060646009556001600a553480156200003b57600080fd5b50604051620051b0380380620051b08339818101604052810190620000619190620007b7565b818181600090805190602001906200007b929190620003fd565b50806001908051906020019062000094929190620003fd565b505050620000b7620000ab6200032f60201b60201c565b6200033760201b60201c565b6040518060e001604052806040518060400160405280600581526020017f626c61636b00000000000000000000000000000000000000000000000000000081525081526020016040518060400160405280600381526020017f726564000000000000000000000000000000000000000000000000000000000081525081526020016040518060400160405280600481526020017f626c75650000000000000000000000000000000000000000000000000000000081525081526020016040518060400160405280600581526020017f677265656e00000000000000000000000000000000000000000000000000000081525081526020016040518060400160405280600681526020017f79656c6c6f77000000000000000000000000000000000000000000000000000081525081526020016040518060400160405280600581526020017f776869746500000000000000000000000000000000000000000000000000000081525081526020016040518060400160405280600481526020017f70696e6b00000000000000000000000000000000000000000000000000000000815250815250600b9060076200026f9291906200048e565b5060005b600b805490508110156200032657600b81815481106200029857620002976200083c565b5b90600052602060002001600c6000836006811115620002bc57620002bb6200086b565b5b6006811115620002d157620002d06200086b565b5b6006811115620002e657620002e56200086b565b5b81526020019081526020016000209080546200030290620008c9565b6200030f929190620004f5565b5080806200031d9062000938565b91505062000273565b50505062000986565b600033905090565b6000600660009054906101000a900473ffffffffffffffffffffffffffffffffffffffff16905081600660006101000a81548173ffffffffffffffffffffffffffffffffffffffff021916908373ffffffffffffffffffffffffffffffffffffffff1602179055508173ffffffffffffffffffffffffffffffffffffffff168173ffffffffffffffffffffffffffffffffffffffff167f8be0079c531659141344cd1fd0a4f28419497f9722a3daafe3b4186f6b6457e060405160405180910390a35050565b8280546200040b90620008c9565b90600052602060002090601f0160209004810192826200042f57600085556200047b565b82601f106200044a57805160ff19168380011785556200047b565b828001600101855582156200047b579182015b828111156200047a5782518255916020019190600101906200045d565b5b5090506200048a91906200058d565b5090565b828054828255906000526020600020908101928215620004e2579160200282015b82811115620004e1578251829080519060200190620004d0929190620003fd565b5091602001919060010190620004af565b5b509050620004f19190620005ac565b5090565b8280546200050390620008c9565b90600052602060002090601f0160209004810192826200052757600085556200057a565b82601f106200053a57805485556200057a565b828001600101855582156200057a57600052602060002091601f016020900482015b82811115620005795782548255916001019190600101906200055c565b5b5090506200058991906200058d565b5090565b5b80821115620005a85760008160009055506001016200058e565b5090565b5b80821115620005d05760008181620005c69190620005d4565b50600101620005ad565b5090565b508054620005e290620008c9565b6000825580601f10620005f6575062000617565b601f0160209004906000526020600020908101906200061691906200058d565b5b50565b6000604051905090565b600080fd5b600080fd5b600080fd5b600080fd5b6000601f19601f8301169050919050565b7f4e487b7100000000000000000000000000000000000000000000000000000000600052604160045260246000fd5b620006838262000638565b810181811067ffffffffffffffff82111715620006a557620006a462000649565b5b80604052505050565b6000620006ba6200061a565b9050620006c8828262000678565b919050565b600067ffffffffffffffff821115620006eb57620006ea62000649565b5b620006f68262000638565b9050602081019050919050565b60005b838110156200072357808201518184015260208101905062000706565b8381111562000733576000848401525b50505050565b6000620007506200074a84620006cd565b620006ae565b9050828152602081018484840111156200076f576200076e62000633565b5b6200077c84828562000703565b509392505050565b600082601f8301126200079c576200079b6200062e565b5b8151620007ae84826020860162000739565b91505092915050565b60008060408385031215620007d157620007d062000624565b5b600083015167ffffffffffffffff811115620007f257620007f162000629565b5b620008008582860162000784565b925050602083015167ffffffffffffffff81111562000824576200082362000629565b5b620008328582860162000784565b9150509250929050565b7f4e487b7100000000000000000000000000000000000000000000000000000000600052603260045260246000fd5b7f4e487b7100000000000000000000000000000000000000000000000000000000600052602160045260246000fd5b7f4e487b7100000000000000000000000000000000000000000000000000000000600052602260045260246000fd5b60006002820490506001821680620008e257607f821691505b60208210811415620008f957620008f86200089a565b5b50919050565b7f4e487b7100000000000000000000000000000000000000000000000000000000600052601160045260246000fd5b6000819050919050565b600062000945826200092e565b91507fffffffffffffffffffffffffffffffffffffffffffffffffffffffffffffffff8214156200097b576200097a620008ff565b5b600182019050919050565b61481a80620009966000396000f3fe608060405234801561001057600080fd5b50600436106101c45760003560e01c80638da5cb5b116100f9578063c754bb1111610097578063e26882d511610071578063e26882d5146104fd578063e985e9c51461052d578063f2fde38b1461055d578063f69b852614610579576101c4565b8063c754bb1114610495578063c87b56dd146104b1578063cdefbb12146104e1576101c4565b8063b268f254116100d3578063b268f25414610411578063b88d4fde14610441578063be4603c31461045d578063c6ae947514610479576101c4565b80638da5cb5b146103b957806395d89b41146103d7578063a22cb465146103f5576101c4565b8063354f58171161016657806359e5fad61161014057806359e5fad6146103335780636352211e1461034f57806370a082311461037f578063715018a6146103af576101c4565b8063354f5817146102cb57806342842e0e146102fb5780634d79957b14610317576101c4565b8063095ea7b3116101a2578063095ea7b314610247578063119f33691461026357806323b872dd1461029357806327ea6f2b146102af576101c4565b806301ffc9a7146101c957806306fdde03146101f9578063081812fc14610217575b600080fd5b6101e360048036038101906101de91906126da565b610595565b6040516101f09190612722565b60405180910390f35b610201610677565b60405161020e91906127d6565b60405180910390f35b610231600480360381019061022c919061282e565b610709565b60405161023e919061289c565b60405180910390f35b610261600480360381019061025c91906128e3565b61074f565b005b61027d6004803603810190610278919061282e565b610867565b60405161028a9190612932565b60405180910390f35b6102ad60048036038101906102a8919061294d565b6108b9565b005b6102c960048036038101906102c4919061282e565b610919565b005b6102e560048036038101906102e0919061282e565b61092b565b6040516102f29190612932565b60405180910390f35b6103156004803603810190610310919061294d565b61097d565b005b610331600480360381019061032c9190612ad5565b61099d565b005b61034d60048036038101906103489190612ad5565b6109ab565b005b6103696004803603810190610364919061282e565b6109b9565b604051610376919061289c565b60405180910390f35b61039960048036038101906103949190612b1e565b610a6b565b6040516103a69190612932565b60405180910390f35b6103b7610b23565b005b6103c1610b37565b6040516103ce919061289c565b60405180910390f35b6103df610b61565b6040516103ec91906127d6565b60405180910390f35b61040f600480360381019061040a9190612b77565b610bf3565b005b61042b60048036038101906104269190612b1e565b610c09565b6040516104389190612932565b60405180910390f35b61045b60048036038101906104569190612c58565b610c52565b005b61047760048036038101906104729190612ad5565b610cb4565b005b610493600480360381019061048e9190612ad5565b610cc2565b005b6104af60048036038101906104aa9190612cdb565b610cd0565b005b6104cb60048036038101906104c6919061282e565b610cf5565b6040516104d891906127d6565b60405180910390f35b6104fb60048036038101906104f69190612ad5565b61132e565b005b6105176004803603810190610512919061282e565b61133c565b6040516105249190612722565b60405180910390f35b61054760048036038101906105429190612d08565b6113ad565b6040516105549190612722565b60405180910390f35b61057760048036038101906105729190612b1e565b611441565b005b610593600480360381019061058e9190612ad5565b6114c5565b005b60007f80ac58cd000000000000000000000000000000000000000000000000000000007bffffffffffffffffffffffffffffffffffffffffffffffffffffffff1916827bffffffffffffffffffffffffffffffffffffffffffffffffffffffff1916148061066057507f5b5e139f000000000000000000000000000000000000000000000000000000007bffffffffffffffffffffffffffffffffffffffffffffffffffffffff1916827bffffffffffffffffffffffffffffffffffffffffffffffffffffffff1916145b80610670575061066f826114d3565b5b9050919050565b60606000805461068690612d77565b80601f01602080910402602001604051908101604052809291908181526020018280546106b290612d77565b80156106ff5780601f106106d4576101008083540402835291602001916106ff565b820191906000526020600020905b8154815290600101906020018083116106e257829003601f168201915b5050505050905090565b60006107148261153d565b6004600083815260200190815260200160002060009054906101000a900473ffffffffffffffffffffffffffffffffffffffff169050919050565b600061075a826109b9565b90508073ffffffffffffffffffffffffffffffffffffffff168373ffffffffffffffffffffffffffffffffffffffff1614156107cb576040517f08c379a00000000000000000000000000000000000000000000000000000000081526004016107c290612e1b565b60405180910390fd5b8073ffffffffffffffffffffffffffffffffffffffff166107ea611588565b73ffffffffffffffffffffffffffffffffffffffff161480610819575061081881610813611588565b6113ad565b5b610858576040517f08c379a000000000000000000000000000000000000000000000000000000000815260040161084f90612ead565b60405180910390fd5b6108628383611590565b505050565b6000600a603c600c6018600a6001876108809190612efc565b61088a9190612f5f565b6108949190612f90565b61089e9190612fea565b6108a89190612fea565b6108b29190612fea565b9050919050565b6108ca6108c4611588565b82611649565b610909576040517f08c379a0000000000000000000000000000000000000000000000000000000008152600401610900906130b2565b60405180910390fd5b6109148383836116de565b505050565b610921611945565b80600a8190555050565b6000600a601e600c6018600a6001876109449190612efc565b61094e91906130d2565b6109589190612f90565b6109629190612fea565b61096c9190612fea565b6109769190612fea565b9050919050565b61099883838360405180602001604052806000815250610c52565b505050565b6109a86004826119c3565b50565b6109b66002826119c3565b50565b6000806002600084815260200190815260200160002060009054906101000a900473ffffffffffffffffffffffffffffffffffffffff169050600073ffffffffffffffffffffffffffffffffffffffff168173ffffffffffffffffffffffffffffffffffffffff161415610a62576040517f08c379a0000000000000000000000000000000000000000000000000000000008152600401610a599061314f565b60405180910390fd5b80915050919050565b60008073ffffffffffffffffffffffffffffffffffffffff168273ffffffffffffffffffffffffffffffffffffffff161415610adc576040517f08c379a0000000000000000000000000000000000000000000000000000000008152600401610ad3906131e1565b60405180910390fd5b600360008373ffffffffffffffffffffffffffffffffffffffff1673ffffffffffffffffffffffffffffffffffffffff168152602001908152602001600020549050919050565b610b2b611945565b610b356000611c01565b565b6000600660009054906101000a900473ffffffffffffffffffffffffffffffffffffffff16905090565b606060018054610b7090612d77565b80601f0160208091040260200160405190810160405280929190818152602001828054610b9c90612d77565b8015610be95780601f10610bbe57610100808354040283529160200191610be9565b820191906000526020600020905b815481529060010190602001808311610bcc57829003601f168201915b5050505050905090565b610c05610bfe611588565b8383611cc7565b5050565b6000601060008373ffffffffffffffffffffffffffffffffffffffff1673ffffffffffffffffffffffffffffffffffffffff168152602001908152602001600020549050919050565b610c63610c5d611588565b83611649565b610ca2576040517f08c379a0000000000000000000000000000000000000000000000000000000008152600401610c99906130b2565b60405180910390fd5b610cae84848484611e34565b50505050565b610cbf6005826119c3565b50565b610ccd6001826119c3565b50565b610cd8611945565b80600860006101000a81548160ff02191690831515021790555050565b6060610d008261133c565b610d3f576040517f08c379a0000000000000000000000000000000000000000000000000000000008152600401610d369061324d565b60405180910390fd5b610d476125a4565b604051602001610d5690613466565b60405160208183030381529060405281600060068110610d7957610d78613491565b5b602002018190525060005b600b80549050811015610eac576000600b8281548110610da757610da6613491565b5b906000526020600020018054610dbc90612d77565b80601f0160208091040260200160405190810160405280929190818152602001828054610de890612d77565b8015610e355780601f10610e0a57610100808354040283529160200191610e35565b820191906000526020600020905b815481529060010190602001808311610e1857829003601f168201915b5050505050905082600160068110610e5057610e4f613491565b5b602002015181828384604051602001610e6d959493929190613705565b60405160208183030381529060405283600160068110610e9057610e8f613491565b5b6020020181905250508080610ea490613792565b915050610d84565b506040518060800160405280604581526020016147a06045913981600260068110610eda57610ed9613491565b5b60200201819052506000610ef5610ef08561092b565b611e90565b90506000610f0a610f0586610867565b611e90565b90508181604051602001610f1f9291906138e5565b60405160208183030381529060405283600360068110610f4257610f41613491565b5b60200201819052506000600190505b6064811161112a5760006006811115610f6d57610f6c61392a565b5b600d600083815260200190815260200160002060009054906101000a900460ff166006811115610fa057610f9f61392a565b5b1415610fab57611117565b6000600c6000600d600085815260200190815260200160002060009054906101000a900460ff166006811115610fe457610fe361392a565b5b6006811115610ff657610ff561392a565b5b8152602001908152602001600020805461100f90612d77565b80601f016020809104026020016040519081016040528092919081815260200182805461103b90612d77565b80156110885780601f1061105d57610100808354040283529160200191611088565b820191906000526020600020905b81548152906001019060200180831161106b57829003601f168201915b5050505050905060006110a261109d8461092b565b611e90565b905060006110b76110b285610867565b611e90565b9050866004600681106110cd576110cc613491565b5b60200201518383836040516020016110e89493929190613a89565b6040516020818303038152906040528760046006811061110b5761110a613491565b5b60200201819052505050505b808061112290613792565b915050610f51565b5061113485611e90565b600f6000878152602001908152602001600020604051602001611158929190613d4f565b6040516020818303038152906040528360056006811061117b5761117a613491565b5b602002018190525060008360006006811061119957611198613491565b5b6020020151846001600681106111b2576111b1613491565b5b6020020151856002600681106111cb576111ca613491565b5b6020020151866003600681106111e4576111e3613491565b5b6020020151876004600681106111fd576111fc613491565b5b60200201518860056006811061121657611215613491565b5b602002015160405160200161123096959493929190613d9f565b6040516020818303038152906040529050600061124c87611e90565b600c6000600d60008b815260200190815260200160002060009054906101000a900460ff1660068111156112835761128261392a565b5b60068111156112955761129461392a565b5b81526020019081526020016000206040516020016112b4929190613fe5565b604051602081830303815290604052905060006112f9826112d485611ff1565b6040516020016112e592919061408c565b604051602081830303815290604052611ff1565b905060008160405160200161130e9190614107565b604051602081830303815290604052905080975050505050505050919050565b6113396003826119c3565b50565b6000600182108061134e575081600754105b1561135c57600090506113a8565b600060068111156113705761136f61392a565b5b600d600084815260200190815260200160002060009054906101000a900460ff1660068111156113a3576113a261392a565b5b141590505b919050565b6000600560008473ffffffffffffffffffffffffffffffffffffffff1673ffffffffffffffffffffffffffffffffffffffff16815260200190815260200160002060008373ffffffffffffffffffffffffffffffffffffffff1673ffffffffffffffffffffffffffffffffffffffff16815260200190815260200160002060009054906101000a900460ff16905092915050565b611449611945565b600073ffffffffffffffffffffffffffffffffffffffff168173ffffffffffffffffffffffffffffffffffffffff1614156114b9576040517f08c379a00000000000000000000000000000000000000000000000000000000081526004016114b09061419b565b60405180910390fd5b6114c281611c01565b50565b6114d06006826119c3565b50565b60007f01ffc9a7000000000000000000000000000000000000000000000000000000007bffffffffffffffffffffffffffffffffffffffffffffffffffffffff1916827bffffffffffffffffffffffffffffffffffffffffffffffffffffffff1916149050919050565b6115468161216a565b611585576040517f08c379a000000000000000000000000000000000000000000000000000000000815260040161157c9061314f565b60405180910390fd5b50565b600033905090565b816004600083815260200190815260200160002060006101000a81548173ffffffffffffffffffffffffffffffffffffffff021916908373ffffffffffffffffffffffffffffffffffffffff160217905550808273ffffffffffffffffffffffffffffffffffffffff16611603836109b9565b73ffffffffffffffffffffffffffffffffffffffff167f8c5be1e5ebec7d5bd14f71427d1e84f3dd0314c0f7b2291e5b200ac8c7c3b92560405160405180910390a45050565b600080611655836109b9565b90508073ffffffffffffffffffffffffffffffffffffffff168473ffffffffffffffffffffffffffffffffffffffff161480611697575061169681856113ad565b5b806116d557508373ffffffffffffffffffffffffffffffffffffffff166116bd84610709565b73ffffffffffffffffffffffffffffffffffffffff16145b91505092915050565b8273ffffffffffffffffffffffffffffffffffffffff166116fe826109b9565b73ffffffffffffffffffffffffffffffffffffffff1614611754576040517f08c379a000000000000000000000000000000000000000000000000000000000815260040161174b9061422d565b60405180910390fd5b600073ffffffffffffffffffffffffffffffffffffffff168273ffffffffffffffffffffffffffffffffffffffff1614156117c4576040517f08c379a00000000000000000000000000000000000000000000000000000000081526004016117bb906142bf565b60405180910390fd5b6117cf8383836121d6565b6117da600082611590565b6001600360008573ffffffffffffffffffffffffffffffffffffffff1673ffffffffffffffffffffffffffffffffffffffff168152602001908152602001600020600082825461182a9190612efc565b925050819055506001600360008473ffffffffffffffffffffffffffffffffffffffff1673ffffffffffffffffffffffffffffffffffffffff16815260200190815260200160002060008282546118819190612fea565b92505081905550816002600083815260200190815260200160002060006101000a81548173ffffffffffffffffffffffffffffffffffffffff021916908373ffffffffffffffffffffffffffffffffffffffff160217905550808273ffffffffffffffffffffffffffffffffffffffff168473ffffffffffffffffffffffffffffffffffffffff167fddf252ad1be2c89b69c2b068fc378daa952ba7f163c4a11628f55a4df523b3ef60405160405180910390a46119408383836121db565b505050565b61194d611588565b73ffffffffffffffffffffffffffffffffffffffff1661196b610b37565b73ffffffffffffffffffffffffffffffffffffffff16146119c1576040517f08c379a00000000000000000000000000000000000000000000000000000000081526004016119b89061432b565b60405180910390fd5b565b6000339050600860009054906101000a900460ff16611a17576040517f08c379a0000000000000000000000000000000000000000000000000000000008152600401611a0e90614397565b60405180910390fd5b60095460075410611a5d576040517f08c379a0000000000000000000000000000000000000000000000000000000008152600401611a5490614403565b60405180910390fd5b600a54601060008373ffffffffffffffffffffffffffffffffffffffff1673ffffffffffffffffffffffffffffffffffffffff1681526020019081526020016000205410611ae0576040517f08c379a0000000000000000000000000000000000000000000000000000000008152600401611ad79061446f565b60405180910390fd5b6000611aea6121e0565b9050611af682826121f6565b82600f60008381526020019081526020016000209080519060200190611b1d9291906125cb565b5083600d600083815260200190815260200160002060006101000a81548160ff02191690836006811115611b5457611b5361392a565b5b0217905550600c6000856006811115611b7057611b6f61392a565b5b6006811115611b8257611b8161392a565b5b8152602001908152602001600020604051611b9d919061448f565b60405180910390203373ffffffffffffffffffffffffffffffffffffffff167f35a0e34ee6c196b20f530d94282b96d57c4beda09ba5f603fe1baa387661d3c385604051611beb91906127d6565b60405180910390a3611bfb6123d0565b50505050565b6000600660009054906101000a900473ffffffffffffffffffffffffffffffffffffffff16905081600660006101000a81548173ffffffffffffffffffffffffffffffffffffffff021916908373ffffffffffffffffffffffffffffffffffffffff1602179055508173ffffffffffffffffffffffffffffffffffffffff168173ffffffffffffffffffffffffffffffffffffffff167f8be0079c531659141344cd1fd0a4f28419497f9722a3daafe3b4186f6b6457e060405160405180910390a35050565b8173ffffffffffffffffffffffffffffffffffffffff168373ffffffffffffffffffffffffffffffffffffffff161415611d36576040517f08c379a0000000000000000000000000000000000000000000000000000000008152600401611d2d906144f2565b60405180910390fd5b80600560008573ffffffffffffffffffffffffffffffffffffffff1673ffffffffffffffffffffffffffffffffffffffff16815260200190815260200160002060008473ffffffffffffffffffffffffffffffffffffffff1673ffffffffffffffffffffffffffffffffffffffff16815260200190815260200160002060006101000a81548160ff0219169083151502179055508173ffffffffffffffffffffffffffffffffffffffff168373ffffffffffffffffffffffffffffffffffffffff167f17307eab39ab6107e8899845ad3d59bd9653f200f220920489ca2b5937696c3183604051611e279190612722565b60405180910390a3505050565b611e3f8484846116de565b611e4b848484846123ea565b611e8a576040517f08c379a0000000000000000000000000000000000000000000000000000000008152600401611e8190614584565b60405180910390fd5b50505050565b60606000821415611ed8576040518060400160405280600181526020017f30000000000000000000000000000000000000000000000000000000000000008152509050611fec565b600082905060005b60008214611f0a578080611ef390613792565b915050600a82611f039190612f5f565b9150611ee0565b60008167ffffffffffffffff811115611f2657611f256129aa565b5b6040519080825280601f01601f191660200182016040528015611f585781602001600182028036833780820191505090505b5090505b60008514611fe557600182611f719190612efc565b9150600a85611f8091906130d2565b6030611f8c9190612fea565b60f81b818381518110611fa257611fa1613491565b5b60200101907effffffffffffffffffffffffffffffffffffffffffffffffffffffffffffff1916908160001a905350600a85611fde9190612f5f565b9450611f5c565b8093505050505b919050565b606060008251141561201457604051806020016040528060008152509050612165565b600060405180606001604052806040815260200161476060409139905060006003600285516120439190612fea565b61204d9190612f5f565b60046120599190612f90565b9050600060208261206a9190612fea565b67ffffffffffffffff811115612083576120826129aa565b5b6040519080825280601f01601f1916602001820160405280156120b55781602001600182028036833780820191505090505b509050818152600183018586518101602084015b81831015612124576003830192508251603f8160121c168501518253600182019150603f81600c1c168501518253600182019150603f8160061c168501518253600182019150603f81168501518253600182019150506120c9565b60038951066001811461213e576002811461214e57612159565b613d3d60f01b6002830352612159565b603d60f81b60018303525b50505050508093505050505b919050565b60008073ffffffffffffffffffffffffffffffffffffffff166002600084815260200190815260200160002060009054906101000a900473ffffffffffffffffffffffffffffffffffffffff1673ffffffffffffffffffffffffffffffffffffffff1614159050919050565b505050565b505050565b600060016007546121f19190612fea565b905090565b600073ffffffffffffffffffffffffffffffffffffffff168273ffffffffffffffffffffffffffffffffffffffff161415612266576040517f08c379a000000000000000000000000000000000000000000000000000000000815260040161225d906145f0565b60405180910390fd5b61226f8161216a565b156122af576040517f08c379a00000000000000000000000000000000000000000000000000000000081526004016122a69061465c565b60405180910390fd5b6122bb600083836121d6565b6001600360008473ffffffffffffffffffffffffffffffffffffffff1673ffffffffffffffffffffffffffffffffffffffff168152602001908152602001600020600082825461230b9190612fea565b92505081905550816002600083815260200190815260200160002060006101000a81548173ffffffffffffffffffffffffffffffffffffffff021916908373ffffffffffffffffffffffffffffffffffffffff160217905550808273ffffffffffffffffffffffffffffffffffffffff16600073ffffffffffffffffffffffffffffffffffffffff167fddf252ad1be2c89b69c2b068fc378daa952ba7f163c4a11628f55a4df523b3ef60405160405180910390a46123cc600083836121db565b5050565b600760008154809291906123e390613792565b9190505550565b600061240b8473ffffffffffffffffffffffffffffffffffffffff16612581565b15612574578373ffffffffffffffffffffffffffffffffffffffff1663150b7a02612434611588565b8786866040518563ffffffff1660e01b815260040161245694939291906146d1565b602060405180830381600087803b15801561247057600080fd5b505af19250505080156124a157506040513d601f19601f8201168201806040525081019061249e9190614732565b60015b612524573d80600081146124d1576040519150601f19603f3d011682016040523d82523d6000602084013e6124d6565b606091505b5060008151141561251c576040517f08c379a000000000000000000000000000000000000000000000000000000000815260040161251390614584565b60405180910390fd5b805181602001fd5b63150b7a0260e01b7bffffffffffffffffffffffffffffffffffffffffffffffffffffffff1916817bffffffffffffffffffffffffffffffffffffffffffffffffffffffff191614915050612579565b600190505b949350505050565b6000808273ffffffffffffffffffffffffffffffffffffffff163b119050919050565b6040518060c001604052806006905b60608152602001906001900390816125b35790505090565b8280546125d790612d77565b90600052602060002090601f0160209004810192826125f95760008555612640565b82601f1061261257805160ff1916838001178555612640565b82800160010185558215612640579182015b8281111561263f578251825591602001919060010190612624565b5b50905061264d9190612651565b5090565b5b8082111561266a576000816000905550600101612652565b5090565b6000604051905090565b600080fd5b600080fd5b60007fffffffff0000000000000000000000000000000000000000000000000000000082169050919050565b6126b781612682565b81146126c257600080fd5b50565b6000813590506126d4816126ae565b92915050565b6000602082840312156126f0576126ef612678565b5b60006126fe848285016126c5565b91505092915050565b60008115159050919050565b61271c81612707565b82525050565b60006020820190506127376000830184612713565b92915050565b600081519050919050565b600082825260208201905092915050565b60005b8381101561277757808201518184015260208101905061275c565b83811115612786576000848401525b50505050565b6000601f19601f8301169050919050565b60006127a88261273d565b6127b28185612748565b93506127c2818560208601612759565b6127cb8161278c565b840191505092915050565b600060208201905081810360008301526127f0818461279d565b905092915050565b6000819050919050565b61280b816127f8565b811461281657600080fd5b50565b60008135905061282881612802565b92915050565b60006020828403121561284457612843612678565b5b600061285284828501612819565b91505092915050565b600073ffffffffffffffffffffffffffffffffffffffff82169050919050565b60006128868261285b565b9050919050565b6128968161287b565b82525050565b60006020820190506128b1600083018461288d565b92915050565b6128c08161287b565b81146128cb57600080fd5b50565b6000813590506128dd816128b7565b92915050565b600080604083850312156128fa576128f9612678565b5b6000612908858286016128ce565b925050602061291985828601612819565b9150509250929050565b61292c816127f8565b82525050565b60006020820190506129476000830184612923565b92915050565b60008060006060848603121561296657612965612678565b5b6000612974868287016128ce565b9350506020612985868287016128ce565b925050604061299686828701612819565b9150509250925092565b600080fd5b600080fd5b7f4e487b7100000000000000000000000000000000000000000000000000000000600052604160045260246000fd5b6129e28261278c565b810181811067ffffffffffffffff82111715612a0157612a006129aa565b5b80604052505050565b6000612a1461266e565b9050612a2082826129d9565b919050565b600067ffffffffffffffff821115612a4057612a3f6129aa565b5b612a498261278c565b9050602081019050919050565b82818337600083830152505050565b6000612a78612a7384612a25565b612a0a565b905082815260208101848484011115612a9457612a936129a5565b5b612a9f848285612a56565b509392505050565b600082601f830112612abc57612abb6129a0565b5b8135612acc848260208601612a65565b91505092915050565b600060208284031215612aeb57612aea612678565b5b600082013567ffffffffffffffff811115612b0957612b0861267d565b5b612b1584828501612aa7565b91505092915050565b600060208284031215612b3457612b33612678565b5b6000612b42848285016128ce565b91505092915050565b612b5481612707565b8114612b5f57600080fd5b50565b600081359050612b7181612b4b565b92915050565b60008060408385031215612b8e57612b8d612678565b5b6000612b9c858286016128ce565b9250506020612bad85828601612b62565b9150509250929050565b600067ffffffffffffffff821115612bd257612bd16129aa565b5b612bdb8261278c565b9050602081019050919050565b6000612bfb612bf684612bb7565b612a0a565b905082815260208101848484011115612c1757612c166129a5565b5b612c22848285612a56565b509392505050565b600082601f830112612c3f57612c3e6129a0565b5b8135612c4f848260208601612be8565b91505092915050565b60008060008060808587031215612c7257612c71612678565b5b6000612c80878288016128ce565b9450506020612c91878288016128ce565b9350506040612ca287828801612819565b925050606085013567ffffffffffffffff811115612cc357612cc261267d565b5b612ccf87828801612c2a565b91505092959194509250565b600060208284031215612cf157612cf0612678565b5b6000612cff84828501612b62565b91505092915050565b60008060408385031215612d1f57612d1e612678565b5b6000612d2d858286016128ce565b9250506020612d3e858286016128ce565b9150509250929050565b7f4e487b7100000000000000000000000000000000000000000000000000000000600052602260045260246000fd5b60006002820490506001821680612d8f57607f821691505b60208210811415612da357612da2612d48565b5b50919050565b7f4552433732313a20617070726f76616c20746f2063757272656e74206f776e6560008201527f7200000000000000000000000000000000000000000000000000000000000000602082015250565b6000612e05602183612748565b9150612e1082612da9565b604082019050919050565b60006020820190508181036000830152612e3481612df8565b9050919050565b7f4552433732313a20617070726f76652063616c6c6572206973206e6f7420746f60008201527f6b656e206f776e6572206e6f7220617070726f76656420666f7220616c6c0000602082015250565b6000612e97603e83612748565b9150612ea282612e3b565b604082019050919050565b60006020820190508181036000830152612ec681612e8a565b9050919050565b7f4e487b7100000000000000000000000000000000000000000000000000000000600052601160045260246000fd5b6000612f07826127f8565b9150612f12836127f8565b925082821015612f2557612f24612ecd565b5b828203905092915050565b7f4e487b7100000000000000000000000000000000000000000000000000000000600052601260045260246000fd5b6000612f6a826127f8565b9150612f75836127f8565b925082612f8557612f84612f30565b5b828204905092915050565b6000612f9b826127f8565b9150612fa6836127f8565b9250817fffffffffffffffffffffffffffffffffffffffffffffffffffffffffffffffff0483118215151615612fdf57612fde612ecd565b5b828202905092915050565b6000612ff5826127f8565b9150613000836127f8565b9250827fffffffffffffffffffffffffffffffffffffffffffffffffffffffffffffffff0382111561303557613034612ecd565b5b828201905092915050565b7f4552433732313a2063616c6c6572206973206e6f7420746f6b656e206f776e6560008201527f72206e6f7220617070726f766564000000000000000000000000000000000000602082015250565b600061309c602e83612748565b91506130a782613040565b604082019050919050565b600060208201905081810360008301526130cb8161308f565b9050919050565b60006130dd826127f8565b91506130e8836127f8565b9250826130f8576130f7612f30565b5b828206905092915050565b7f4552433732313a20696e76616c696420746f6b656e2049440000000000000000600082015250565b6000613139601883612748565b915061314482613103565b602082019050919050565b600060208201905081810360008301526131688161312c565b9050919050565b7f4552433732313a2061646472657373207a65726f206973206e6f74206120766160008201527f6c6964206f776e65720000000000000000000000000000000000000000000000602082015250565b60006131cb602983612748565b91506131d68261316f565b604082019050919050565b600060208201905081810360008301526131fa816131be565b9050919050565b7f746f6b656e4964206d7573742062652065786973740000000000000000000000600082015250565b6000613237601583612748565b915061324282613201565b602082019050919050565b600060208201905081810360008301526132668161322a565b9050919050565b600081905092915050565b7f3c73766720786d6c6e733d22687474703a2f2f7777772e77332e6f72672f323060008201527f30302f73766722207072657365727665417370656374526174696f3d22784d6960208201527f6e594d696e206d656574222076696577426f783d22302030203332302033323060408201527f223e000000000000000000000000000000000000000000000000000000000000606082015250565b600061332060628361326d565b915061332b82613278565b606282019050919050565b7f3c7374796c653e2e62617365207b2066696c6c3a2077686974653b20666f6e7460008201527f2d66616d696c793a2073657269663b20666f6e742d73697a653a20313470783b60208201527f7d3c2f7374796c653e0000000000000000000000000000000000000000000000604082015250565b60006133b860498361326d565b91506133c382613336565b604982019050919050565b7f3c646566733e3c66696c7465722069643d2266223e3c6665476175737369616e60008201527f426c757220696e3d22536f75726365477261706869632220737464446576696160208201527f74696f6e3d223322202f3e3c2f66696c7465723e000000000000000000000000604082015250565b600061345060548361326d565b915061345b826133ce565b605482019050919050565b600061347182613313565b915061347c826133ab565b915061348782613443565b9150819050919050565b7f4e487b7100000000000000000000000000000000000000000000000000000000600052603260045260246000fd5b60006134cb8261273d565b6134d5818561326d565b93506134e5818560208601612759565b80840191505092915050565b7f3c6c696e6561724772616469656e742069643d22000000000000000000000000600082015250565b600061352760148361326d565b9150613532826134f1565b601482019050919050565b7f4c47223e3c73746f70206f66667365743d223025222073746f702d636f6c6f7260008201527f3d22000000000000000000000000000000000000000000000000000000000000602082015250565b600061359960228361326d565b91506135a48261353d565b602282019050919050565b7f222f3e3c73746f70206f66667365743d2231303025222f3e0000000000000000600082015250565b60006135e560188361326d565b91506135f0826135af565b601882019050919050565b7f3c2f6c696e6561724772616469656e743e3c636972636c652069643d22000000600082015250565b6000613631601d8361326d565b915061363c826135fb565b601d82019050919050565b7f222063783d2230222063793d22302220723d223130222066696c6c3d2275726c60008201527f2823000000000000000000000000000000000000000000000000000000000000602082015250565b60006136a360228361326d565b91506136ae82613647565b602282019050919050565b7f4c4729222f3e0000000000000000000000000000000000000000000000000000600082015250565b60006136ef60068361326d565b91506136fa826136b9565b600682019050919050565b600061371182886134c0565b915061371c8261351a565b915061372882876134c0565b91506137338261358c565b915061373f82866134c0565b915061374a826135d8565b915061375582613624565b915061376182856134c0565b915061376c82613696565b915061377882846134c0565b9150613783826136e2565b91508190509695505050505050565b600061379d826127f8565b91507fffffffffffffffffffffffffffffffffffffffffffffffffffffffffffffffff8214156137d0576137cf612ecd565b5b600182019050919050565b7f3c636972636c652069643d2246222063783d2200000000000000000000000000600082015250565b600061381160138361326d565b915061381c826137db565b601382019050919050565b7f222063793d220000000000000000000000000000000000000000000000000000600082015250565b600061385d60068361326d565b915061386882613827565b600682019050919050565b7f2220723d223230222066696c6c3d2223616161222066696c7465723d2275726c60008201527f28236629222f3e00000000000000000000000000000000000000000000000000602082015250565b60006138cf60278361326d565b91506138da82613873565b602782019050919050565b60006138f082613804565b91506138fc82856134c0565b915061390782613850565b915061391382846134c0565b915061391e826138c2565b91508190509392505050565b7f4e487b7100000000000000000000000000000000000000000000000000000000600052602160045260246000fd5b7f3c75736520687265663d22230000000000000000000000000000000000000000600082015250565b600061398f600c8361326d565b915061399a82613959565b600c82019050919050565b7f2220783d22000000000000000000000000000000000000000000000000000000600082015250565b60006139db60058361326d565b91506139e6826139a5565b600582019050919050565b7f2220793d22000000000000000000000000000000000000000000000000000000600082015250565b6000613a2760058361326d565b9150613a32826139f1565b600582019050919050565b7f222f3e0000000000000000000000000000000000000000000000000000000000600082015250565b6000613a7360038361326d565b9150613a7e82613a3d565b600382019050919050565b6000613a9582876134c0565b9150613aa082613982565b9150613aac82866134c0565b9150613ab7826139ce565b9150613ac382856134c0565b9150613ace82613a1a565b9150613ada82846134c0565b9150613ae582613a66565b915081905095945050505050565b7f3c7465787420783d2233302220793d2232352220636c6173733d22626173652260008201527f3e4e4654204e6577732043657274696669636174696f6e202337353c2f74657860208201527f743e000000000000000000000000000000000000000000000000000000000000604082015250565b6000613b7560428361326d565b9150613b8082613af3565b604282019050919050565b7f3c7465787420783d2233302220793d2234352220636c6173733d22626173652260008201527f3e49443a20000000000000000000000000000000000000000000000000000000602082015250565b6000613be760258361326d565b9150613bf282613b8b565b602582019050919050565b7f3c2f746578743e3c7465787420783d2233302220793d2236352220636c61737360008201527f3d2262617365223e204d696e7465723a20000000000000000000000000000000602082015250565b6000613c5960318361326d565b9150613c6482613bfd565b603182019050919050565b60008190508160005260206000209050919050565b60008154613c9181612d77565b613c9b818661326d565b94506001821660008114613cb65760018114613cc757613cfa565b60ff19831686528186019350613cfa565b613cd085613c6f565b60005b83811015613cf257815481890152600182019150602081019050613cd3565b838801955050505b50505092915050565b7f3c2f746578743e3c2f7376673e00000000000000000000000000000000000000600082015250565b6000613d39600d8361326d565b9150613d4482613d03565b600d82019050919050565b6000613d5a82613b68565b9150613d6582613bda565b9150613d7182856134c0565b9150613d7c82613c4c565b9150613d888284613c84565b9150613d9382613d2c565b91508190509392505050565b6000613dab82896134c0565b9150613db782886134c0565b9150613dc382876134c0565b9150613dcf82866134c0565b9150613ddb82856134c0565b9150613de782846134c0565b9150819050979650505050505050565b7f7b226e616d65223a20224e46544e657773436572746669636174696f6e202300600082015250565b6000613e2d601f8361326d565b9150613e3882613df7565b601f82019050919050565b7f222c226465736372697074696f6e223a20224e4654204e65777320526561646960008201527f6e672043657274696669636174696f6e2e222c00000000000000000000000000602082015250565b6000613e9f60338361326d565b9150613eaa82613e43565b603382019050919050565b7f2261747472696275746573223a205b7b2274726169745f74797065223a22436f60008201527f6c6f72222c2276616c7565223a22000000000000000000000000000000000000602082015250565b6000613f11602e8361326d565b9150613f1c82613eb5565b602e82019050919050565b7f227d5d2c00000000000000000000000000000000000000000000000000000000600082015250565b6000613f5d60048361326d565b9150613f6882613f27565b600482019050919050565b7f22696d616765223a2022646174613a696d6167652f7376672b786d6c3b62617360008201527f6536342c00000000000000000000000000000000000000000000000000000000602082015250565b6000613fcf60248361326d565b9150613fda82613f73565b602482019050919050565b6000613ff082613e20565b9150613ffc82856134c0565b915061400782613e92565b915061401282613f04565b915061401e8284613c84565b915061402982613f50565b915061403482613fc2565b91508190509392505050565b7f227d000000000000000000000000000000000000000000000000000000000000600082015250565b600061407660028361326d565b915061408182614040565b600282019050919050565b600061409882856134c0565b91506140a482846134c0565b91506140af82614069565b91508190509392505050565b7f646174613a6170706c69636174696f6e2f6a736f6e3b6261736536342c000000600082015250565b60006140f1601d8361326d565b91506140fc826140bb565b601d82019050919050565b6000614112826140e4565b915061411e82846134c0565b915081905092915050565b7f4f776e61626c653a206e6577206f776e657220697320746865207a65726f206160008201527f6464726573730000000000000000000000000000000000000000000000000000602082015250565b6000614185602683612748565b915061419082614129565b604082019050919050565b600060208201905081810360008301526141b481614178565b9050919050565b7f4552433732313a207472616e736665722066726f6d20696e636f72726563742060008201527f6f776e6572000000000000000000000000000000000000000000000000000000602082015250565b6000614217602583612748565b9150614222826141bb565b604082019050919050565b600060208201905081810360008301526142468161420a565b9050919050565b7f4552433732313a207472616e7366657220746f20746865207a65726f2061646460008201527f7265737300000000000000000000000000000000000000000000000000000000602082015250565b60006142a9602483612748565b91506142b48261424d565b604082019050919050565b600060208201905081810360008301526142d88161429c565b9050919050565b7f4f776e61626c653a2063616c6c6572206973206e6f7420746865206f776e6572600082015250565b6000614315602083612748565b9150614320826142df565b602082019050919050565b6000602082019050818103600083015261434481614308565b9050919050565b7f4d696e74696e672077696e646f77206973206e6f74206f70656e000000000000600082015250565b6000614381601a83612748565b915061438c8261434b565b602082019050919050565b600060208201905081810360008301526143b081614374565b9050919050565b7f546f6b656e20616d6f756e742069732066756c6c290000000000000000000000600082015250565b60006143ed601583612748565b91506143f8826143b7565b602082019050919050565b6000602082019050818103600083015261441c816143e0565b9050919050565b7f596f752072656163686564206d696e74206c696d697400000000000000000000600082015250565b6000614459601683612748565b915061446482614423565b602082019050919050565b600060208201905081810360008301526144888161444c565b9050919050565b600061449b8284613c84565b915081905092915050565b7f4552433732313a20617070726f766520746f2063616c6c657200000000000000600082015250565b60006144dc601983612748565b91506144e7826144a6565b602082019050919050565b6000602082019050818103600083015261450b816144cf565b9050919050565b7f4552433732313a207472616e7366657220746f206e6f6e20455243373231526560008201527f63656976657220696d706c656d656e7465720000000000000000000000000000602082015250565b600061456e603283612748565b915061457982614512565b604082019050919050565b6000602082019050818103600083015261459d81614561565b9050919050565b7f4552433732313a206d696e7420746f20746865207a65726f2061646472657373600082015250565b60006145da602083612748565b91506145e5826145a4565b602082019050919050565b60006020820190508181036000830152614609816145cd565b9050919050565b7f4552433732313a20746f6b656e20616c7265616479206d696e74656400000000600082015250565b6000614646601c83612748565b915061465182614610565b602082019050919050565b6000602082019050818103600083015261467581614639565b9050919050565b600081519050919050565b600082825260208201905092915050565b60006146a38261467c565b6146ad8185614687565b93506146bd818560208601612759565b6146c68161278c565b840191505092915050565b60006080820190506146e6600083018761288d565b6146f3602083018661288d565b6147006040830185612923565b81810360608301526147128184614698565b905095945050505050565b60008151905061472c816126ae565b92915050565b60006020828403121561474857614747612678565b5b60006147568482850161471d565b9150509291505056fe4142434445464748494a4b4c4d4e4f505152535455565758595a6162636465666768696a6b6c6d6e6f707172737475767778797a303132333435363738392b2f3c2f646566733e3c726563742077696474683d223130302522206865696768743d2231303025222066696c6c3d2223323232222072783d223135222072793d223135222f3ea2646970667358221220cd91938dcea51e7149733f9ebe206123382e1907863845b07463c0f9b6431ee364736f6c63430008090033",
  "linkReferences": {},
  "deployedLinkReferences": {}
}