{
  "_format": "hh-sol-artifact-1",
  "contractName": "NFTNewsCert",
  "sourceName": "contracts/NFTNewsCert.sol",
  "abi": [
    {
      "inputs": [
        {
          "internalType": "string",
          "name": "_name",
          "type": "string"
        },
        {
          "internalType": "string",
          "name": "_symbol",
          "type": "string"
        }
      ],
      "stateMutability": "nonpayable",
      "type": "constructor"
    },
    {
      "anonymous": false,
      "inputs": [
        {
          "indexed": true,
          "internalType": "address",
          "name": "owner",
          "type": "address"
        },
        {
          "indexed": true,
          "internalType": "address",
          "name": "approved",
          "type": "address"
        },
        {
          "indexed": true,
          "internalType": "uint256",
          "name": "tokenId",
          "type": "uint256"
        }
      ],
      "name": "Approval",
      "type": "event"
    },
    {
      "anonymous": false,
      "inputs": [
        {
          "indexed": true,
          "internalType": "address",
          "name": "owner",
          "type": "address"
        },
        {
          "indexed": true,
          "internalType": "address",
          "name": "operator",
          "type": "address"
        },
        {
          "indexed": false,
          "internalType": "bool",
          "name": "approved",
          "type": "bool"
        }
      ],
      "name": "ApprovalForAll",
      "type": "event"
    },
    {
      "anonymous": false,
      "inputs": [
        {
          "indexed": true,
          "internalType": "address",
          "name": "minter",
          "type": "address"
        },
        {
          "indexed": true,
          "internalType": "string",
          "name": "color",
          "type": "string"
        },
        {
          "indexed": false,
          "internalType": "string",
          "name": "signature",
          "type": "string"
        }
      ],
      "name": "Mint",
      "type": "event"
    },
    {
      "anonymous": false,
      "inputs": [
        {
          "indexed": true,
          "internalType": "address",
          "name": "previousOwner",
          "type": "address"
        },
        {
          "indexed": true,
          "internalType": "address",
          "name": "newOwner",
          "type": "address"
        }
      ],
      "name": "OwnershipTransferred",
      "type": "event"
    },
    {
      "anonymous": false,
      "inputs": [
        {
          "indexed": true,
          "internalType": "address",
          "name": "from",
          "type": "address"
        },
        {
          "indexed": true,
          "internalType": "address",
          "name": "to",
          "type": "address"
        },
        {
          "indexed": true,
          "internalType": "uint256",
          "name": "tokenId",
          "type": "uint256"
        }
      ],
      "name": "Transfer",
      "type": "event"
    },
    {
      "inputs": [
        {
          "internalType": "address",
          "name": "to",
          "type": "address"
        },
        {
          "internalType": "uint256",
          "name": "tokenId",
          "type": "uint256"
        }
      ],
      "name": "approve",
      "outputs": [],
      "stateMutability": "nonpayable",
      "type": "function"
    },
    {
      "inputs": [
        {
          "internalType": "address",
          "name": "owner",
          "type": "address"
        }
      ],
      "name": "balanceOf",
      "outputs": [
        {
          "internalType": "uint256",
          "name": "",
          "type": "uint256"
        }
      ],
      "stateMutability": "view",
      "type": "function"
    },
    {
      "inputs": [
        {
          "internalType": "uint256",
          "name": "tokenId",
          "type": "uint256"
        }
      ],
      "name": "getApproved",
      "outputs": [
        {
          "internalType": "address",
          "name": "",
          "type": "address"
        }
      ],
      "stateMutability": "view",
      "type": "function"
    },
    {
      "inputs": [],
      "name": "getLimit",
      "outputs": [
        {
          "internalType": "uint256",
          "name": "",
          "type": "uint256"
        }
      ],
      "stateMutability": "view",
      "type": "function"
    },
    {
      "inputs": [],
      "name": "getMintStatus",
      "outputs": [
        {
          "internalType": "bool",
          "name": "",
          "type": "bool"
        }
      ],
      "stateMutability": "view",
      "type": "function"
    },
    {
      "inputs": [
        {
          "internalType": "address",
          "name": "_address",
          "type": "address"
        }
      ],
      "name": "getNumberOfAccountMinted",
      "outputs": [
        {
          "internalType": "uint256",
          "name": "",
          "type": "uint256"
        }
      ],
      "stateMutability": "view",
      "type": "function"
    },
    {
      "inputs": [],
      "name": "getNumberOfMinted",
      "outputs": [
        {
          "internalType": "uint256",
          "name": "",
          "type": "uint256"
        }
      ],
      "stateMutability": "view",
      "type": "function"
    },
    {
      "inputs": [
        {
          "internalType": "uint256",
          "name": "_tokenId",
          "type": "uint256"
        }
      ],
      "name": "getSignature",
      "outputs": [
        {
          "internalType": "string",
          "name": "",
          "type": "string"
        }
      ],
      "stateMutability": "view",
      "type": "function"
    },
    {
      "inputs": [
        {
          "internalType": "address",
          "name": "owner",
          "type": "address"
        },
        {
          "internalType": "address",
          "name": "operator",
          "type": "address"
        }
      ],
      "name": "isApprovedForAll",
      "outputs": [
        {
          "internalType": "bool",
          "name": "",
          "type": "bool"
        }
      ],
      "stateMutability": "view",
      "type": "function"
    },
    {
      "inputs": [
        {
          "internalType": "string",
          "name": "yourName",
          "type": "string"
        }
      ],
      "name": "mintBlue",
      "outputs": [],
      "stateMutability": "payable",
      "type": "function"
    },
    {
      "inputs": [
        {
          "internalType": "string",
          "name": "yourName",
          "type": "string"
        }
      ],
      "name": "mintGreen",
      "outputs": [],
      "stateMutability": "payable",
      "type": "function"
    },
    {
      "inputs": [
        {
          "internalType": "string",
          "name": "yourName",
          "type": "string"
        }
      ],
      "name": "mintPink",
      "outputs": [],
      "stateMutability": "payable",
      "type": "function"
    },
    {
      "inputs": [
        {
          "internalType": "string",
          "name": "yourName",
          "type": "string"
        }
      ],
      "name": "mintRed",
      "outputs": [],
      "stateMutability": "payable",
      "type": "function"
    },
    {
      "inputs": [
        {
          "internalType": "string",
          "name": "yourName",
          "type": "string"
        }
      ],
      "name": "mintWhite",
      "outputs": [],
      "stateMutability": "payable",
      "type": "function"
    },
    {
      "inputs": [
        {
          "internalType": "string",
          "name": "yourName",
          "type": "string"
        }
      ],
      "name": "mintYellow",
      "outputs": [],
      "stateMutability": "payable",
      "type": "function"
    },
    {
      "inputs": [],
      "name": "name",
      "outputs": [
        {
          "internalType": "string",
          "name": "",
          "type": "string"
        }
      ],
      "stateMutability": "view",
      "type": "function"
    },
    {
      "inputs": [],
      "name": "owner",
      "outputs": [
        {
          "internalType": "address",
          "name": "",
          "type": "address"
        }
      ],
      "stateMutability": "view",
      "type": "function"
    },
    {
      "inputs": [
        {
          "internalType": "uint256",
          "name": "tokenId",
          "type": "uint256"
        }
      ],
      "name": "ownerOf",
      "outputs": [
        {
          "internalType": "address",
          "name": "",
          "type": "address"
        }
      ],
      "stateMutability": "view",
      "type": "function"
    },
    {
      "inputs": [],
      "name": "renounceOwnership",
      "outputs": [],
      "stateMutability": "nonpayable",
      "type": "function"
    },
    {
      "inputs": [
        {
          "internalType": "address",
          "name": "from",
          "type": "address"
        },
        {
          "internalType": "address",
          "name": "to",
          "type": "address"
        },
        {
          "internalType": "uint256",
          "name": "tokenId",
          "type": "uint256"
        }
      ],
      "name": "safeTransferFrom",
      "outputs": [],
      "stateMutability": "nonpayable",
      "type": "function"
    },
    {
      "inputs": [
        {
          "internalType": "address",
          "name": "from",
          "type": "address"
        },
        {
          "internalType": "address",
          "name": "to",
          "type": "address"
        },
        {
          "internalType": "uint256",
          "name": "tokenId",
          "type": "uint256"
        },
        {
          "internalType": "bytes",
          "name": "data",
          "type": "bytes"
        }
      ],
      "name": "safeTransferFrom",
      "outputs": [],
      "stateMutability": "nonpayable",
      "type": "function"
    },
    {
      "inputs": [
        {
          "internalType": "address",
          "name": "operator",
          "type": "address"
        },
        {
          "internalType": "bool",
          "name": "approved",
          "type": "bool"
        }
      ],
      "name": "setApprovalForAll",
      "outputs": [],
      "stateMutability": "nonpayable",
      "type": "function"
    },
    {
      "inputs": [
        {
          "internalType": "uint256",
          "name": "_limit",
          "type": "uint256"
        }
      ],
      "name": "setLimit",
      "outputs": [],
      "stateMutability": "nonpayable",
      "type": "function"
    },
    {
      "inputs": [
        {
          "internalType": "bool",
          "name": "_sw",
          "type": "bool"
        }
      ],
      "name": "setMintStatus",
      "outputs": [],
      "stateMutability": "nonpayable",
      "type": "function"
    },
    {
      "inputs": [
        {
          "internalType": "uint256",
          "name": "_tokenId",
          "type": "uint256"
        },
        {
          "internalType": "string",
          "name": "_signature",
          "type": "string"
        }
      ],
      "name": "setSignature",
      "outputs": [],
      "stateMutability": "nonpayable",
      "type": "function"
    },
    {
      "inputs": [
        {
          "internalType": "bytes4",
          "name": "interfaceId",
          "type": "bytes4"
        }
      ],
      "name": "supportsInterface",
      "outputs": [
        {
          "internalType": "bool",
          "name": "",
          "type": "bool"
        }
      ],
      "stateMutability": "view",
      "type": "function"
    },
    {
      "inputs": [],
      "name": "symbol",
      "outputs": [
        {
          "internalType": "string",
          "name": "",
          "type": "string"
        }
      ],
      "stateMutability": "view",
      "type": "function"
    },
    {
      "inputs": [
        {
          "internalType": "uint256",
          "name": "_tokenId",
          "type": "uint256"
        }
      ],
      "name": "tokenURI",
      "outputs": [
        {
          "internalType": "string",
          "name": "",
          "type": "string"
        }
      ],
      "stateMutability": "view",
      "type": "function"
    },
    {
      "inputs": [
        {
          "internalType": "address",
          "name": "from",
          "type": "address"
        },
        {
          "internalType": "address",
          "name": "to",
          "type": "address"
        },
        {
          "internalType": "uint256",
          "name": "tokenId",
          "type": "uint256"
        }
      ],
      "name": "transferFrom",
      "outputs": [],
      "stateMutability": "nonpayable",
      "type": "function"
    },
    {
      "inputs": [
        {
          "internalType": "address",
          "name": "newOwner",
          "type": "address"
        }
      ],
      "name": "transferOwnership",
      "outputs": [],
      "stateMutability": "nonpayable",
      "type": "function"
    },
    {
      "inputs": [],
      "name": "withdraw",
      "outputs": [],
      "stateMutability": "nonpayable",
      "type": "function"
    }
  ],
  "bytecode": "0x608060405260006007556000600860006101000a81548160ff02191690831515021790555060646009556001600a55660aa87bee538000600b553480156200004657600080fd5b5060405162005dcd38038062005dcd83398181016040528101906200006c919062000a37565b818181600090805190602001906200008692919062000715565b5080600190805190602001906200009f92919062000715565b505050620000c2620000b66200064760201b60201c565b6200064f60201b60201c565b6040518060400160405280600581526020017f426c61636b000000000000000000000000000000000000000000000000000000815250600d600080600681111562000112576200011162000abc565b5b600681111562000127576200012662000abc565b5b815260200190815260200160002090805190602001906200014a92919062000715565b506040518060400160405280600381526020017f5265640000000000000000000000000000000000000000000000000000000000815250600d6000600160068111156200019c576200019b62000abc565b5b6006811115620001b157620001b062000abc565b5b81526020019081526020016000209080519060200190620001d492919062000715565b506040518060400160405280600481526020017f426c756500000000000000000000000000000000000000000000000000000000815250600d60006002600681111562000226576200022562000abc565b5b60068111156200023b576200023a62000abc565b5b815260200190815260200160002090805190602001906200025e92919062000715565b506040518060400160405280600581526020017f477265656e000000000000000000000000000000000000000000000000000000815250600d600060036006811115620002b057620002af62000abc565b5b6006811115620002c557620002c462000abc565b5b81526020019081526020016000209080519060200190620002e892919062000715565b506040518060400160405280600681526020017f59656c6c6f770000000000000000000000000000000000000000000000000000815250600d6000600460068111156200033a576200033962000abc565b5b60068111156200034f576200034e62000abc565b5b815260200190815260200160002090805190602001906200037292919062000715565b506040518060400160405280600581526020017f5768697465000000000000000000000000000000000000000000000000000000815250600d600060056006811115620003c457620003c362000abc565b5b6006811115620003d957620003d862000abc565b5b81526020019081526020016000209080519060200190620003fc92919062000715565b506040518060400160405280600481526020017f50696e6b00000000000000000000000000000000000000000000000000000000815250600d60006006808111156200044d576200044c62000abc565b5b600681111562000462576200046162000abc565b5b815260200190815260200160002090805190602001906200048592919062000715565b506040518060e001604052806040518060400160405280600581526020017f626c61636b00000000000000000000000000000000000000000000000000000081525081526020016040518060400160405280600381526020017f726564000000000000000000000000000000000000000000000000000000000081525081526020016040518060400160405280600481526020017f626c75650000000000000000000000000000000000000000000000000000000081525081526020016040518060400160405280600581526020017f677265656e00000000000000000000000000000000000000000000000000000081525081526020016040518060400160405280600681526020017f79656c6c6f77000000000000000000000000000000000000000000000000000081525081526020016040518060400160405280600581526020017f776869746500000000000000000000000000000000000000000000000000000081525081526020016040518060400160405280600481526020017f70696e6b00000000000000000000000000000000000000000000000000000000815250815250600c9060076200063e929190620007a6565b50505062000b50565b600033905090565b6000600660009054906101000a900473ffffffffffffffffffffffffffffffffffffffff16905081600660006101000a81548173ffffffffffffffffffffffffffffffffffffffff021916908373ffffffffffffffffffffffffffffffffffffffff1602179055508173ffffffffffffffffffffffffffffffffffffffff168173ffffffffffffffffffffffffffffffffffffffff167f8be0079c531659141344cd1fd0a4f28419497f9722a3daafe3b4186f6b6457e060405160405180910390a35050565b828054620007239062000b1a565b90600052602060002090601f01602090048101928262000747576000855562000793565b82601f106200076257805160ff191683800117855562000793565b8280016001018555821562000793579182015b828111156200079257825182559160200191906001019062000775565b5b509050620007a291906200080d565b5090565b828054828255906000526020600020908101928215620007fa579160200282015b82811115620007f9578251829080519060200190620007e892919062000715565b5091602001919060010190620007c7565b5b5090506200080991906200082c565b5090565b5b80821115620008285760008160009055506001016200080e565b5090565b5b8082111562000850576000818162000846919062000854565b506001016200082d565b5090565b508054620008629062000b1a565b6000825580601f1062000876575062000897565b601f0160209004906000526020600020908101906200089691906200080d565b5b50565b6000604051905090565b600080fd5b600080fd5b600080fd5b600080fd5b6000601f19601f8301169050919050565b7f4e487b7100000000000000000000000000000000000000000000000000000000600052604160045260246000fd5b6200090382620008b8565b810181811067ffffffffffffffff82111715620009255762000924620008c9565b5b80604052505050565b60006200093a6200089a565b9050620009488282620008f8565b919050565b600067ffffffffffffffff8211156200096b576200096a620008c9565b5b6200097682620008b8565b9050602081019050919050565b60005b83811015620009a357808201518184015260208101905062000986565b83811115620009b3576000848401525b50505050565b6000620009d0620009ca846200094d565b6200092e565b905082815260208101848484011115620009ef57620009ee620008b3565b5b620009fc84828562000983565b509392505050565b600082601f83011262000a1c5762000a1b620008ae565b5b815162000a2e848260208601620009b9565b91505092915050565b6000806040838503121562000a515762000a50620008a4565b5b600083015167ffffffffffffffff81111562000a725762000a71620008a9565b5b62000a808582860162000a04565b925050602083015167ffffffffffffffff81111562000aa45762000aa3620008a9565b5b62000ab28582860162000a04565b9150509250929050565b7f4e487b7100000000000000000000000000000000000000000000000000000000600052602160045260246000fd5b7f4e487b7100000000000000000000000000000000000000000000000000000000600052602260045260246000fd5b6000600282049050600182168062000b3357607f821691505b6020821081141562000b4a5762000b4962000aeb565b5b50919050565b61526d8062000b606000396000f3fe6080604052600436106101d85760003560e01c8063715018a611610102578063c6ae947511610095578063e93d40cf11610064578063e93d40cf1461064f578063e985e9c51461068c578063f2fde38b146106c9578063f69b8526146106f2576101d8565b8063c6ae9475146105b1578063c87b56dd146105cd578063cdefbb121461060a578063dcdeb9bd14610626576101d8565b8063a22cb465116100d1578063a22cb46514610518578063b295a00e14610541578063b88d4fde1461056c578063be4603c314610595576101d8565b8063715018a6146104805780638da5cb5b14610497578063941ada0e146104c257806395d89b41146104ed576101d8565b806327ea6f2b1161017a5780634d79957b116101495780634d79957b146103ce57806359e5fad6146103ea5780636352211e1461040657806370a0823114610443576101d8565b806327ea6f2b1461033a5780633ccfd60b14610363578063424294e41461037a57806342842e0e146103a5576101d8565b8063081812fc116101b6578063081812fc14610282578063095ea7b3146102bf5780631f85e3ca146102e857806323b872dd14610311576101d8565b806301ffc9a7146101dd57806302a569e61461021a57806306fdde0314610257575b600080fd5b3480156101e957600080fd5b5061020460048036038101906101ff9190612d78565b61070e565b6040516102119190612dc0565b60405180910390f35b34801561022657600080fd5b50610241600480360381019061023c9190612e11565b6107f0565b60405161024e9190612ed7565b60405180910390f35b34801561026357600080fd5b5061026c610895565b6040516102799190612ed7565b60405180910390f35b34801561028e57600080fd5b506102a960048036038101906102a49190612e11565b610927565b6040516102b69190612f3a565b60405180910390f35b3480156102cb57600080fd5b506102e660048036038101906102e19190612f81565b61096d565b005b3480156102f457600080fd5b5061030f600480360381019061030a9190612fed565b610a85565b005b34801561031d57600080fd5b506103386004803603810190610333919061301a565b610aaa565b005b34801561034657600080fd5b50610361600480360381019061035c9190612e11565b610b0a565b005b34801561036f57600080fd5b50610378610b1c565b005b34801561038657600080fd5b5061038f610b47565b60405161039c919061307c565b60405180910390f35b3480156103b157600080fd5b506103cc60048036038101906103c7919061301a565b610b51565b005b6103e860048036038101906103e391906131cc565b610b71565b005b61040460048036038101906103ff91906131cc565b610b7f565b005b34801561041257600080fd5b5061042d60048036038101906104289190612e11565b610b8d565b60405161043a9190612f3a565b60405180910390f35b34801561044f57600080fd5b5061046a60048036038101906104659190613215565b610c3f565b604051610477919061307c565b60405180910390f35b34801561048c57600080fd5b50610495610cf7565b005b3480156104a357600080fd5b506104ac610d0b565b6040516104b99190612f3a565b60405180910390f35b3480156104ce57600080fd5b506104d7610d35565b6040516104e49190612dc0565b60405180910390f35b3480156104f957600080fd5b50610502610d4c565b60405161050f9190612ed7565b60405180910390f35b34801561052457600080fd5b5061053f600480360381019061053a9190613242565b610dde565b005b34801561054d57600080fd5b50610556610df4565b604051610563919061307c565b60405180910390f35b34801561057857600080fd5b50610593600480360381019061058e9190613323565b610dfe565b005b6105af60048036038101906105aa91906131cc565b610e60565b005b6105cb60048036038101906105c691906131cc565b610e6e565b005b3480156105d957600080fd5b506105f460048036038101906105ef9190612e11565b610e7c565b6040516106019190612ed7565b60405180910390f35b610624600480360381019061061f91906131cc565b6114b9565b005b34801561063257600080fd5b5061064d600480360381019061064891906133a6565b6114c7565b005b34801561065b57600080fd5b5061067660048036038101906106719190613215565b611569565b604051610683919061307c565b60405180910390f35b34801561069857600080fd5b506106b360048036038101906106ae9190613402565b6115b2565b6040516106c09190612dc0565b60405180910390f35b3480156106d557600080fd5b506106f060048036038101906106eb9190613215565b611646565b005b61070c600480360381019061070791906131cc565b6116ca565b005b60007f80ac58cd000000000000000000000000000000000000000000000000000000007bffffffffffffffffffffffffffffffffffffffffffffffffffffffff1916827bffffffffffffffffffffffffffffffffffffffffffffffffffffffff191614806107d957507f5b5e139f000000000000000000000000000000000000000000000000000000007bffffffffffffffffffffffffffffffffffffffffffffffffffffffff1916827bffffffffffffffffffffffffffffffffffffffffffffffffffffffff1916145b806107e957506107e8826116d8565b5b9050919050565b6060600f6000838152602001908152602001600020805461081090613471565b80601f016020809104026020016040519081016040528092919081815260200182805461083c90613471565b80156108895780601f1061085e57610100808354040283529160200191610889565b820191906000526020600020905b81548152906001019060200180831161086c57829003601f168201915b50505050509050919050565b6060600080546108a490613471565b80601f01602080910402602001604051908101604052809291908181526020018280546108d090613471565b801561091d5780601f106108f25761010080835404028352916020019161091d565b820191906000526020600020905b81548152906001019060200180831161090057829003601f168201915b5050505050905090565b600061093282611742565b6004600083815260200190815260200160002060009054906101000a900473ffffffffffffffffffffffffffffffffffffffff169050919050565b600061097882610b8d565b90508073ffffffffffffffffffffffffffffffffffffffff168373ffffffffffffffffffffffffffffffffffffffff1614156109e9576040517f08c379a00000000000000000000000000000000000000000000000000000000081526004016109e090613515565b60405180910390fd5b8073ffffffffffffffffffffffffffffffffffffffff16610a0861178d565b73ffffffffffffffffffffffffffffffffffffffff161480610a375750610a3681610a3161178d565b6115b2565b5b610a76576040517f08c379a0000000000000000000000000000000000000000000000000000000008152600401610a6d906135a7565b60405180910390fd5b610a808383611795565b505050565b610a8d61184e565b80600860006101000a81548160ff02191690831515021790555050565b610abb610ab561178d565b826118cc565b610afa576040517f08c379a0000000000000000000000000000000000000000000000000000000008152600401610af190613639565b60405180910390fd5b610b05838383611961565b505050565b610b1261184e565b80600a8190555050565b610b2461184e565b60004790506000811115610b4457610b43610b3d610d0b565b82611bc8565b5b50565b6000600754905090565b610b6c83838360405180602001604052806000815250610dfe565b505050565b610b7c600482611cbc565b50565b610b8a600282611cbc565b50565b6000806002600084815260200190815260200160002060009054906101000a900473ffffffffffffffffffffffffffffffffffffffff169050600073ffffffffffffffffffffffffffffffffffffffff168173ffffffffffffffffffffffffffffffffffffffff161415610c36576040517f08c379a0000000000000000000000000000000000000000000000000000000008152600401610c2d906136a5565b60405180910390fd5b80915050919050565b60008073ffffffffffffffffffffffffffffffffffffffff168273ffffffffffffffffffffffffffffffffffffffff161415610cb0576040517f08c379a0000000000000000000000000000000000000000000000000000000008152600401610ca790613737565b60405180910390fd5b600360008373ffffffffffffffffffffffffffffffffffffffff1673ffffffffffffffffffffffffffffffffffffffff168152602001908152602001600020549050919050565b610cff61184e565b610d096000612111565b565b6000600660009054906101000a900473ffffffffffffffffffffffffffffffffffffffff16905090565b6000600860009054906101000a900460ff16905090565b606060018054610d5b90613471565b80601f0160208091040260200160405190810160405280929190818152602001828054610d8790613471565b8015610dd45780601f10610da957610100808354040283529160200191610dd4565b820191906000526020600020905b815481529060010190602001808311610db757829003601f168201915b5050505050905090565b610df0610de961178d565b83836121d7565b5050565b6000600a54905090565b610e0f610e0961178d565b836118cc565b610e4e576040517f08c379a0000000000000000000000000000000000000000000000000000000008152600401610e4590613639565b60405180910390fd5b610e5a84848484612344565b50505050565b610e6b600582611cbc565b50565b610e79600182611cbc565b50565b6060610e87826123a0565b610ec6576040517f08c379a0000000000000000000000000000000000000000000000000000000008152600401610ebd906137a3565b60405180910390fd5b610ece612c42565b604051602001610edd906139bc565b60405160208183030381529060405281600060068110610f0057610eff6139e7565b5b602002018190525060005b600c80549050811015611033576000600c8281548110610f2e57610f2d6139e7565b5b906000526020600020018054610f4390613471565b80601f0160208091040260200160405190810160405280929190818152602001828054610f6f90613471565b8015610fbc5780601f10610f9157610100808354040283529160200191610fbc565b820191906000526020600020905b815481529060010190602001808311610f9f57829003601f168201915b5050505050905082600160068110610fd757610fd66139e7565b5b602002015181828384604051602001610ff4959493929190613c5b565b60405160208183030381529060405283600160068110611017576110166139e7565b5b602002018190525050808061102b90613d17565b915050610f0b565b506040518060800160405280604581526020016151f36045913981600260068110611061576110606139e7565b5b6020020181905250600061107c61107785612411565b612463565b9050600061109161108c866125c4565b612463565b9050818183836040516020016110aa9493929190613edc565b604051602081830303815290604052836003600681106110cd576110cc6139e7565b5b60200201819052506000600190505b606481116112b557600060068111156110f8576110f7613f5c565b5b600e600083815260200190815260200160002060009054906101000a900460ff16600681111561112b5761112a613f5c565b5b1415611136576112a2565b6000600d6000600e600085815260200190815260200160002060009054906101000a900460ff16600681111561116f5761116e613f5c565b5b600681111561118157611180613f5c565b5b8152602001908152602001600020805461119a90613471565b80601f01602080910402602001604051908101604052809291908181526020018280546111c690613471565b80156112135780601f106111e857610100808354040283529160200191611213565b820191906000526020600020905b8154815290600101906020018083116111f657829003601f168201915b50505050509050600061122d61122884612411565b612463565b9050600061124261123d856125c4565b612463565b905086600460068110611258576112576139e7565b5b602002015183838360405160200161127394939291906140bb565b60405160208183030381529060405287600460068110611296576112956139e7565b5b60200201819052505050505b80806112ad90613d17565b9150506110dc565b506112bf85612463565b600f60008781526020019081526020016000206040516020016112e3929190614381565b60405160208183030381529060405283600560068110611306576113056139e7565b5b6020020181905250600083600060068110611324576113236139e7565b5b60200201518460016006811061133d5761133c6139e7565b5b602002015185600260068110611356576113556139e7565b5b60200201518660036006811061136f5761136e6139e7565b5b602002015187600460068110611388576113876139e7565b5b6020020151886005600681106113a1576113a06139e7565b5b60200201516040516020016113bb969594939291906143d1565b604051602081830303815290604052905060006113d787612463565b600d6000600e60008b815260200190815260200160002060009054906101000a900460ff16600681111561140e5761140d613f5c565b5b60068111156114205761141f613f5c565b5b815260200190815260200160002060405160200161143f929190614617565b604051602081830303815290604052905060006114848261145f85612616565b6040516020016114709291906146be565b604051602081830303815290604052612616565b90506000816040516020016114999190614739565b604051602081830303815290604052905080975050505050505050919050565b6114c4600382611cbc565b50565b3373ffffffffffffffffffffffffffffffffffffffff166114e783610b8d565b73ffffffffffffffffffffffffffffffffffffffff161461153d576040517f08c379a0000000000000000000000000000000000000000000000000000000008152600401611534906147a7565b60405180910390fd5b80600f60008481526020019081526020016000209080519060200190611564929190612c69565b505050565b6000601060008373ffffffffffffffffffffffffffffffffffffffff1673ffffffffffffffffffffffffffffffffffffffff168152602001908152602001600020549050919050565b6000600560008473ffffffffffffffffffffffffffffffffffffffff1673ffffffffffffffffffffffffffffffffffffffff16815260200190815260200160002060008373ffffffffffffffffffffffffffffffffffffffff1673ffffffffffffffffffffffffffffffffffffffff16815260200190815260200160002060009054906101000a900460ff16905092915050565b61164e61184e565b600073ffffffffffffffffffffffffffffffffffffffff168173ffffffffffffffffffffffffffffffffffffffff1614156116be576040517f08c379a00000000000000000000000000000000000000000000000000000000081526004016116b590614839565b60405180910390fd5b6116c781612111565b50565b6116d5600682611cbc565b50565b60007f01ffc9a7000000000000000000000000000000000000000000000000000000007bffffffffffffffffffffffffffffffffffffffffffffffffffffffff1916827bffffffffffffffffffffffffffffffffffffffffffffffffffffffff1916149050919050565b61174b8161278f565b61178a576040517f08c379a0000000000000000000000000000000000000000000000000000000008152600401611781906136a5565b60405180910390fd5b50565b600033905090565b816004600083815260200190815260200160002060006101000a81548173ffffffffffffffffffffffffffffffffffffffff021916908373ffffffffffffffffffffffffffffffffffffffff160217905550808273ffffffffffffffffffffffffffffffffffffffff1661180883610b8d565b73ffffffffffffffffffffffffffffffffffffffff167f8c5be1e5ebec7d5bd14f71427d1e84f3dd0314c0f7b2291e5b200ac8c7c3b92560405160405180910390a45050565b61185661178d565b73ffffffffffffffffffffffffffffffffffffffff16611874610d0b565b73ffffffffffffffffffffffffffffffffffffffff16146118ca576040517f08c379a00000000000000000000000000000000000000000000000000000000081526004016118c1906148a5565b60405180910390fd5b565b6000806118d883610b8d565b90508073ffffffffffffffffffffffffffffffffffffffff168473ffffffffffffffffffffffffffffffffffffffff16148061191a575061191981856115b2565b5b8061195857508373ffffffffffffffffffffffffffffffffffffffff1661194084610927565b73ffffffffffffffffffffffffffffffffffffffff16145b91505092915050565b8273ffffffffffffffffffffffffffffffffffffffff1661198182610b8d565b73ffffffffffffffffffffffffffffffffffffffff16146119d7576040517f08c379a00000000000000000000000000000000000000000000000000000000081526004016119ce90614937565b60405180910390fd5b600073ffffffffffffffffffffffffffffffffffffffff168273ffffffffffffffffffffffffffffffffffffffff161415611a47576040517f08c379a0000000000000000000000000000000000000000000000000000000008152600401611a3e906149c9565b60405180910390fd5b611a528383836127fb565b611a5d600082611795565b6001600360008573ffffffffffffffffffffffffffffffffffffffff1673ffffffffffffffffffffffffffffffffffffffff1681526020019081526020016000206000828254611aad91906149e9565b925050819055506001600360008473ffffffffffffffffffffffffffffffffffffffff1673ffffffffffffffffffffffffffffffffffffffff1681526020019081526020016000206000828254611b049190614a1d565b92505081905550816002600083815260200190815260200160002060006101000a81548173ffffffffffffffffffffffffffffffffffffffff021916908373ffffffffffffffffffffffffffffffffffffffff160217905550808273ffffffffffffffffffffffffffffffffffffffff168473ffffffffffffffffffffffffffffffffffffffff167fddf252ad1be2c89b69c2b068fc378daa952ba7f163c4a11628f55a4df523b3ef60405160405180910390a4611bc3838383612800565b505050565b80471015611c0b576040517f08c379a0000000000000000000000000000000000000000000000000000000008152600401611c0290614abf565b60405180910390fd5b60008273ffffffffffffffffffffffffffffffffffffffff1682604051611c3190614b10565b60006040518083038185875af1925050503d8060008114611c6e576040519150601f19603f3d011682016040523d82523d6000602084013e611c73565b606091505b5050905080611cb7576040517f08c379a0000000000000000000000000000000000000000000000000000000008152600401611cae90614b97565b60405180910390fd5b505050565b60003390506000600d6000856006811115611cda57611cd9613f5c565b5b6006811115611cec57611ceb613f5c565b5b815260200190815260200160002083604051602001611d0c929190614bb7565b604051602081830303815290604052805190602001209050600860009054906101000a900460ff1680611d715750611d42610d0b565b73ffffffffffffffffffffffffffffffffffffffff163373ffffffffffffffffffffffffffffffffffffffff16145b611db0576040517f08c379a0000000000000000000000000000000000000000000000000000000008152600401611da790614c27565b60405180910390fd5b60095460075410611df6576040517f08c379a0000000000000000000000000000000000000000000000000000000008152600401611ded90614c93565b60405180910390fd5b600a54601060008473ffffffffffffffffffffffffffffffffffffffff1673ffffffffffffffffffffffffffffffffffffffff168152602001908152602001600020541080611e775750611e48610d0b565b73ffffffffffffffffffffffffffffffffffffffff163373ffffffffffffffffffffffffffffffffffffffff16145b611eb6576040517f08c379a0000000000000000000000000000000000000000000000000000000008152600401611ead90614cff565b60405180910390fd5b34600b541115611efb576040517f08c379a0000000000000000000000000000000000000000000000000000000008152600401611ef290614d6b565b60405180910390fd5b600015156011600083815260200190815260200160002060009054906101000a900460ff16151514611f62576040517f08c379a0000000000000000000000000000000000000000000000000000000008152600401611f5990614dd7565b60405180910390fd5b6000611f6c612805565b9050611f78838261281b565b83600f60008381526020019081526020016000209080519060200190611f9f929190612c69565b5084600e600083815260200190815260200160002060006101000a81548160ff02191690836006811115611fd657611fd5613f5c565b5b0217905550601060008473ffffffffffffffffffffffffffffffffffffffff1673ffffffffffffffffffffffffffffffffffffffff168152602001908152602001600020600081548092919061202b90613d17565b919050555060016011600084815260200190815260200160002060006101000a81548160ff02191690831515021790555061206833600b54611bc8565b600d600086600681111561207f5761207e613f5c565b5b600681111561209157612090613f5c565b5b81526020019081526020016000206040516120ac9190614df7565b60405180910390208373ffffffffffffffffffffffffffffffffffffffff167f35a0e34ee6c196b20f530d94282b96d57c4beda09ba5f603fe1baa387661d3c3866040516120fa9190612ed7565b60405180910390a361210a612839565b5050505050565b6000600660009054906101000a900473ffffffffffffffffffffffffffffffffffffffff16905081600660006101000a81548173ffffffffffffffffffffffffffffffffffffffff021916908373ffffffffffffffffffffffffffffffffffffffff1602179055508173ffffffffffffffffffffffffffffffffffffffff168173ffffffffffffffffffffffffffffffffffffffff167f8be0079c531659141344cd1fd0a4f28419497f9722a3daafe3b4186f6b6457e060405160405180910390a35050565b8173ffffffffffffffffffffffffffffffffffffffff168373ffffffffffffffffffffffffffffffffffffffff161415612246576040517f08c379a000000000000000000000000000000000000000000000000000000000815260040161223d90614e5a565b60405180910390fd5b80600560008573ffffffffffffffffffffffffffffffffffffffff1673ffffffffffffffffffffffffffffffffffffffff16815260200190815260200160002060008473ffffffffffffffffffffffffffffffffffffffff1673ffffffffffffffffffffffffffffffffffffffff16815260200190815260200160002060006101000a81548160ff0219169083151502179055508173ffffffffffffffffffffffffffffffffffffffff168373ffffffffffffffffffffffffffffffffffffffff167f17307eab39ab6107e8899845ad3d59bd9653f200f220920489ca2b5937696c31836040516123379190612dc0565b60405180910390a3505050565b61234f848484611961565b61235b84848484612853565b61239a576040517f08c379a000000000000000000000000000000000000000000000000000000000815260040161239190614eec565b60405180910390fd5b50505050565b600060018210806123b2575081600754105b156123c0576000905061240c565b600060068111156123d4576123d3613f5c565b5b600e600084815260200190815260200160002060009054906101000a900460ff16600681111561240757612406613f5c565b5b141590505b919050565b6000600a601e600c6018600a60018761242a91906149e9565b6124349190614f3b565b61243e9190614f6c565b6124489190614a1d565b6124529190614a1d565b61245c9190614a1d565b9050919050565b606060008214156124ab576040518060400160405280600181526020017f300000000000000000000000000000000000000000000000000000000000000081525090506125bf565b600082905060005b600082146124dd5780806124c690613d17565b915050600a826124d69190614fc6565b91506124b3565b60008167ffffffffffffffff8111156124f9576124f86130a1565b5b6040519080825280601f01601f19166020018201604052801561252b5781602001600182028036833780820191505090505b5090505b600085146125b85760018261254491906149e9565b9150600a856125539190614f3b565b603061255f9190614a1d565b60f81b818381518110612575576125746139e7565b5b60200101907effffffffffffffffffffffffffffffffffffffffffffffffffffffffffffff1916908160001a905350600a856125b19190614fc6565b945061252f565b8093505050505b919050565b6000600a603c600c6018600a6001876125dd91906149e9565b6125e79190614fc6565b6125f19190614f6c565b6125fb9190614a1d565b6126059190614a1d565b61260f9190614a1d565b9050919050565b60606000825114156126395760405180602001604052806000815250905061278a565b60006040518060600160405280604081526020016151b360409139905060006003600285516126689190614a1d565b6126729190614fc6565b600461267e9190614f6c565b9050600060208261268f9190614a1d565b67ffffffffffffffff8111156126a8576126a76130a1565b5b6040519080825280601f01601f1916602001820160405280156126da5781602001600182028036833780820191505090505b509050818152600183018586518101602084015b81831015612749576003830192508251603f8160121c168501518253600182019150603f81600c1c168501518253600182019150603f8160061c168501518253600182019150603f81168501518253600182019150506126ee565b60038951066001811461276357600281146127735761277e565b613d3d60f01b600283035261277e565b603d60f81b60018303525b50505050508093505050505b919050565b60008073ffffffffffffffffffffffffffffffffffffffff166002600084815260200190815260200160002060009054906101000a900473ffffffffffffffffffffffffffffffffffffffff1673ffffffffffffffffffffffffffffffffffffffff1614159050919050565b505050565b505050565b600060016007546128169190614a1d565b905090565b6128358282604051806020016040528060008152506129ea565b5050565b6007600081548092919061284c90613d17565b9190505550565b60006128748473ffffffffffffffffffffffffffffffffffffffff16612a45565b156129dd578373ffffffffffffffffffffffffffffffffffffffff1663150b7a0261289d61178d565b8786866040518563ffffffff1660e01b81526004016128bf949392919061504c565b602060405180830381600087803b1580156128d957600080fd5b505af192505050801561290a57506040513d601f19601f8201168201806040525081019061290791906150ad565b60015b61298d573d806000811461293a576040519150601f19603f3d011682016040523d82523d6000602084013e61293f565b606091505b50600081511415612985576040517f08c379a000000000000000000000000000000000000000000000000000000000815260040161297c90614eec565b60405180910390fd5b805181602001fd5b63150b7a0260e01b7bffffffffffffffffffffffffffffffffffffffffffffffffffffffff1916817bffffffffffffffffffffffffffffffffffffffffffffffffffffffff1916149150506129e2565b600190505b949350505050565b6129f48383612a68565b612a016000848484612853565b612a40576040517f08c379a0000000000000000000000000000000000000000000000000000000008152600401612a3790614eec565b60405180910390fd5b505050565b6000808273ffffffffffffffffffffffffffffffffffffffff163b119050919050565b600073ffffffffffffffffffffffffffffffffffffffff168273ffffffffffffffffffffffffffffffffffffffff161415612ad8576040517f08c379a0000000000000000000000000000000000000000000000000000000008152600401612acf90615126565b60405180910390fd5b612ae18161278f565b15612b21576040517f08c379a0000000000000000000000000000000000000000000000000000000008152600401612b1890615192565b60405180910390fd5b612b2d600083836127fb565b6001600360008473ffffffffffffffffffffffffffffffffffffffff1673ffffffffffffffffffffffffffffffffffffffff1681526020019081526020016000206000828254612b7d9190614a1d565b92505081905550816002600083815260200190815260200160002060006101000a81548173ffffffffffffffffffffffffffffffffffffffff021916908373ffffffffffffffffffffffffffffffffffffffff160217905550808273ffffffffffffffffffffffffffffffffffffffff16600073ffffffffffffffffffffffffffffffffffffffff167fddf252ad1be2c89b69c2b068fc378daa952ba7f163c4a11628f55a4df523b3ef60405160405180910390a4612c3e60008383612800565b5050565b6040518060c001604052806006905b6060815260200190600190039081612c515790505090565b828054612c7590613471565b90600052602060002090601f016020900481019282612c975760008555612cde565b82601f10612cb057805160ff1916838001178555612cde565b82800160010185558215612cde579182015b82811115612cdd578251825591602001919060010190612cc2565b5b509050612ceb9190612cef565b5090565b5b80821115612d08576000816000905550600101612cf0565b5090565b6000604051905090565b600080fd5b600080fd5b60007fffffffff0000000000000000000000000000000000000000000000000000000082169050919050565b612d5581612d20565b8114612d6057600080fd5b50565b600081359050612d7281612d4c565b92915050565b600060208284031215612d8e57612d8d612d16565b5b6000612d9c84828501612d63565b91505092915050565b60008115159050919050565b612dba81612da5565b82525050565b6000602082019050612dd56000830184612db1565b92915050565b6000819050919050565b612dee81612ddb565b8114612df957600080fd5b50565b600081359050612e0b81612de5565b92915050565b600060208284031215612e2757612e26612d16565b5b6000612e3584828501612dfc565b91505092915050565b600081519050919050565b600082825260208201905092915050565b60005b83811015612e78578082015181840152602081019050612e5d565b83811115612e87576000848401525b50505050565b6000601f19601f8301169050919050565b6000612ea982612e3e565b612eb38185612e49565b9350612ec3818560208601612e5a565b612ecc81612e8d565b840191505092915050565b60006020820190508181036000830152612ef18184612e9e565b905092915050565b600073ffffffffffffffffffffffffffffffffffffffff82169050919050565b6000612f2482612ef9565b9050919050565b612f3481612f19565b82525050565b6000602082019050612f4f6000830184612f2b565b92915050565b612f5e81612f19565b8114612f6957600080fd5b50565b600081359050612f7b81612f55565b92915050565b60008060408385031215612f9857612f97612d16565b5b6000612fa685828601612f6c565b9250506020612fb785828601612dfc565b9150509250929050565b612fca81612da5565b8114612fd557600080fd5b50565b600081359050612fe781612fc1565b92915050565b60006020828403121561300357613002612d16565b5b600061301184828501612fd8565b91505092915050565b60008060006060848603121561303357613032612d16565b5b600061304186828701612f6c565b935050602061305286828701612f6c565b925050604061306386828701612dfc565b9150509250925092565b61307681612ddb565b82525050565b6000602082019050613091600083018461306d565b92915050565b600080fd5b600080fd5b7f4e487b7100000000000000000000000000000000000000000000000000000000600052604160045260246000fd5b6130d982612e8d565b810181811067ffffffffffffffff821117156130f8576130f76130a1565b5b80604052505050565b600061310b612d0c565b905061311782826130d0565b919050565b600067ffffffffffffffff821115613137576131366130a1565b5b61314082612e8d565b9050602081019050919050565b82818337600083830152505050565b600061316f61316a8461311c565b613101565b90508281526020810184848401111561318b5761318a61309c565b5b61319684828561314d565b509392505050565b600082601f8301126131b3576131b2613097565b5b81356131c384826020860161315c565b91505092915050565b6000602082840312156131e2576131e1612d16565b5b600082013567ffffffffffffffff811115613200576131ff612d1b565b5b61320c8482850161319e565b91505092915050565b60006020828403121561322b5761322a612d16565b5b600061323984828501612f6c565b91505092915050565b6000806040838503121561325957613258612d16565b5b600061326785828601612f6c565b925050602061327885828601612fd8565b9150509250929050565b600067ffffffffffffffff82111561329d5761329c6130a1565b5b6132a682612e8d565b9050602081019050919050565b60006132c66132c184613282565b613101565b9050828152602081018484840111156132e2576132e161309c565b5b6132ed84828561314d565b509392505050565b600082601f83011261330a57613309613097565b5b813561331a8482602086016132b3565b91505092915050565b6000806000806080858703121561333d5761333c612d16565b5b600061334b87828801612f6c565b945050602061335c87828801612f6c565b935050604061336d87828801612dfc565b925050606085013567ffffffffffffffff81111561338e5761338d612d1b565b5b61339a878288016132f5565b91505092959194509250565b600080604083850312156133bd576133bc612d16565b5b60006133cb85828601612dfc565b925050602083013567ffffffffffffffff8111156133ec576133eb612d1b565b5b6133f88582860161319e565b9150509250929050565b6000806040838503121561341957613418612d16565b5b600061342785828601612f6c565b925050602061343885828601612f6c565b9150509250929050565b7f4e487b7100000000000000000000000000000000000000000000000000000000600052602260045260246000fd5b6000600282049050600182168061348957607f821691505b6020821081141561349d5761349c613442565b5b50919050565b7f4552433732313a20617070726f76616c20746f2063757272656e74206f776e6560008201527f7200000000000000000000000000000000000000000000000000000000000000602082015250565b60006134ff602183612e49565b915061350a826134a3565b604082019050919050565b6000602082019050818103600083015261352e816134f2565b9050919050565b7f4552433732313a20617070726f76652063616c6c6572206973206e6f7420746f60008201527f6b656e206f776e6572206e6f7220617070726f76656420666f7220616c6c0000602082015250565b6000613591603e83612e49565b915061359c82613535565b604082019050919050565b600060208201905081810360008301526135c081613584565b9050919050565b7f4552433732313a2063616c6c6572206973206e6f7420746f6b656e206f776e6560008201527f72206e6f7220617070726f766564000000000000000000000000000000000000602082015250565b6000613623602e83612e49565b915061362e826135c7565b604082019050919050565b6000602082019050818103600083015261365281613616565b9050919050565b7f4552433732313a20696e76616c696420746f6b656e2049440000000000000000600082015250565b600061368f601883612e49565b915061369a82613659565b602082019050919050565b600060208201905081810360008301526136be81613682565b9050919050565b7f4552433732313a2061646472657373207a65726f206973206e6f74206120766160008201527f6c6964206f776e65720000000000000000000000000000000000000000000000602082015250565b6000613721602983612e49565b915061372c826136c5565b604082019050919050565b6000602082019050818103600083015261375081613714565b9050919050565b7f746f6b656e4964206d7573742062652065786973740000000000000000000000600082015250565b600061378d601583612e49565b915061379882613757565b602082019050919050565b600060208201905081810360008301526137bc81613780565b9050919050565b600081905092915050565b7f3c73766720786d6c6e733d22687474703a2f2f7777772e77332e6f72672f323060008201527f30302f73766722207072657365727665417370656374526174696f3d22784d6960208201527f6e594d696e206d656574222076696577426f783d22302030203332302033323060408201527f223e000000000000000000000000000000000000000000000000000000000000606082015250565b60006138766062836137c3565b9150613881826137ce565b606282019050919050565b7f3c7374796c653e2e62617365207b2066696c6c3a2077686974653b20666f6e7460008201527f2d66616d696c793a2073657269663b20666f6e742d73697a653a20313470783b60208201527f7d3c2f7374796c653e0000000000000000000000000000000000000000000000604082015250565b600061390e6049836137c3565b91506139198261388c565b604982019050919050565b7f3c646566733e3c66696c7465722069643d2266223e3c6665476175737369616e60008201527f426c757220696e3d22536f75726365477261706869632220737464446576696160208201527f74696f6e3d223322202f3e3c2f66696c7465723e000000000000000000000000604082015250565b60006139a66054836137c3565b91506139b182613924565b605482019050919050565b60006139c782613869565b91506139d282613901565b91506139dd82613999565b9150819050919050565b7f4e487b7100000000000000000000000000000000000000000000000000000000600052603260045260246000fd5b6000613a2182612e3e565b613a2b81856137c3565b9350613a3b818560208601612e5a565b80840191505092915050565b7f3c6c696e6561724772616469656e742069643d22000000000000000000000000600082015250565b6000613a7d6014836137c3565b9150613a8882613a47565b601482019050919050565b7f4c47223e3c73746f70206f66667365743d223025222073746f702d636f6c6f7260008201527f3d22000000000000000000000000000000000000000000000000000000000000602082015250565b6000613aef6022836137c3565b9150613afa82613a93565b602282019050919050565b7f222f3e3c73746f70206f66667365743d2231303025222f3e0000000000000000600082015250565b6000613b3b6018836137c3565b9150613b4682613b05565b601882019050919050565b7f3c2f6c696e6561724772616469656e743e3c636972636c652069643d22000000600082015250565b6000613b87601d836137c3565b9150613b9282613b51565b601d82019050919050565b7f222063783d2230222063793d22302220723d223130222066696c6c3d2275726c60008201527f2823000000000000000000000000000000000000000000000000000000000000602082015250565b6000613bf96022836137c3565b9150613c0482613b9d565b602282019050919050565b7f4c4729222f3e0000000000000000000000000000000000000000000000000000600082015250565b6000613c456006836137c3565b9150613c5082613c0f565b600682019050919050565b6000613c678288613a16565b9150613c7282613a70565b9150613c7e8287613a16565b9150613c8982613ae2565b9150613c958286613a16565b9150613ca082613b2e565b9150613cab82613b7a565b9150613cb78285613a16565b9150613cc282613bec565b9150613cce8284613a16565b9150613cd982613c38565b91508190509695505050505050565b7f4e487b7100000000000000000000000000000000000000000000000000000000600052601160045260246000fd5b6000613d2282612ddb565b91507fffffffffffffffffffffffffffffffffffffffffffffffffffffffffffffffff821415613d5557613d54613ce8565b5b600182019050919050565b7f3c636972636c652069643d2246222063783d2200000000000000000000000000600082015250565b6000613d966013836137c3565b9150613da182613d60565b601382019050919050565b7f222063793d220000000000000000000000000000000000000000000000000000600082015250565b6000613de26006836137c3565b9150613ded82613dac565b600682019050919050565b7f2220723d223231222066696c6c3d2223646464222066696c7465723d2275726c60008201527f28236629222f3e00000000000000000000000000000000000000000000000000602082015250565b6000613e546027836137c3565b9150613e5f82613df8565b602782019050919050565b7f2220723d223134222066696c6c3d2223616161222066696c7465723d2275726c60008201527f28236629222f3e00000000000000000000000000000000000000000000000000602082015250565b6000613ec66027836137c3565b9150613ed182613e6a565b602782019050919050565b6000613ee782613d89565b9150613ef38287613a16565b9150613efe82613dd5565b9150613f0a8286613a16565b9150613f1582613e47565b9150613f2082613d89565b9150613f2c8285613a16565b9150613f3782613dd5565b9150613f438284613a16565b9150613f4e82613eb9565b915081905095945050505050565b7f4e487b7100000000000000000000000000000000000000000000000000000000600052602160045260246000fd5b7f3c75736520687265663d22230000000000000000000000000000000000000000600082015250565b6000613fc1600c836137c3565b9150613fcc82613f8b565b600c82019050919050565b7f2220783d22000000000000000000000000000000000000000000000000000000600082015250565b600061400d6005836137c3565b915061401882613fd7565b600582019050919050565b7f2220793d22000000000000000000000000000000000000000000000000000000600082015250565b60006140596005836137c3565b915061406482614023565b600582019050919050565b7f222f3e0000000000000000000000000000000000000000000000000000000000600082015250565b60006140a56003836137c3565b91506140b08261406f565b600382019050919050565b60006140c78287613a16565b91506140d282613fb4565b91506140de8286613a16565b91506140e982614000565b91506140f58285613a16565b91506141008261404c565b915061410c8284613a16565b915061411782614098565b915081905095945050505050565b7f3c7465787420783d2233302220793d2232352220636c6173733d22626173652260008201527f3e4e4654204e6577732043657274696669636174696f6e202337363c2f74657860208201527f743e000000000000000000000000000000000000000000000000000000000000604082015250565b60006141a76042836137c3565b91506141b282614125565b604282019050919050565b7f3c7465787420783d2233302220793d2234352220636c6173733d22626173652260008201527f3e49443a20000000000000000000000000000000000000000000000000000000602082015250565b60006142196025836137c3565b9150614224826141bd565b602582019050919050565b7f3c2f746578743e3c7465787420783d2233302220793d2236352220636c61737360008201527f3d2262617365223e204d696e7465723a20000000000000000000000000000000602082015250565b600061428b6031836137c3565b91506142968261422f565b603182019050919050565b60008190508160005260206000209050919050565b600081546142c381613471565b6142cd81866137c3565b945060018216600081146142e857600181146142f95761432c565b60ff1983168652818601935061432c565b614302856142a1565b60005b8381101561432457815481890152600182019150602081019050614305565b838801955050505b50505092915050565b7f3c2f746578743e3c2f7376673e00000000000000000000000000000000000000600082015250565b600061436b600d836137c3565b915061437682614335565b600d82019050919050565b600061438c8261419a565b91506143978261420c565b91506143a38285613a16565b91506143ae8261427e565b91506143ba82846142b6565b91506143c58261435e565b91508190509392505050565b60006143dd8289613a16565b91506143e98288613a16565b91506143f58287613a16565b91506144018286613a16565b915061440d8285613a16565b91506144198284613a16565b9150819050979650505050505050565b7f7b226e616d65223a20224e46544e65777343657274696669636174696f6e2023600082015250565b600061445f6020836137c3565b915061446a82614429565b602082019050919050565b7f222c226465736372697074696f6e223a20224e4654204e65777320526561646960008201527f6e672043657274696669636174696f6e2e222c00000000000000000000000000602082015250565b60006144d16033836137c3565b91506144dc82614475565b603382019050919050565b7f2261747472696275746573223a205b7b2274726169745f74797065223a22436f60008201527f6c6f72222c2276616c7565223a22000000000000000000000000000000000000602082015250565b6000614543602e836137c3565b915061454e826144e7565b602e82019050919050565b7f227d5d2c00000000000000000000000000000000000000000000000000000000600082015250565b600061458f6004836137c3565b915061459a82614559565b600482019050919050565b7f22696d616765223a2022646174613a696d6167652f7376672b786d6c3b62617360008201527f6536342c00000000000000000000000000000000000000000000000000000000602082015250565b60006146016024836137c3565b915061460c826145a5565b602482019050919050565b600061462282614452565b915061462e8285613a16565b9150614639826144c4565b915061464482614536565b915061465082846142b6565b915061465b82614582565b9150614666826145f4565b91508190509392505050565b7f227d000000000000000000000000000000000000000000000000000000000000600082015250565b60006146a86002836137c3565b91506146b382614672565b600282019050919050565b60006146ca8285613a16565b91506146d68284613a16565b91506146e18261469b565b91508190509392505050565b7f646174613a6170706c69636174696f6e2f6a736f6e3b6261736536342c000000600082015250565b6000614723601d836137c3565b915061472e826146ed565b601d82019050919050565b600061474482614716565b91506147508284613a16565b915081905092915050565b7f4f6e6c79206f776e65722063616e20736574207369676e617475726500000000600082015250565b6000614791601c83612e49565b915061479c8261475b565b602082019050919050565b600060208201905081810360008301526147c081614784565b9050919050565b7f4f776e61626c653a206e6577206f776e657220697320746865207a65726f206160008201527f6464726573730000000000000000000000000000000000000000000000000000602082015250565b6000614823602683612e49565b915061482e826147c7565b604082019050919050565b6000602082019050818103600083015261485281614816565b9050919050565b7f4f776e61626c653a2063616c6c6572206973206e6f7420746865206f776e6572600082015250565b600061488f602083612e49565b915061489a82614859565b602082019050919050565b600060208201905081810360008301526148be81614882565b9050919050565b7f4552433732313a207472616e736665722066726f6d20696e636f72726563742060008201527f6f776e6572000000000000000000000000000000000000000000000000000000602082015250565b6000614921602583612e49565b915061492c826148c5565b604082019050919050565b6000602082019050818103600083015261495081614914565b9050919050565b7f4552433732313a207472616e7366657220746f20746865207a65726f2061646460008201527f7265737300000000000000000000000000000000000000000000000000000000602082015250565b60006149b3602483612e49565b91506149be82614957565b604082019050919050565b600060208201905081810360008301526149e2816149a6565b9050919050565b60006149f482612ddb565b91506149ff83612ddb565b925082821015614a1257614a11613ce8565b5b828203905092915050565b6000614a2882612ddb565b9150614a3383612ddb565b9250827fffffffffffffffffffffffffffffffffffffffffffffffffffffffffffffffff03821115614a6857614a67613ce8565b5b828201905092915050565b7f416464726573733a20696e73756666696369656e742062616c616e6365000000600082015250565b6000614aa9601d83612e49565b9150614ab482614a73565b602082019050919050565b60006020820190508181036000830152614ad881614a9c565b9050919050565b600081905092915050565b50565b6000614afa600083614adf565b9150614b0582614aea565b600082019050919050565b6000614b1b82614aed565b9150819050919050565b7f416464726573733a20756e61626c6520746f2073656e642076616c75652c207260008201527f6563697069656e74206d61792068617665207265766572746564000000000000602082015250565b6000614b81603a83612e49565b9150614b8c82614b25565b604082019050919050565b60006020820190508181036000830152614bb081614b74565b9050919050565b6000614bc382856142b6565b9150614bcf8284613a16565b91508190509392505050565b7f4d696e74696e672077696e646f77206973206e6f74206f70656e000000000000600082015250565b6000614c11601a83612e49565b9150614c1c82614bdb565b602082019050919050565b60006020820190508181036000830152614c4081614c04565b9050919050565b7f546f6b656e20616d6f756e742069732066756c6c290000000000000000000000600082015250565b6000614c7d601583612e49565b9150614c8882614c47565b602082019050919050565b60006020820190508181036000830152614cac81614c70565b9050919050565b7f596f752072656163686564206d696e74206c696d697400000000000000000000600082015250565b6000614ce9601683612e49565b9150614cf482614cb3565b602082019050919050565b60006020820190508181036000830152614d1881614cdc565b9050919050565b7f45746865722076616c7565206973206e6f7420636f7272656374000000000000600082015250565b6000614d55601a83612e49565b9150614d6082614d1f565b602082019050919050565b60006020820190508181036000830152614d8481614d48565b9050919050565b7f756e61636365707461626c650000000000000000000000000000000000000000600082015250565b6000614dc1600c83612e49565b9150614dcc82614d8b565b602082019050919050565b60006020820190508181036000830152614df081614db4565b9050919050565b6000614e0382846142b6565b915081905092915050565b7f4552433732313a20617070726f766520746f2063616c6c657200000000000000600082015250565b6000614e44601983612e49565b9150614e4f82614e0e565b602082019050919050565b60006020820190508181036000830152614e7381614e37565b9050919050565b7f4552433732313a207472616e7366657220746f206e6f6e20455243373231526560008201527f63656976657220696d706c656d656e7465720000000000000000000000000000602082015250565b6000614ed6603283612e49565b9150614ee182614e7a565b604082019050919050565b60006020820190508181036000830152614f0581614ec9565b9050919050565b7f4e487b7100000000000000000000000000000000000000000000000000000000600052601260045260246000fd5b6000614f4682612ddb565b9150614f5183612ddb565b925082614f6157614f60614f0c565b5b828206905092915050565b6000614f7782612ddb565b9150614f8283612ddb565b9250817fffffffffffffffffffffffffffffffffffffffffffffffffffffffffffffffff0483118215151615614fbb57614fba613ce8565b5b828202905092915050565b6000614fd182612ddb565b9150614fdc83612ddb565b925082614fec57614feb614f0c565b5b828204905092915050565b600081519050919050565b600082825260208201905092915050565b600061501e82614ff7565b6150288185615002565b9350615038818560208601612e5a565b61504181612e8d565b840191505092915050565b60006080820190506150616000830187612f2b565b61506e6020830186612f2b565b61507b604083018561306d565b818103606083015261508d8184615013565b905095945050505050565b6000815190506150a781612d4c565b92915050565b6000602082840312156150c3576150c2612d16565b5b60006150d184828501615098565b91505092915050565b7f4552433732313a206d696e7420746f20746865207a65726f2061646472657373600082015250565b6000615110602083612e49565b915061511b826150da565b602082019050919050565b6000602082019050818103600083015261513f81615103565b9050919050565b7f4552433732313a20746f6b656e20616c7265616479206d696e74656400000000600082015250565b600061517c601c83612e49565b915061518782615146565b602082019050919050565b600060208201905081810360008301526151ab8161516f565b905091905056fe4142434445464748494a4b4c4d4e4f505152535455565758595a6162636465666768696a6b6c6d6e6f707172737475767778797a303132333435363738392b2f3c2f646566733e3c726563742077696474683d223130302522206865696768743d2231303025222066696c6c3d2223323232222072783d223135222072793d223135222f3ea2646970667358221220ddf0cd589fd83cd81cb87174e5fc141c4e05968fb3e1356e492ea0e480a0cfdb64736f6c63430008090033",
  "linkReferences": {},
  "deployedLinkReferences": {}
}