{
  "_format": "hh-sol-artifact-1",
  "contractName": "NFTNewsCert",
  "sourceName": "contracts/NFTNewsCert.sol",
  "abi": [
    {
      "inputs": [
        {
          "internalType": "string",
          "name": "_name",
          "type": "string"
        },
        {
          "internalType": "string",
          "name": "_symbol",
          "type": "string"
        }
      ],
      "stateMutability": "nonpayable",
      "type": "constructor"
    },
    {
      "anonymous": false,
      "inputs": [
        {
          "indexed": true,
          "internalType": "address",
          "name": "owner",
          "type": "address"
        },
        {
          "indexed": true,
          "internalType": "address",
          "name": "approved",
          "type": "address"
        },
        {
          "indexed": true,
          "internalType": "uint256",
          "name": "tokenId",
          "type": "uint256"
        }
      ],
      "name": "Approval",
      "type": "event"
    },
    {
      "anonymous": false,
      "inputs": [
        {
          "indexed": true,
          "internalType": "address",
          "name": "owner",
          "type": "address"
        },
        {
          "indexed": true,
          "internalType": "address",
          "name": "operator",
          "type": "address"
        },
        {
          "indexed": false,
          "internalType": "bool",
          "name": "approved",
          "type": "bool"
        }
      ],
      "name": "ApprovalForAll",
      "type": "event"
    },
    {
      "anonymous": false,
      "inputs": [
        {
          "indexed": true,
          "internalType": "address",
          "name": "minter",
          "type": "address"
        },
        {
          "indexed": true,
          "internalType": "string",
          "name": "color",
          "type": "string"
        },
        {
          "indexed": false,
          "internalType": "string",
          "name": "signature",
          "type": "string"
        }
      ],
      "name": "Mint",
      "type": "event"
    },
    {
      "anonymous": false,
      "inputs": [
        {
          "indexed": true,
          "internalType": "address",
          "name": "previousOwner",
          "type": "address"
        },
        {
          "indexed": true,
          "internalType": "address",
          "name": "newOwner",
          "type": "address"
        }
      ],
      "name": "OwnershipTransferred",
      "type": "event"
    },
    {
      "anonymous": false,
      "inputs": [
        {
          "indexed": true,
          "internalType": "address",
          "name": "from",
          "type": "address"
        },
        {
          "indexed": true,
          "internalType": "address",
          "name": "to",
          "type": "address"
        },
        {
          "indexed": true,
          "internalType": "uint256",
          "name": "tokenId",
          "type": "uint256"
        }
      ],
      "name": "Transfer",
      "type": "event"
    },
    {
      "inputs": [
        {
          "internalType": "address",
          "name": "to",
          "type": "address"
        },
        {
          "internalType": "uint256",
          "name": "tokenId",
          "type": "uint256"
        }
      ],
      "name": "approve",
      "outputs": [],
      "stateMutability": "nonpayable",
      "type": "function"
    },
    {
      "inputs": [
        {
          "internalType": "address",
          "name": "owner",
          "type": "address"
        }
      ],
      "name": "balanceOf",
      "outputs": [
        {
          "internalType": "uint256",
          "name": "",
          "type": "uint256"
        }
      ],
      "stateMutability": "view",
      "type": "function"
    },
    {
      "inputs": [
        {
          "internalType": "uint256",
          "name": "tokenId",
          "type": "uint256"
        }
      ],
      "name": "getApproved",
      "outputs": [
        {
          "internalType": "address",
          "name": "",
          "type": "address"
        }
      ],
      "stateMutability": "view",
      "type": "function"
    },
    {
      "inputs": [],
      "name": "getLimit",
      "outputs": [
        {
          "internalType": "uint256",
          "name": "",
          "type": "uint256"
        }
      ],
      "stateMutability": "view",
      "type": "function"
    },
    {
      "inputs": [],
      "name": "getMintStatus",
      "outputs": [
        {
          "internalType": "bool",
          "name": "",
          "type": "bool"
        }
      ],
      "stateMutability": "view",
      "type": "function"
    },
    {
      "inputs": [
        {
          "internalType": "address",
          "name": "_address",
          "type": "address"
        }
      ],
      "name": "getNumberOfAccountMinted",
      "outputs": [
        {
          "internalType": "uint256",
          "name": "",
          "type": "uint256"
        }
      ],
      "stateMutability": "view",
      "type": "function"
    },
    {
      "inputs": [],
      "name": "getNumberOfMinted",
      "outputs": [
        {
          "internalType": "uint256",
          "name": "",
          "type": "uint256"
        }
      ],
      "stateMutability": "view",
      "type": "function"
    },
    {
      "inputs": [
        {
          "internalType": "uint256",
          "name": "_tokenId",
          "type": "uint256"
        }
      ],
      "name": "getSignature",
      "outputs": [
        {
          "internalType": "string",
          "name": "",
          "type": "string"
        }
      ],
      "stateMutability": "view",
      "type": "function"
    },
    {
      "inputs": [
        {
          "internalType": "address",
          "name": "owner",
          "type": "address"
        },
        {
          "internalType": "address",
          "name": "operator",
          "type": "address"
        }
      ],
      "name": "isApprovedForAll",
      "outputs": [
        {
          "internalType": "bool",
          "name": "",
          "type": "bool"
        }
      ],
      "stateMutability": "view",
      "type": "function"
    },
    {
      "inputs": [],
      "name": "isInLimit",
      "outputs": [
        {
          "internalType": "bool",
          "name": "",
          "type": "bool"
        }
      ],
      "stateMutability": "view",
      "type": "function"
    },
    {
      "inputs": [
        {
          "internalType": "string",
          "name": "_color",
          "type": "string"
        },
        {
          "internalType": "string",
          "name": "_signature",
          "type": "string"
        }
      ],
      "name": "isMintableCombination",
      "outputs": [
        {
          "internalType": "bool",
          "name": "",
          "type": "bool"
        }
      ],
      "stateMutability": "view",
      "type": "function"
    },
    {
      "inputs": [
        {
          "internalType": "string",
          "name": "yourName",
          "type": "string"
        }
      ],
      "name": "mintBlue",
      "outputs": [],
      "stateMutability": "payable",
      "type": "function"
    },
    {
      "inputs": [
        {
          "internalType": "string",
          "name": "yourName",
          "type": "string"
        }
      ],
      "name": "mintGreen",
      "outputs": [],
      "stateMutability": "payable",
      "type": "function"
    },
    {
      "inputs": [
        {
          "internalType": "string",
          "name": "yourName",
          "type": "string"
        }
      ],
      "name": "mintPink",
      "outputs": [],
      "stateMutability": "payable",
      "type": "function"
    },
    {
      "inputs": [
        {
          "internalType": "string",
          "name": "yourName",
          "type": "string"
        }
      ],
      "name": "mintRed",
      "outputs": [],
      "stateMutability": "payable",
      "type": "function"
    },
    {
      "inputs": [
        {
          "internalType": "string",
          "name": "yourName",
          "type": "string"
        }
      ],
      "name": "mintWhite",
      "outputs": [],
      "stateMutability": "payable",
      "type": "function"
    },
    {
      "inputs": [
        {
          "internalType": "string",
          "name": "yourName",
          "type": "string"
        }
      ],
      "name": "mintYellow",
      "outputs": [],
      "stateMutability": "payable",
      "type": "function"
    },
    {
      "inputs": [],
      "name": "name",
      "outputs": [
        {
          "internalType": "string",
          "name": "",
          "type": "string"
        }
      ],
      "stateMutability": "view",
      "type": "function"
    },
    {
      "inputs": [],
      "name": "owner",
      "outputs": [
        {
          "internalType": "address",
          "name": "",
          "type": "address"
        }
      ],
      "stateMutability": "view",
      "type": "function"
    },
    {
      "inputs": [
        {
          "internalType": "uint256",
          "name": "tokenId",
          "type": "uint256"
        }
      ],
      "name": "ownerOf",
      "outputs": [
        {
          "internalType": "address",
          "name": "",
          "type": "address"
        }
      ],
      "stateMutability": "view",
      "type": "function"
    },
    {
      "inputs": [],
      "name": "renounceOwnership",
      "outputs": [],
      "stateMutability": "nonpayable",
      "type": "function"
    },
    {
      "inputs": [
        {
          "internalType": "address",
          "name": "from",
          "type": "address"
        },
        {
          "internalType": "address",
          "name": "to",
          "type": "address"
        },
        {
          "internalType": "uint256",
          "name": "tokenId",
          "type": "uint256"
        }
      ],
      "name": "safeTransferFrom",
      "outputs": [],
      "stateMutability": "nonpayable",
      "type": "function"
    },
    {
      "inputs": [
        {
          "internalType": "address",
          "name": "from",
          "type": "address"
        },
        {
          "internalType": "address",
          "name": "to",
          "type": "address"
        },
        {
          "internalType": "uint256",
          "name": "tokenId",
          "type": "uint256"
        },
        {
          "internalType": "bytes",
          "name": "data",
          "type": "bytes"
        }
      ],
      "name": "safeTransferFrom",
      "outputs": [],
      "stateMutability": "nonpayable",
      "type": "function"
    },
    {
      "inputs": [
        {
          "internalType": "address",
          "name": "operator",
          "type": "address"
        },
        {
          "internalType": "bool",
          "name": "approved",
          "type": "bool"
        }
      ],
      "name": "setApprovalForAll",
      "outputs": [],
      "stateMutability": "nonpayable",
      "type": "function"
    },
    {
      "inputs": [
        {
          "internalType": "uint256",
          "name": "_limit",
          "type": "uint256"
        }
      ],
      "name": "setLimit",
      "outputs": [],
      "stateMutability": "nonpayable",
      "type": "function"
    },
    {
      "inputs": [
        {
          "internalType": "bool",
          "name": "_sw",
          "type": "bool"
        }
      ],
      "name": "setMintStatus",
      "outputs": [],
      "stateMutability": "nonpayable",
      "type": "function"
    },
    {
      "inputs": [
        {
          "internalType": "uint256",
          "name": "_tokenId",
          "type": "uint256"
        },
        {
          "internalType": "string",
          "name": "_signature",
          "type": "string"
        }
      ],
      "name": "setSignature",
      "outputs": [],
      "stateMutability": "nonpayable",
      "type": "function"
    },
    {
      "inputs": [
        {
          "internalType": "bytes4",
          "name": "interfaceId",
          "type": "bytes4"
        }
      ],
      "name": "supportsInterface",
      "outputs": [
        {
          "internalType": "bool",
          "name": "",
          "type": "bool"
        }
      ],
      "stateMutability": "view",
      "type": "function"
    },
    {
      "inputs": [],
      "name": "symbol",
      "outputs": [
        {
          "internalType": "string",
          "name": "",
          "type": "string"
        }
      ],
      "stateMutability": "view",
      "type": "function"
    },
    {
      "inputs": [
        {
          "internalType": "uint256",
          "name": "_tokenId",
          "type": "uint256"
        }
      ],
      "name": "tokenURI",
      "outputs": [
        {
          "internalType": "string",
          "name": "",
          "type": "string"
        }
      ],
      "stateMutability": "view",
      "type": "function"
    },
    {
      "inputs": [
        {
          "internalType": "address",
          "name": "from",
          "type": "address"
        },
        {
          "internalType": "address",
          "name": "to",
          "type": "address"
        },
        {
          "internalType": "uint256",
          "name": "tokenId",
          "type": "uint256"
        }
      ],
      "name": "transferFrom",
      "outputs": [],
      "stateMutability": "nonpayable",
      "type": "function"
    },
    {
      "inputs": [
        {
          "internalType": "address",
          "name": "newOwner",
          "type": "address"
        }
      ],
      "name": "transferOwnership",
      "outputs": [],
      "stateMutability": "nonpayable",
      "type": "function"
    },
    {
      "inputs": [],
      "name": "withdraw",
      "outputs": [],
      "stateMutability": "nonpayable",
      "type": "function"
    }
  ],
  "bytecode": "0x608060405260006007556000600860006101000a81548160ff02191690831515021790555060646009556001600a55660aa87bee538000600b553480156200004657600080fd5b5060405162005fce38038062005fce83398181016040528101906200006c919062000a37565b818181600090805190602001906200008692919062000715565b5080600190805190602001906200009f92919062000715565b505050620000c2620000b66200064760201b60201c565b6200064f60201b60201c565b6040518060400160405280600581526020017f626c61636b000000000000000000000000000000000000000000000000000000815250600d600080600681111562000112576200011162000abc565b5b600681111562000127576200012662000abc565b5b815260200190815260200160002090805190602001906200014a92919062000715565b506040518060400160405280600381526020017f7265640000000000000000000000000000000000000000000000000000000000815250600d6000600160068111156200019c576200019b62000abc565b5b6006811115620001b157620001b062000abc565b5b81526020019081526020016000209080519060200190620001d492919062000715565b506040518060400160405280600481526020017f626c756500000000000000000000000000000000000000000000000000000000815250600d60006002600681111562000226576200022562000abc565b5b60068111156200023b576200023a62000abc565b5b815260200190815260200160002090805190602001906200025e92919062000715565b506040518060400160405280600581526020017f677265656e000000000000000000000000000000000000000000000000000000815250600d600060036006811115620002b057620002af62000abc565b5b6006811115620002c557620002c462000abc565b5b81526020019081526020016000209080519060200190620002e892919062000715565b506040518060400160405280600681526020017f79656c6c6f770000000000000000000000000000000000000000000000000000815250600d6000600460068111156200033a576200033962000abc565b5b60068111156200034f576200034e62000abc565b5b815260200190815260200160002090805190602001906200037292919062000715565b506040518060400160405280600581526020017f7768697465000000000000000000000000000000000000000000000000000000815250600d600060056006811115620003c457620003c362000abc565b5b6006811115620003d957620003d862000abc565b5b81526020019081526020016000209080519060200190620003fc92919062000715565b506040518060400160405280600481526020017f70696e6b00000000000000000000000000000000000000000000000000000000815250600d60006006808111156200044d576200044c62000abc565b5b600681111562000462576200046162000abc565b5b815260200190815260200160002090805190602001906200048592919062000715565b506040518060e001604052806040518060400160405280600581526020017f626c61636b00000000000000000000000000000000000000000000000000000081525081526020016040518060400160405280600381526020017f726564000000000000000000000000000000000000000000000000000000000081525081526020016040518060400160405280600481526020017f626c75650000000000000000000000000000000000000000000000000000000081525081526020016040518060400160405280600581526020017f677265656e00000000000000000000000000000000000000000000000000000081525081526020016040518060400160405280600681526020017f79656c6c6f77000000000000000000000000000000000000000000000000000081525081526020016040518060400160405280600581526020017f776869746500000000000000000000000000000000000000000000000000000081525081526020016040518060400160405280600481526020017f70696e6b00000000000000000000000000000000000000000000000000000000815250815250600c9060076200063e929190620007a6565b50505062000b50565b600033905090565b6000600660009054906101000a900473ffffffffffffffffffffffffffffffffffffffff16905081600660006101000a81548173ffffffffffffffffffffffffffffffffffffffff021916908373ffffffffffffffffffffffffffffffffffffffff1602179055508173ffffffffffffffffffffffffffffffffffffffff168173ffffffffffffffffffffffffffffffffffffffff167f8be0079c531659141344cd1fd0a4f28419497f9722a3daafe3b4186f6b6457e060405160405180910390a35050565b828054620007239062000b1a565b90600052602060002090601f01602090048101928262000747576000855562000793565b82601f106200076257805160ff191683800117855562000793565b8280016001018555821562000793579182015b828111156200079257825182559160200191906001019062000775565b5b509050620007a291906200080d565b5090565b828054828255906000526020600020908101928215620007fa579160200282015b82811115620007f9578251829080519060200190620007e892919062000715565b5091602001919060010190620007c7565b5b5090506200080991906200082c565b5090565b5b80821115620008285760008160009055506001016200080e565b5090565b5b8082111562000850576000818162000846919062000854565b506001016200082d565b5090565b508054620008629062000b1a565b6000825580601f1062000876575062000897565b601f0160209004906000526020600020908101906200089691906200080d565b5b50565b6000604051905090565b600080fd5b600080fd5b600080fd5b600080fd5b6000601f19601f8301169050919050565b7f4e487b7100000000000000000000000000000000000000000000000000000000600052604160045260246000fd5b6200090382620008b8565b810181811067ffffffffffffffff82111715620009255762000924620008c9565b5b80604052505050565b60006200093a6200089a565b9050620009488282620008f8565b919050565b600067ffffffffffffffff8211156200096b576200096a620008c9565b5b6200097682620008b8565b9050602081019050919050565b60005b83811015620009a357808201518184015260208101905062000986565b83811115620009b3576000848401525b50505050565b6000620009d0620009ca846200094d565b6200092e565b905082815260208101848484011115620009ef57620009ee620008b3565b5b620009fc84828562000983565b509392505050565b600082601f83011262000a1c5762000a1b620008ae565b5b815162000a2e848260208601620009b9565b91505092915050565b6000806040838503121562000a515762000a50620008a4565b5b600083015167ffffffffffffffff81111562000a725762000a71620008a9565b5b62000a808582860162000a04565b925050602083015167ffffffffffffffff81111562000aa45762000aa3620008a9565b5b62000ab28582860162000a04565b9150509250929050565b7f4e487b7100000000000000000000000000000000000000000000000000000000600052602160045260246000fd5b7f4e487b7100000000000000000000000000000000000000000000000000000000600052602260045260246000fd5b6000600282049050600182168062000b3357607f821691505b6020821081141562000b4a5762000b4962000aeb565b5b50919050565b61546e8062000b606000396000f3fe6080604052600436106101ee5760003560e01c80638da5cb5b1161010d578063be4603c3116100a0578063dcdeb9bd1161006f578063dcdeb9bd146106a4578063e93d40cf146106cd578063e985e9c51461070a578063f2fde38b14610747578063f69b852614610770576101ee565b8063be4603c314610613578063c6ae94751461062f578063c87b56dd1461064b578063cdefbb1214610688576101ee565b8063a22cb465116100dc578063a22cb46514610559578063b0255fc614610582578063b295a00e146105bf578063b88d4fde146105ea576101ee565b80638da5cb5b146104ad578063929761c5146104d8578063941ada0e1461050357806395d89b411461052e576101ee565b80633ccfd60b1161018557806359e5fad61161015457806359e5fad6146104005780636352211e1461041c57806370a0823114610459578063715018a614610496576101ee565b80633ccfd60b14610379578063424294e41461039057806342842e0e146103bb5780634d79957b146103e4576101ee565b8063095ea7b3116101c1578063095ea7b3146102d55780631f85e3ca146102fe57806323b872dd1461032757806327ea6f2b14610350576101ee565b806301ffc9a7146101f357806302a569e61461023057806306fdde031461026d578063081812fc14610298575b600080fd5b3480156101ff57600080fd5b5061021a60048036038101906102159190612edd565b61078c565b6040516102279190612f25565b60405180910390f35b34801561023c57600080fd5b5061025760048036038101906102529190612f76565b61086e565b604051610264919061303c565b60405180910390f35b34801561027957600080fd5b50610282610913565b60405161028f919061303c565b60405180910390f35b3480156102a457600080fd5b506102bf60048036038101906102ba9190612f76565b6109a5565b6040516102cc919061309f565b60405180910390f35b3480156102e157600080fd5b506102fc60048036038101906102f791906130e6565b6109eb565b005b34801561030a57600080fd5b5061032560048036038101906103209190613152565b610b03565b005b34801561033357600080fd5b5061034e6004803603810190610349919061317f565b610b28565b005b34801561035c57600080fd5b5061037760048036038101906103729190612f76565b610b88565b005b34801561038557600080fd5b5061038e610b9a565b005b34801561039c57600080fd5b506103a5610bc5565b6040516103b291906131e1565b60405180910390f35b3480156103c757600080fd5b506103e260048036038101906103dd919061317f565b610bcf565b005b6103fe60048036038101906103f99190613331565b610bef565b005b61041a60048036038101906104159190613331565b610bfd565b005b34801561042857600080fd5b50610443600480360381019061043e9190612f76565b610c0b565b604051610450919061309f565b60405180910390f35b34801561046557600080fd5b50610480600480360381019061047b919061337a565b610cbd565b60405161048d91906131e1565b60405180910390f35b3480156104a257600080fd5b506104ab610d75565b005b3480156104b957600080fd5b506104c2610d89565b6040516104cf919061309f565b60405180910390f35b3480156104e457600080fd5b506104ed610db3565b6040516104fa9190612f25565b60405180910390f35b34801561050f57600080fd5b50610518610e3b565b6040516105259190612f25565b60405180910390f35b34801561053a57600080fd5b50610543610e52565b604051610550919061303c565b60405180910390f35b34801561056557600080fd5b50610580600480360381019061057b91906133a7565b610ee4565b005b34801561058e57600080fd5b506105a960048036038101906105a491906133e7565b610efa565b6040516105b69190612f25565b60405180910390f35b3480156105cb57600080fd5b506105d4610f59565b6040516105e191906131e1565b60405180910390f35b3480156105f657600080fd5b50610611600480360381019061060c9190613500565b610f63565b005b61062d60048036038101906106289190613331565b610fc5565b005b61064960048036038101906106449190613331565b610fd3565b005b34801561065757600080fd5b50610672600480360381019061066d9190612f76565b610fe1565b60405161067f919061303c565b60405180910390f35b6106a2600480360381019061069d9190613331565b61161e565b005b3480156106b057600080fd5b506106cb60048036038101906106c69190613583565b61162c565b005b3480156106d957600080fd5b506106f460048036038101906106ef919061337a565b6116ce565b60405161070191906131e1565b60405180910390f35b34801561071657600080fd5b50610731600480360381019061072c91906135df565b611717565b60405161073e9190612f25565b60405180910390f35b34801561075357600080fd5b5061076e6004803603810190610769919061337a565b6117ab565b005b61078a60048036038101906107859190613331565b61182f565b005b60007f80ac58cd000000000000000000000000000000000000000000000000000000007bffffffffffffffffffffffffffffffffffffffffffffffffffffffff1916827bffffffffffffffffffffffffffffffffffffffffffffffffffffffff1916148061085757507f5b5e139f000000000000000000000000000000000000000000000000000000007bffffffffffffffffffffffffffffffffffffffffffffffffffffffff1916827bffffffffffffffffffffffffffffffffffffffffffffffffffffffff1916145b8061086757506108668261183d565b5b9050919050565b6060600f6000838152602001908152602001600020805461088e9061364e565b80601f01602080910402602001604051908101604052809291908181526020018280546108ba9061364e565b80156109075780601f106108dc57610100808354040283529160200191610907565b820191906000526020600020905b8154815290600101906020018083116108ea57829003601f168201915b50505050509050919050565b6060600080546109229061364e565b80601f016020809104026020016040519081016040528092919081815260200182805461094e9061364e565b801561099b5780601f106109705761010080835404028352916020019161099b565b820191906000526020600020905b81548152906001019060200180831161097e57829003601f168201915b5050505050905090565b60006109b0826118a7565b6004600083815260200190815260200160002060009054906101000a900473ffffffffffffffffffffffffffffffffffffffff169050919050565b60006109f682610c0b565b90508073ffffffffffffffffffffffffffffffffffffffff168373ffffffffffffffffffffffffffffffffffffffff161415610a67576040517f08c379a0000000000000000000000000000000000000000000000000000000008152600401610a5e906136f2565b60405180910390fd5b8073ffffffffffffffffffffffffffffffffffffffff16610a866118f2565b73ffffffffffffffffffffffffffffffffffffffff161480610ab55750610ab481610aaf6118f2565b611717565b5b610af4576040517f08c379a0000000000000000000000000000000000000000000000000000000008152600401610aeb90613784565b60405180910390fd5b610afe83836118fa565b505050565b610b0b6119b3565b80600860006101000a81548160ff02191690831515021790555050565b610b39610b336118f2565b82611a31565b610b78576040517f08c379a0000000000000000000000000000000000000000000000000000000008152600401610b6f90613816565b60405180910390fd5b610b83838383611ac6565b505050565b610b906119b3565b80600a8190555050565b610ba26119b3565b60004790506000811115610bc257610bc1610bbb610d89565b82611d2d565b5b50565b6000600754905090565b610bea83838360405180602001604052806000815250610f63565b505050565b610bfa600482611e21565b50565b610c08600282611e21565b50565b6000806002600084815260200190815260200160002060009054906101000a900473ffffffffffffffffffffffffffffffffffffffff169050600073ffffffffffffffffffffffffffffffffffffffff168173ffffffffffffffffffffffffffffffffffffffff161415610cb4576040517f08c379a0000000000000000000000000000000000000000000000000000000008152600401610cab90613882565b60405180910390fd5b80915050919050565b60008073ffffffffffffffffffffffffffffffffffffffff168273ffffffffffffffffffffffffffffffffffffffff161415610d2e576040517f08c379a0000000000000000000000000000000000000000000000000000000008152600401610d2590613914565b60405180910390fd5b600360008373ffffffffffffffffffffffffffffffffffffffff1673ffffffffffffffffffffffffffffffffffffffff168152602001908152602001600020549050919050565b610d7d6119b3565b610d876000612276565b565b6000600660009054906101000a900473ffffffffffffffffffffffffffffffffffffffff16905090565b6000600a54601060003373ffffffffffffffffffffffffffffffffffffffff1673ffffffffffffffffffffffffffffffffffffffff168152602001908152602001600020541080610e365750610e07610d89565b73ffffffffffffffffffffffffffffffffffffffff163373ffffffffffffffffffffffffffffffffffffffff16145b905090565b6000600860009054906101000a900460ff16905090565b606060018054610e619061364e565b80601f0160208091040260200160405190810160405280929190818152602001828054610e8d9061364e565b8015610eda5780601f10610eaf57610100808354040283529160200191610eda565b820191906000526020600020905b815481529060010190602001808311610ebd57829003601f168201915b5050505050905090565b610ef6610eef6118f2565b838361233c565b5050565b6000808383604051602001610f10929190613970565b604051602081830303815290604052805190602001209050600015156011600083815260200190815260200160002060009054906101000a900460ff1615151491505092915050565b6000600a54905090565b610f74610f6e6118f2565b83611a31565b610fb3576040517f08c379a0000000000000000000000000000000000000000000000000000000008152600401610faa90613816565b60405180910390fd5b610fbf848484846124a9565b50505050565b610fd0600582611e21565b50565b610fde600182611e21565b50565b6060610fec82612505565b61102b576040517f08c379a0000000000000000000000000000000000000000000000000000000008152600401611022906139e0565b60405180910390fd5b611033612da7565b60405160200161104290613bee565b6040516020818303038152906040528160006006811061106557611064613c19565b5b602002018190525060005b600c80549050811015611198576000600c828154811061109357611092613c19565b5b9060005260206000200180546110a89061364e565b80601f01602080910402602001604051908101604052809291908181526020018280546110d49061364e565b80156111215780601f106110f657610100808354040283529160200191611121565b820191906000526020600020905b81548152906001019060200180831161110457829003601f168201915b505050505090508260016006811061113c5761113b613c19565b5b602002015181828384604051602001611159959493929190613e5c565b6040516020818303038152906040528360016006811061117c5761117b613c19565b5b602002018190525050808061119090613f18565b915050611070565b506040518060800160405280604581526020016153f460459139816002600681106111c6576111c5613c19565b5b602002018190525060006111e16111dc85612576565b6125c8565b905060006111f66111f186612729565b6125c8565b90508181838360405160200161120f94939291906140dd565b6040516020818303038152906040528360036006811061123257611231613c19565b5b60200201819052506000600190505b6064811161141a576000600681111561125d5761125c61415d565b5b600e600083815260200190815260200160002060009054906101000a900460ff1660068111156112905761128f61415d565b5b141561129b57611407565b6000600d6000600e600085815260200190815260200160002060009054906101000a900460ff1660068111156112d4576112d361415d565b5b60068111156112e6576112e561415d565b5b815260200190815260200160002080546112ff9061364e565b80601f016020809104026020016040519081016040528092919081815260200182805461132b9061364e565b80156113785780601f1061134d57610100808354040283529160200191611378565b820191906000526020600020905b81548152906001019060200180831161135b57829003601f168201915b50505050509050600061139261138d84612576565b6125c8565b905060006113a76113a285612729565b6125c8565b9050866004600681106113bd576113bc613c19565b5b60200201518383836040516020016113d894939291906142bc565b604051602081830303815290604052876004600681106113fb576113fa613c19565b5b60200201819052505050505b808061141290613f18565b915050611241565b50611424856125c8565b600f6000878152602001908152602001600020604051602001611448929190614582565b6040516020818303038152906040528360056006811061146b5761146a613c19565b5b602002018190525060008360006006811061148957611488613c19565b5b6020020151846001600681106114a2576114a1613c19565b5b6020020151856002600681106114bb576114ba613c19565b5b6020020151866003600681106114d4576114d3613c19565b5b6020020151876004600681106114ed576114ec613c19565b5b60200201518860056006811061150657611505613c19565b5b6020020151604051602001611520969594939291906145d2565b6040516020818303038152906040529050600061153c876125c8565b600d6000600e60008b815260200190815260200160002060009054906101000a900460ff1660068111156115735761157261415d565b5b60068111156115855761158461415d565b5b81526020019081526020016000206040516020016115a4929190614818565b604051602081830303815290604052905060006115e9826115c48561277b565b6040516020016115d59291906148bf565b60405160208183030381529060405261277b565b90506000816040516020016115fe919061493a565b604051602081830303815290604052905080975050505050505050919050565b611629600382611e21565b50565b3373ffffffffffffffffffffffffffffffffffffffff1661164c83610c0b565b73ffffffffffffffffffffffffffffffffffffffff16146116a2576040517f08c379a0000000000000000000000000000000000000000000000000000000008152600401611699906149a8565b60405180910390fd5b80600f600084815260200190815260200160002090805190602001906116c9929190612dce565b505050565b6000601060008373ffffffffffffffffffffffffffffffffffffffff1673ffffffffffffffffffffffffffffffffffffffff168152602001908152602001600020549050919050565b6000600560008473ffffffffffffffffffffffffffffffffffffffff1673ffffffffffffffffffffffffffffffffffffffff16815260200190815260200160002060008373ffffffffffffffffffffffffffffffffffffffff1673ffffffffffffffffffffffffffffffffffffffff16815260200190815260200160002060009054906101000a900460ff16905092915050565b6117b36119b3565b600073ffffffffffffffffffffffffffffffffffffffff168173ffffffffffffffffffffffffffffffffffffffff161415611823576040517f08c379a000000000000000000000000000000000000000000000000000000000815260040161181a90614a3a565b60405180910390fd5b61182c81612276565b50565b61183a600682611e21565b50565b60007f01ffc9a7000000000000000000000000000000000000000000000000000000007bffffffffffffffffffffffffffffffffffffffffffffffffffffffff1916827bffffffffffffffffffffffffffffffffffffffffffffffffffffffff1916149050919050565b6118b0816128f4565b6118ef576040517f08c379a00000000000000000000000000000000000000000000000000000000081526004016118e690613882565b60405180910390fd5b50565b600033905090565b816004600083815260200190815260200160002060006101000a81548173ffffffffffffffffffffffffffffffffffffffff021916908373ffffffffffffffffffffffffffffffffffffffff160217905550808273ffffffffffffffffffffffffffffffffffffffff1661196d83610c0b565b73ffffffffffffffffffffffffffffffffffffffff167f8c5be1e5ebec7d5bd14f71427d1e84f3dd0314c0f7b2291e5b200ac8c7c3b92560405160405180910390a45050565b6119bb6118f2565b73ffffffffffffffffffffffffffffffffffffffff166119d9610d89565b73ffffffffffffffffffffffffffffffffffffffff1614611a2f576040517f08c379a0000000000000000000000000000000000000000000000000000000008152600401611a2690614aa6565b60405180910390fd5b565b600080611a3d83610c0b565b90508073ffffffffffffffffffffffffffffffffffffffff168473ffffffffffffffffffffffffffffffffffffffff161480611a7f5750611a7e8185611717565b5b80611abd57508373ffffffffffffffffffffffffffffffffffffffff16611aa5846109a5565b73ffffffffffffffffffffffffffffffffffffffff16145b91505092915050565b8273ffffffffffffffffffffffffffffffffffffffff16611ae682610c0b565b73ffffffffffffffffffffffffffffffffffffffff1614611b3c576040517f08c379a0000000000000000000000000000000000000000000000000000000008152600401611b3390614b38565b60405180910390fd5b600073ffffffffffffffffffffffffffffffffffffffff168273ffffffffffffffffffffffffffffffffffffffff161415611bac576040517f08c379a0000000000000000000000000000000000000000000000000000000008152600401611ba390614bca565b60405180910390fd5b611bb7838383612960565b611bc26000826118fa565b6001600360008573ffffffffffffffffffffffffffffffffffffffff1673ffffffffffffffffffffffffffffffffffffffff1681526020019081526020016000206000828254611c129190614bea565b925050819055506001600360008473ffffffffffffffffffffffffffffffffffffffff1673ffffffffffffffffffffffffffffffffffffffff1681526020019081526020016000206000828254611c699190614c1e565b92505081905550816002600083815260200190815260200160002060006101000a81548173ffffffffffffffffffffffffffffffffffffffff021916908373ffffffffffffffffffffffffffffffffffffffff160217905550808273ffffffffffffffffffffffffffffffffffffffff168473ffffffffffffffffffffffffffffffffffffffff167fddf252ad1be2c89b69c2b068fc378daa952ba7f163c4a11628f55a4df523b3ef60405160405180910390a4611d28838383612965565b505050565b80471015611d70576040517f08c379a0000000000000000000000000000000000000000000000000000000008152600401611d6790614cc0565b60405180910390fd5b60008273ffffffffffffffffffffffffffffffffffffffff1682604051611d9690614d11565b60006040518083038185875af1925050503d8060008114611dd3576040519150601f19603f3d011682016040523d82523d6000602084013e611dd8565b606091505b5050905080611e1c576040517f08c379a0000000000000000000000000000000000000000000000000000000008152600401611e1390614d98565b60405180910390fd5b505050565b60003390506000600d6000856006811115611e3f57611e3e61415d565b5b6006811115611e5157611e5061415d565b5b815260200190815260200160002083604051602001611e71929190614db8565b604051602081830303815290604052805190602001209050600860009054906101000a900460ff1680611ed65750611ea7610d89565b73ffffffffffffffffffffffffffffffffffffffff163373ffffffffffffffffffffffffffffffffffffffff16145b611f15576040517f08c379a0000000000000000000000000000000000000000000000000000000008152600401611f0c90614e28565b60405180910390fd5b60095460075410611f5b576040517f08c379a0000000000000000000000000000000000000000000000000000000008152600401611f5290614e94565b60405180910390fd5b600a54601060008473ffffffffffffffffffffffffffffffffffffffff1673ffffffffffffffffffffffffffffffffffffffff168152602001908152602001600020541080611fdc5750611fad610d89565b73ffffffffffffffffffffffffffffffffffffffff163373ffffffffffffffffffffffffffffffffffffffff16145b61201b576040517f08c379a000000000000000000000000000000000000000000000000000000000815260040161201290614f00565b60405180910390fd5b34600b541115612060576040517f08c379a000000000000000000000000000000000000000000000000000000000815260040161205790614f6c565b60405180910390fd5b600015156011600083815260200190815260200160002060009054906101000a900460ff161515146120c7576040517f08c379a00000000000000000000000000000000000000000000000000000000081526004016120be90614fd8565b60405180910390fd5b60006120d161296a565b90506120dd8382612980565b83600f60008381526020019081526020016000209080519060200190612104929190612dce565b5084600e600083815260200190815260200160002060006101000a81548160ff0219169083600681111561213b5761213a61415d565b5b0217905550601060008473ffffffffffffffffffffffffffffffffffffffff1673ffffffffffffffffffffffffffffffffffffffff168152602001908152602001600020600081548092919061219090613f18565b919050555060016011600084815260200190815260200160002060006101000a81548160ff0219169083151502179055506121cd33600b54611d2d565b600d60008660068111156121e4576121e361415d565b5b60068111156121f6576121f561415d565b5b81526020019081526020016000206040516122119190614ff8565b60405180910390208373ffffffffffffffffffffffffffffffffffffffff167f35a0e34ee6c196b20f530d94282b96d57c4beda09ba5f603fe1baa387661d3c38660405161225f919061303c565b60405180910390a361226f61299e565b5050505050565b6000600660009054906101000a900473ffffffffffffffffffffffffffffffffffffffff16905081600660006101000a81548173ffffffffffffffffffffffffffffffffffffffff021916908373ffffffffffffffffffffffffffffffffffffffff1602179055508173ffffffffffffffffffffffffffffffffffffffff168173ffffffffffffffffffffffffffffffffffffffff167f8be0079c531659141344cd1fd0a4f28419497f9722a3daafe3b4186f6b6457e060405160405180910390a35050565b8173ffffffffffffffffffffffffffffffffffffffff168373ffffffffffffffffffffffffffffffffffffffff1614156123ab576040517f08c379a00000000000000000000000000000000000000000000000000000000081526004016123a29061505b565b60405180910390fd5b80600560008573ffffffffffffffffffffffffffffffffffffffff1673ffffffffffffffffffffffffffffffffffffffff16815260200190815260200160002060008473ffffffffffffffffffffffffffffffffffffffff1673ffffffffffffffffffffffffffffffffffffffff16815260200190815260200160002060006101000a81548160ff0219169083151502179055508173ffffffffffffffffffffffffffffffffffffffff168373ffffffffffffffffffffffffffffffffffffffff167f17307eab39ab6107e8899845ad3d59bd9653f200f220920489ca2b5937696c318360405161249c9190612f25565b60405180910390a3505050565b6124b4848484611ac6565b6124c0848484846129b8565b6124ff576040517f08c379a00000000000000000000000000000000000000000000000000000000081526004016124f6906150ed565b60405180910390fd5b50505050565b60006001821080612517575081600754105b156125255760009050612571565b600060068111156125395761253861415d565b5b600e600084815260200190815260200160002060009054906101000a900460ff16600681111561256c5761256b61415d565b5b141590505b919050565b6000600a601e600c6018600a60018761258f9190614bea565b612599919061513c565b6125a3919061516d565b6125ad9190614c1e565b6125b79190614c1e565b6125c19190614c1e565b9050919050565b60606000821415612610576040518060400160405280600181526020017f30000000000000000000000000000000000000000000000000000000000000008152509050612724565b600082905060005b6000821461264257808061262b90613f18565b915050600a8261263b91906151c7565b9150612618565b60008167ffffffffffffffff81111561265e5761265d613206565b5b6040519080825280601f01601f1916602001820160405280156126905781602001600182028036833780820191505090505b5090505b6000851461271d576001826126a99190614bea565b9150600a856126b8919061513c565b60306126c49190614c1e565b60f81b8183815181106126da576126d9613c19565b5b60200101907effffffffffffffffffffffffffffffffffffffffffffffffffffffffffffff1916908160001a905350600a8561271691906151c7565b9450612694565b8093505050505b919050565b6000600a603c600c6018600a6001876127429190614bea565b61274c91906151c7565b612756919061516d565b6127609190614c1e565b61276a9190614c1e565b6127749190614c1e565b9050919050565b606060008251141561279e576040518060200160405280600081525090506128ef565b60006040518060600160405280604081526020016153b460409139905060006003600285516127cd9190614c1e565b6127d791906151c7565b60046127e3919061516d565b905060006020826127f49190614c1e565b67ffffffffffffffff81111561280d5761280c613206565b5b6040519080825280601f01601f19166020018201604052801561283f5781602001600182028036833780820191505090505b509050818152600183018586518101602084015b818310156128ae576003830192508251603f8160121c168501518253600182019150603f81600c1c168501518253600182019150603f8160061c168501518253600182019150603f8116850151825360018201915050612853565b6003895106600181146128c857600281146128d8576128e3565b613d3d60f01b60028303526128e3565b603d60f81b60018303525b50505050508093505050505b919050565b60008073ffffffffffffffffffffffffffffffffffffffff166002600084815260200190815260200160002060009054906101000a900473ffffffffffffffffffffffffffffffffffffffff1673ffffffffffffffffffffffffffffffffffffffff1614159050919050565b505050565b505050565b6000600160075461297b9190614c1e565b905090565b61299a828260405180602001604052806000815250612b4f565b5050565b600760008154809291906129b190613f18565b9190505550565b60006129d98473ffffffffffffffffffffffffffffffffffffffff16612baa565b15612b42578373ffffffffffffffffffffffffffffffffffffffff1663150b7a02612a026118f2565b8786866040518563ffffffff1660e01b8152600401612a24949392919061524d565b602060405180830381600087803b158015612a3e57600080fd5b505af1925050508015612a6f57506040513d601f19601f82011682018060405250810190612a6c91906152ae565b60015b612af2573d8060008114612a9f576040519150601f19603f3d011682016040523d82523d6000602084013e612aa4565b606091505b50600081511415612aea576040517f08c379a0000000000000000000000000000000000000000000000000000000008152600401612ae1906150ed565b60405180910390fd5b805181602001fd5b63150b7a0260e01b7bffffffffffffffffffffffffffffffffffffffffffffffffffffffff1916817bffffffffffffffffffffffffffffffffffffffffffffffffffffffff191614915050612b47565b600190505b949350505050565b612b598383612bcd565b612b6660008484846129b8565b612ba5576040517f08c379a0000000000000000000000000000000000000000000000000000000008152600401612b9c906150ed565b60405180910390fd5b505050565b6000808273ffffffffffffffffffffffffffffffffffffffff163b119050919050565b600073ffffffffffffffffffffffffffffffffffffffff168273ffffffffffffffffffffffffffffffffffffffff161415612c3d576040517f08c379a0000000000000000000000000000000000000000000000000000000008152600401612c3490615327565b60405180910390fd5b612c46816128f4565b15612c86576040517f08c379a0000000000000000000000000000000000000000000000000000000008152600401612c7d90615393565b60405180910390fd5b612c9260008383612960565b6001600360008473ffffffffffffffffffffffffffffffffffffffff1673ffffffffffffffffffffffffffffffffffffffff1681526020019081526020016000206000828254612ce29190614c1e565b92505081905550816002600083815260200190815260200160002060006101000a81548173ffffffffffffffffffffffffffffffffffffffff021916908373ffffffffffffffffffffffffffffffffffffffff160217905550808273ffffffffffffffffffffffffffffffffffffffff16600073ffffffffffffffffffffffffffffffffffffffff167fddf252ad1be2c89b69c2b068fc378daa952ba7f163c4a11628f55a4df523b3ef60405160405180910390a4612da360008383612965565b5050565b6040518060c001604052806006905b6060815260200190600190039081612db65790505090565b828054612dda9061364e565b90600052602060002090601f016020900481019282612dfc5760008555612e43565b82601f10612e1557805160ff1916838001178555612e43565b82800160010185558215612e43579182015b82811115612e42578251825591602001919060010190612e27565b5b509050612e509190612e54565b5090565b5b80821115612e6d576000816000905550600101612e55565b5090565b6000604051905090565b600080fd5b600080fd5b60007fffffffff0000000000000000000000000000000000000000000000000000000082169050919050565b612eba81612e85565b8114612ec557600080fd5b50565b600081359050612ed781612eb1565b92915050565b600060208284031215612ef357612ef2612e7b565b5b6000612f0184828501612ec8565b91505092915050565b60008115159050919050565b612f1f81612f0a565b82525050565b6000602082019050612f3a6000830184612f16565b92915050565b6000819050919050565b612f5381612f40565b8114612f5e57600080fd5b50565b600081359050612f7081612f4a565b92915050565b600060208284031215612f8c57612f8b612e7b565b5b6000612f9a84828501612f61565b91505092915050565b600081519050919050565b600082825260208201905092915050565b60005b83811015612fdd578082015181840152602081019050612fc2565b83811115612fec576000848401525b50505050565b6000601f19601f8301169050919050565b600061300e82612fa3565b6130188185612fae565b9350613028818560208601612fbf565b61303181612ff2565b840191505092915050565b600060208201905081810360008301526130568184613003565b905092915050565b600073ffffffffffffffffffffffffffffffffffffffff82169050919050565b60006130898261305e565b9050919050565b6130998161307e565b82525050565b60006020820190506130b46000830184613090565b92915050565b6130c38161307e565b81146130ce57600080fd5b50565b6000813590506130e0816130ba565b92915050565b600080604083850312156130fd576130fc612e7b565b5b600061310b858286016130d1565b925050602061311c85828601612f61565b9150509250929050565b61312f81612f0a565b811461313a57600080fd5b50565b60008135905061314c81613126565b92915050565b60006020828403121561316857613167612e7b565b5b60006131768482850161313d565b91505092915050565b60008060006060848603121561319857613197612e7b565b5b60006131a6868287016130d1565b93505060206131b7868287016130d1565b92505060406131c886828701612f61565b9150509250925092565b6131db81612f40565b82525050565b60006020820190506131f660008301846131d2565b92915050565b600080fd5b600080fd5b7f4e487b7100000000000000000000000000000000000000000000000000000000600052604160045260246000fd5b61323e82612ff2565b810181811067ffffffffffffffff8211171561325d5761325c613206565b5b80604052505050565b6000613270612e71565b905061327c8282613235565b919050565b600067ffffffffffffffff82111561329c5761329b613206565b5b6132a582612ff2565b9050602081019050919050565b82818337600083830152505050565b60006132d46132cf84613281565b613266565b9050828152602081018484840111156132f0576132ef613201565b5b6132fb8482856132b2565b509392505050565b600082601f830112613318576133176131fc565b5b81356133288482602086016132c1565b91505092915050565b60006020828403121561334757613346612e7b565b5b600082013567ffffffffffffffff81111561336557613364612e80565b5b61337184828501613303565b91505092915050565b6000602082840312156133905761338f612e7b565b5b600061339e848285016130d1565b91505092915050565b600080604083850312156133be576133bd612e7b565b5b60006133cc858286016130d1565b92505060206133dd8582860161313d565b9150509250929050565b600080604083850312156133fe576133fd612e7b565b5b600083013567ffffffffffffffff81111561341c5761341b612e80565b5b61342885828601613303565b925050602083013567ffffffffffffffff81111561344957613448612e80565b5b61345585828601613303565b9150509250929050565b600067ffffffffffffffff82111561347a57613479613206565b5b61348382612ff2565b9050602081019050919050565b60006134a361349e8461345f565b613266565b9050828152602081018484840111156134bf576134be613201565b5b6134ca8482856132b2565b509392505050565b600082601f8301126134e7576134e66131fc565b5b81356134f7848260208601613490565b91505092915050565b6000806000806080858703121561351a57613519612e7b565b5b6000613528878288016130d1565b9450506020613539878288016130d1565b935050604061354a87828801612f61565b925050606085013567ffffffffffffffff81111561356b5761356a612e80565b5b613577878288016134d2565b91505092959194509250565b6000806040838503121561359a57613599612e7b565b5b60006135a885828601612f61565b925050602083013567ffffffffffffffff8111156135c9576135c8612e80565b5b6135d585828601613303565b9150509250929050565b600080604083850312156135f6576135f5612e7b565b5b6000613604858286016130d1565b9250506020613615858286016130d1565b9150509250929050565b7f4e487b7100000000000000000000000000000000000000000000000000000000600052602260045260246000fd5b6000600282049050600182168061366657607f821691505b6020821081141561367a5761367961361f565b5b50919050565b7f4552433732313a20617070726f76616c20746f2063757272656e74206f776e6560008201527f7200000000000000000000000000000000000000000000000000000000000000602082015250565b60006136dc602183612fae565b91506136e782613680565b604082019050919050565b6000602082019050818103600083015261370b816136cf565b9050919050565b7f4552433732313a20617070726f76652063616c6c6572206973206e6f7420746f60008201527f6b656e206f776e6572206e6f7220617070726f76656420666f7220616c6c0000602082015250565b600061376e603e83612fae565b915061377982613712565b604082019050919050565b6000602082019050818103600083015261379d81613761565b9050919050565b7f4552433732313a2063616c6c6572206973206e6f7420746f6b656e206f776e6560008201527f72206e6f7220617070726f766564000000000000000000000000000000000000602082015250565b6000613800602e83612fae565b915061380b826137a4565b604082019050919050565b6000602082019050818103600083015261382f816137f3565b9050919050565b7f4552433732313a20696e76616c696420746f6b656e2049440000000000000000600082015250565b600061386c601883612fae565b915061387782613836565b602082019050919050565b6000602082019050818103600083015261389b8161385f565b9050919050565b7f4552433732313a2061646472657373207a65726f206973206e6f74206120766160008201527f6c6964206f776e65720000000000000000000000000000000000000000000000602082015250565b60006138fe602983612fae565b9150613909826138a2565b604082019050919050565b6000602082019050818103600083015261392d816138f1565b9050919050565b600081905092915050565b600061394a82612fa3565b6139548185613934565b9350613964818560208601612fbf565b80840191505092915050565b600061397c828561393f565b9150613988828461393f565b91508190509392505050565b7f746f6b656e4964206d7573742062652065786973740000000000000000000000600082015250565b60006139ca601583612fae565b91506139d582613994565b602082019050919050565b600060208201905081810360008301526139f9816139bd565b9050919050565b7f3c73766720786d6c6e733d22687474703a2f2f7777772e77332e6f72672f323060008201527f30302f73766722207072657365727665417370656374526174696f3d22784d6960208201527f6e594d696e206d656574222076696577426f783d22302030203332302033323060408201527f223e000000000000000000000000000000000000000000000000000000000000606082015250565b6000613aa8606283613934565b9150613ab382613a00565b606282019050919050565b7f3c7374796c653e2e62617365207b2066696c6c3a2077686974653b20666f6e7460008201527f2d66616d696c793a2073657269663b20666f6e742d73697a653a20313470783b60208201527f7d3c2f7374796c653e0000000000000000000000000000000000000000000000604082015250565b6000613b40604983613934565b9150613b4b82613abe565b604982019050919050565b7f3c646566733e3c66696c7465722069643d2266223e3c6665476175737369616e60008201527f426c757220696e3d22536f75726365477261706869632220737464446576696160208201527f74696f6e3d223322202f3e3c2f66696c7465723e000000000000000000000000604082015250565b6000613bd8605483613934565b9150613be382613b56565b605482019050919050565b6000613bf982613a9b565b9150613c0482613b33565b9150613c0f82613bcb565b9150819050919050565b7f4e487b7100000000000000000000000000000000000000000000000000000000600052603260045260246000fd5b7f3c6c696e6561724772616469656e742069643d22000000000000000000000000600082015250565b6000613c7e601483613934565b9150613c8982613c48565b601482019050919050565b7f4c47223e3c73746f70206f66667365743d223025222073746f702d636f6c6f7260008201527f3d22000000000000000000000000000000000000000000000000000000000000602082015250565b6000613cf0602283613934565b9150613cfb82613c94565b602282019050919050565b7f222f3e3c73746f70206f66667365743d2231303025222f3e0000000000000000600082015250565b6000613d3c601883613934565b9150613d4782613d06565b601882019050919050565b7f3c2f6c696e6561724772616469656e743e3c636972636c652069643d22000000600082015250565b6000613d88601d83613934565b9150613d9382613d52565b601d82019050919050565b7f222063783d2230222063793d22302220723d223130222066696c6c3d2275726c60008201527f2823000000000000000000000000000000000000000000000000000000000000602082015250565b6000613dfa602283613934565b9150613e0582613d9e565b602282019050919050565b7f4c4729222f3e0000000000000000000000000000000000000000000000000000600082015250565b6000613e46600683613934565b9150613e5182613e10565b600682019050919050565b6000613e68828861393f565b9150613e7382613c71565b9150613e7f828761393f565b9150613e8a82613ce3565b9150613e96828661393f565b9150613ea182613d2f565b9150613eac82613d7b565b9150613eb8828561393f565b9150613ec382613ded565b9150613ecf828461393f565b9150613eda82613e39565b91508190509695505050505050565b7f4e487b7100000000000000000000000000000000000000000000000000000000600052601160045260246000fd5b6000613f2382612f40565b91507fffffffffffffffffffffffffffffffffffffffffffffffffffffffffffffffff821415613f5657613f55613ee9565b5b600182019050919050565b7f3c636972636c652069643d2246222063783d2200000000000000000000000000600082015250565b6000613f97601383613934565b9150613fa282613f61565b601382019050919050565b7f222063793d220000000000000000000000000000000000000000000000000000600082015250565b6000613fe3600683613934565b9150613fee82613fad565b600682019050919050565b7f2220723d223231222066696c6c3d2223646464222066696c7465723d2275726c60008201527f28236629222f3e00000000000000000000000000000000000000000000000000602082015250565b6000614055602783613934565b915061406082613ff9565b602782019050919050565b7f2220723d223134222066696c6c3d2223616161222066696c7465723d2275726c60008201527f28236629222f3e00000000000000000000000000000000000000000000000000602082015250565b60006140c7602783613934565b91506140d28261406b565b602782019050919050565b60006140e882613f8a565b91506140f4828761393f565b91506140ff82613fd6565b915061410b828661393f565b915061411682614048565b915061412182613f8a565b915061412d828561393f565b915061413882613fd6565b9150614144828461393f565b915061414f826140ba565b915081905095945050505050565b7f4e487b7100000000000000000000000000000000000000000000000000000000600052602160045260246000fd5b7f3c75736520687265663d22230000000000000000000000000000000000000000600082015250565b60006141c2600c83613934565b91506141cd8261418c565b600c82019050919050565b7f2220783d22000000000000000000000000000000000000000000000000000000600082015250565b600061420e600583613934565b9150614219826141d8565b600582019050919050565b7f2220793d22000000000000000000000000000000000000000000000000000000600082015250565b600061425a600583613934565b915061426582614224565b600582019050919050565b7f222f3e0000000000000000000000000000000000000000000000000000000000600082015250565b60006142a6600383613934565b91506142b182614270565b600382019050919050565b60006142c8828761393f565b91506142d3826141b5565b91506142df828661393f565b91506142ea82614201565b91506142f6828561393f565b91506143018261424d565b915061430d828461393f565b915061431882614299565b915081905095945050505050565b7f3c7465787420783d2233302220793d2232352220636c6173733d22626173652260008201527f3e4e4654204e6577732043657274696669636174696f6e202337363c2f74657860208201527f743e000000000000000000000000000000000000000000000000000000000000604082015250565b60006143a8604283613934565b91506143b382614326565b604282019050919050565b7f3c7465787420783d2233302220793d2234352220636c6173733d22626173652260008201527f3e49443a20000000000000000000000000000000000000000000000000000000602082015250565b600061441a602583613934565b9150614425826143be565b602582019050919050565b7f3c2f746578743e3c7465787420783d2233302220793d2236352220636c61737360008201527f3d2262617365223e204d696e7465723a20000000000000000000000000000000602082015250565b600061448c603183613934565b915061449782614430565b603182019050919050565b60008190508160005260206000209050919050565b600081546144c48161364e565b6144ce8186613934565b945060018216600081146144e957600181146144fa5761452d565b60ff1983168652818601935061452d565b614503856144a2565b60005b8381101561452557815481890152600182019150602081019050614506565b838801955050505b50505092915050565b7f3c2f746578743e3c2f7376673e00000000000000000000000000000000000000600082015250565b600061456c600d83613934565b915061457782614536565b600d82019050919050565b600061458d8261439b565b91506145988261440d565b91506145a4828561393f565b91506145af8261447f565b91506145bb82846144b7565b91506145c68261455f565b91508190509392505050565b60006145de828961393f565b91506145ea828861393f565b91506145f6828761393f565b9150614602828661393f565b915061460e828561393f565b915061461a828461393f565b9150819050979650505050505050565b7f7b226e616d65223a20224e46544e65777343657274696669636174696f6e2023600082015250565b6000614660602083613934565b915061466b8261462a565b602082019050919050565b7f222c226465736372697074696f6e223a20224e4654204e65777320526561646960008201527f6e672043657274696669636174696f6e2e222c00000000000000000000000000602082015250565b60006146d2603383613934565b91506146dd82614676565b603382019050919050565b7f2261747472696275746573223a205b7b2274726169745f74797065223a22436f60008201527f6c6f72222c2276616c7565223a22000000000000000000000000000000000000602082015250565b6000614744602e83613934565b915061474f826146e8565b602e82019050919050565b7f227d5d2c00000000000000000000000000000000000000000000000000000000600082015250565b6000614790600483613934565b915061479b8261475a565b600482019050919050565b7f22696d616765223a2022646174613a696d6167652f7376672b786d6c3b62617360008201527f6536342c00000000000000000000000000000000000000000000000000000000602082015250565b6000614802602483613934565b915061480d826147a6565b602482019050919050565b600061482382614653565b915061482f828561393f565b915061483a826146c5565b915061484582614737565b915061485182846144b7565b915061485c82614783565b9150614867826147f5565b91508190509392505050565b7f227d000000000000000000000000000000000000000000000000000000000000600082015250565b60006148a9600283613934565b91506148b482614873565b600282019050919050565b60006148cb828561393f565b91506148d7828461393f565b91506148e28261489c565b91508190509392505050565b7f646174613a6170706c69636174696f6e2f6a736f6e3b6261736536342c000000600082015250565b6000614924601d83613934565b915061492f826148ee565b601d82019050919050565b600061494582614917565b9150614951828461393f565b915081905092915050565b7f4f6e6c79206f776e65722063616e20736574207369676e617475726500000000600082015250565b6000614992601c83612fae565b915061499d8261495c565b602082019050919050565b600060208201905081810360008301526149c181614985565b9050919050565b7f4f776e61626c653a206e6577206f776e657220697320746865207a65726f206160008201527f6464726573730000000000000000000000000000000000000000000000000000602082015250565b6000614a24602683612fae565b9150614a2f826149c8565b604082019050919050565b60006020820190508181036000830152614a5381614a17565b9050919050565b7f4f776e61626c653a2063616c6c6572206973206e6f7420746865206f776e6572600082015250565b6000614a90602083612fae565b9150614a9b82614a5a565b602082019050919050565b60006020820190508181036000830152614abf81614a83565b9050919050565b7f4552433732313a207472616e736665722066726f6d20696e636f72726563742060008201527f6f776e6572000000000000000000000000000000000000000000000000000000602082015250565b6000614b22602583612fae565b9150614b2d82614ac6565b604082019050919050565b60006020820190508181036000830152614b5181614b15565b9050919050565b7f4552433732313a207472616e7366657220746f20746865207a65726f2061646460008201527f7265737300000000000000000000000000000000000000000000000000000000602082015250565b6000614bb4602483612fae565b9150614bbf82614b58565b604082019050919050565b60006020820190508181036000830152614be381614ba7565b9050919050565b6000614bf582612f40565b9150614c0083612f40565b925082821015614c1357614c12613ee9565b5b828203905092915050565b6000614c2982612f40565b9150614c3483612f40565b9250827fffffffffffffffffffffffffffffffffffffffffffffffffffffffffffffffff03821115614c6957614c68613ee9565b5b828201905092915050565b7f416464726573733a20696e73756666696369656e742062616c616e6365000000600082015250565b6000614caa601d83612fae565b9150614cb582614c74565b602082019050919050565b60006020820190508181036000830152614cd981614c9d565b9050919050565b600081905092915050565b50565b6000614cfb600083614ce0565b9150614d0682614ceb565b600082019050919050565b6000614d1c82614cee565b9150819050919050565b7f416464726573733a20756e61626c6520746f2073656e642076616c75652c207260008201527f6563697069656e74206d61792068617665207265766572746564000000000000602082015250565b6000614d82603a83612fae565b9150614d8d82614d26565b604082019050919050565b60006020820190508181036000830152614db181614d75565b9050919050565b6000614dc482856144b7565b9150614dd0828461393f565b91508190509392505050565b7f4d696e74696e672077696e646f77206973206e6f74206f70656e000000000000600082015250565b6000614e12601a83612fae565b9150614e1d82614ddc565b602082019050919050565b60006020820190508181036000830152614e4181614e05565b9050919050565b7f546f6b656e20616d6f756e742069732066756c6c290000000000000000000000600082015250565b6000614e7e601583612fae565b9150614e8982614e48565b602082019050919050565b60006020820190508181036000830152614ead81614e71565b9050919050565b7f596f752072656163686564206d696e74206c696d697400000000000000000000600082015250565b6000614eea601683612fae565b9150614ef582614eb4565b602082019050919050565b60006020820190508181036000830152614f1981614edd565b9050919050565b7f45746865722076616c7565206973206e6f7420636f7272656374000000000000600082015250565b6000614f56601a83612fae565b9150614f6182614f20565b602082019050919050565b60006020820190508181036000830152614f8581614f49565b9050919050565b7f756e61636365707461626c650000000000000000000000000000000000000000600082015250565b6000614fc2600c83612fae565b9150614fcd82614f8c565b602082019050919050565b60006020820190508181036000830152614ff181614fb5565b9050919050565b600061500482846144b7565b915081905092915050565b7f4552433732313a20617070726f766520746f2063616c6c657200000000000000600082015250565b6000615045601983612fae565b91506150508261500f565b602082019050919050565b6000602082019050818103600083015261507481615038565b9050919050565b7f4552433732313a207472616e7366657220746f206e6f6e20455243373231526560008201527f63656976657220696d706c656d656e7465720000000000000000000000000000602082015250565b60006150d7603283612fae565b91506150e28261507b565b604082019050919050565b60006020820190508181036000830152615106816150ca565b9050919050565b7f4e487b7100000000000000000000000000000000000000000000000000000000600052601260045260246000fd5b600061514782612f40565b915061515283612f40565b9250826151625761516161510d565b5b828206905092915050565b600061517882612f40565b915061518383612f40565b9250817fffffffffffffffffffffffffffffffffffffffffffffffffffffffffffffffff04831182151516156151bc576151bb613ee9565b5b828202905092915050565b60006151d282612f40565b91506151dd83612f40565b9250826151ed576151ec61510d565b5b828204905092915050565b600081519050919050565b600082825260208201905092915050565b600061521f826151f8565b6152298185615203565b9350615239818560208601612fbf565b61524281612ff2565b840191505092915050565b60006080820190506152626000830187613090565b61526f6020830186613090565b61527c60408301856131d2565b818103606083015261528e8184615214565b905095945050505050565b6000815190506152a881612eb1565b92915050565b6000602082840312156152c4576152c3612e7b565b5b60006152d284828501615299565b91505092915050565b7f4552433732313a206d696e7420746f20746865207a65726f2061646472657373600082015250565b6000615311602083612fae565b915061531c826152db565b602082019050919050565b6000602082019050818103600083015261534081615304565b9050919050565b7f4552433732313a20746f6b656e20616c7265616479206d696e74656400000000600082015250565b600061537d601c83612fae565b915061538882615347565b602082019050919050565b600060208201905081810360008301526153ac81615370565b905091905056fe4142434445464748494a4b4c4d4e4f505152535455565758595a6162636465666768696a6b6c6d6e6f707172737475767778797a303132333435363738392b2f3c2f646566733e3c726563742077696474683d223130302522206865696768743d2231303025222066696c6c3d2223323232222072783d223135222072793d223135222f3ea2646970667358221220f728f8457b56b1326e383356e78b0223b84219323508fcd9f0436c8859bfff1b64736f6c63430008090033",
  "linkReferences": {},
  "deployedLinkReferences": {}
}